:400000000040002011000000A5070000A507000010B500F0CFFB0000F8B572B680260024434DF6002C6032002100424803F0DCFA32002100404803F0D7FA9923EE213F4A2E
:400040001B0413603E4A0904116006213D4A802714603D4A3D4E14603D4AFF0513603D4A13603D4A13603D4A13780B4313702023C4213B4A890213603A4A11603A4A13602D
:4000800004223A4B1A603A4B7D32FF321A60394BD03A1A60384A394B1A601222384B1A6001F0C8FA374801F0F7FA012001F0CEFA302001F0AFF90221334A344BFA201A60F9
:4000C000334A37601368C0000B431360314A324B1A600822314B1C602B6893432B6001F02BFA2F4801F01EFAE822C8212D4B52011A602D4B2D4A49011A602D4A11602D4A88
:400100001A6080222C4B12061A6080222B4BD2021A6041222A4B1A602A4B013A1A600323294A37601360294A1360294B1C60F8BD6CF02E4000300F4000400F40000102406F
:400140000003024000000240080004400C020B4010500F4020500F4030500F4000700F4000010440080104401801044000020440080204400003044000408200080304407C
:4001800030001040001BB7000600008004010B4078002E406A2D00007C002E4064F02E40DC050000040301400000014041FF00800003014040FF008008010B4000010B4021
:4001C00008010140040101403000304030003140000E3F4010B5064C2378002B07D1054B002B02D0044800E000BF0123237010BD9010002000000000844B0100084B10B588
:40020000002B03D00749084800E000BF07480368002B00D110BD064B002BFBD09847F9E70000000094100020844B0100A00B0020000000000023084A1370084A1360084A8A
:400240001360084A1360084A1360084A137013715370D370937070473C220020482200204022002024220020582200204C220020FA2070B5400001F03FF9FA20154C4000ED
:400280002379637101F038F900F0F2F9A070FA20400001F031F900F03FFA03230E4E65793278E370013B2370511B531CC0B2C9B2DBB260702271A171F92B00D9002333706A
:4002C000064B5871A078D97002215D70187199701A7070BD4C2200203C2200202D22002010B5044800F0C2FA00F0CAF803F0B4F910BDC0463D05000010B5022001F064F877
:4003000001F05AF805F038F901F050F901F04AF8002001F059F803F09FF910BD10B562B600F092FC054C200000F040FE044800F03DFE200000F03AFE10BDC046A74B0100AE
:40034000C44B010030B5114B85B00193062301ACA380083323810E4800F028FE0D4A210050781378000218430EF05EFD0A4D286003F072F90022094B1A602B68934203D036
:40038000074B1B78022BE6D005B030BD2D220020E14B01006A22002038220020182200206822002070B5FFF7B9FFFFF799FF052001F0A2F80C4B012200251C001A6023683C
:4003C000002B10D0002D0ED1084B1B78012B02D0FFF7B8FF0125064800F0E8FD00F050F803F03AF9EBE770BD1822002069220020EB4B010010B5184C2078042825D801F098
:400400005DFC030D19242000144800F0CFFDFA2001234000237001F06FF81BE0104800F0C5FDFFF725FF00F0E9FD052001F064F802230EE0FFF7B6FF0A4800F0B7FD042333
:4004400007E0FFF759FF084800E0084800F0AEFD0023237010BDC0462C220020F94B0100074C0100154C01002A4C0100424C010010B5FFF7DFFEFFF751FFFFF7BBFFFCE7C3
:400480007FB56B4601930223234D01AE2878B380F3800D333381214C042839D8237801F00DFC322E07031A001D48032B2ED12FE0022B02D01B4800F079FD00221A49300064
:4004C0000FF03AFF194B1B78012B21D06B46187800F06EF81CE0042B02D0154800F066FD6B4600201870587000F00EFA00F0BAFB00F068FC00F0F8FB00F0A6FB08E00D48A9
:40050000012B03D104E0002B02D00B4800F04EFD2B7823707FBDC046682200205C2200206D4C01008C4C01006A22002069220020A94C0100C94C0100E94C010010B50C008F
:4005400041280FD005D801280AD0282820D111481CE04C2819D04E2806D0432818D10AE00D4813E00D4811E00D4800F01FFD200000F074F80CE00B4800F018FD62880A4BE8
:40058000162A00D917221A8002E0084800F00EFD10BDC0461E4D0100044D0100474D0100694D01008E4D0100A40B0020B34D0100F0B587B06A46254D00AF2B8806000433FC
:4005C000DB08DB00D31A9D467B6000F07BFB84B2002C37D0012E35D12B881D4A033B9C4206DBFA219CB289001180002C06D129E01388013B9BB21380002B23D1FA230025D0
:400600009B001380A54206D200F0AAFC7B6858550135EDB2F6E77B683C82FB600E23BB820C4A50781378000218430C23F9180EF0FBFB040003F010F8002C03D0064B1B786F
:40064000022BEDD0BD4607B0F0BDC046A40B0020A60B00206A2200206822002010B58389112B03D10189406800F0A0FB10BD000070B500F0B5FC002301221F49402000F0FE
:40068000A3FD022400F06AFD2042FBD000F07CFD052000F031FF194C002304222100402000F006FE012500F059FD2842FBD000F06BFD2078637800021843114B186001F091
:4006C00051FF02F065FD0F4A0F4B01F093FF02F0B3FDDE21890501F089FC02F059FD0B4A0B4B02F001FA02F0A7FD0A4B186001F065FCC0B270BDC046A80B0020AC10002092
:4007000014220020D7A3703D0AF76540CDCCCCCCCC6C47401C22002070B500F061FC01221A4900238918402000F04EFD022400F015FD2042FBD000F027FD052000F0DCFE99
:40074000134C0023211D0422402000F0B1FD012500F004FD2842FBD000F016FD20796379000218430B4B186001F0FCFE0A4901F03DFCDE21890501F039FC084901F04AFD02
:40078000074B186001F01AFCC0B270BDA80B0020AC100020342200200000FA420000C0400022002010B502F0DBFE03680C2B00D1FEE7FEE7F8B500250F49104B01394A1C34
:4007C00014D000221F685C689E68A018B24203D0B858A0500432F8E70200DE68141AA64201D020C2FAE710330139E8E702F0BEFEFFF73EFEFEE7C04601000000485001006B
:4008000001210D4A70B5136814008B43136000230A4D0B4E0B489A002900032B00D8B15801338150302BF6D1FFF7F6FB012223681343236070BDC04600001040A50700008E
:4008400000000000000000200023054A10B51370044A1370044A137000F0E4F910BDC0466D220020692200206C22002030B591B0040014221D490BA802F0ADFE1C4D2B7832
:40088000002B03D1FFF7E0FF01232B700120002C29D0184B00211C601B2408A805AA06AB0181117016311C805C806944173C426008931C7102F0ACFF002814D10523AE22E2
:4008C00002900190009312010BAB0B490B4802F0F5FE002807D10122094B11211A70094813320FF011FD11B030BDC046D44D0100B410002060220020C0000020010A0000D0
:4009000068220020E84D0100020010B50120022A2FD8184B1B78042B29D1174C2178194225D1164B002A08D11900093050310880596C1630088080300BE0012A0AD1190044
:40094000962050310880C820596CC00008808020C00148800A49403318000A700DF0BCF8002806D1042223781343237001E00420FF3010BD682200206D220020AC0B0020B7
:400980006C22002070470378407800021843704770B58389040000250B2B1AD129000430353322000FF002FD051E0DD16068FFF7EAFF094B21001B68820702D58220400049
:4009C00001E00620FF3098470121044A13788B431370280070BDC046602200206D220020002382799A4208D1821D0378002B03D101309042F9D100E001231800704700005E
:400A0000F0B50D0001217C4B85B01A7804000A431A701E00272800D18DE00FD8062862D006D8884221D0052800D0D6E02A7857E0212867D0262800D17FE0CEE0422800D17B
:400A4000A9E00BD8282848D0412800D0C5E0022229006A4802F0BFFD002241E0432800D19DE04C2800D1A2E0B7E00022072702AB03A85A711F7104F0DFFD02AB03A81F7102
:400A80005C7104F0D9FD5E4F3B6818000093FFF7A7FF0190002809D0009802F0E1FD00213868FFF76FFF2100386809E0554F380002F0D6FD01993800FFF764FF210038001A
:400AC000FFF760FF03200CF099FE3F2302AA1371002303A853710CF0AFFE04224A4B00E04A4B1A7079E02B78002B76D16A78002A05D1474BDA809A80464A6B601A6033788E
:400B0000012233E01B789B0667D443490B78102B01D10B3BCB70394B18780CF09BFF03A90880002803D03D4B36201B6898470122337813431BE00222D0E7334B1A781F0031
:400B40000092022A49D0012132780A4245D004223178114203D003211970337806E033781B0706D5042308223B7033789343337033E0009B032B30D101333B70284B1B78B4
:400B8000002B2AD10120FFF7BFFE002825D16B461B783B7021E00022184B5A70A1E76988162900D9172128880EF00AF915E02800FFF7EEFE0122337813420ED1002809D062
:400BC000122303A98B70AB89C87028680B800EF0EDF802E028680EF073F9112332781A4208D0012233782900934333700B4B20001B68984705B0F0BD6D2200206A220020BC
:400C0000000C0020040C00206822002069220020B8100020A00B0020B60C0020602200206C220020704700008021064A10B5136809060B431360092000F040FC00F064F9C4
:400C400010BDC0460000244010B5054C2378002B03D100F0E3F801232370FFF7E5FF10BDC010002010B5092000F032FC00F062F9054A092013685B005B0813600022034B89
:400C80001A6000F02FFC10BD00002440880F2440084B094A196813680020994209D01368064901338B4200D103000549C85C1360C0B27047803200207822002001080000BB
:400CC0007C2A0020054B1868054B1A681B68904201D2044A8018C01A7047C04680320020782200200108000010B5092000F0F0FB0B4B80211A680B4B49021A6000220A4B7E
:400D000009201A70094B1A680A431A601968084A0A401A60074A084B1A6000F0CFFB10BD78220020803200207D32002004032440FFFFFEFFED0F0000C00F2440144B154A79
:400D400030B515681C681900A54208D1124B1C681F232340082B02D0104B186017E08024136824010133A34200D100230C68A342FCD002210A4CC0B221600A4CE054136080
:400D8000094B1A680A4202D11A680A431A6030BD70220020742200200802244040022440800F24407C220020880F244070B504004518AC4204D02078FFF7C0FF0134F8E737
:400DC00070BD000010B5092000F082FB02210C4B09201A680B4B1A600B4A13688B43802113600A4B49021A680A431A601968084A0A401A60074A084B1A6000F05FFB10BD0F
:400E00007022002074220020880F244004022440FFFFFEFFF3070000800F244070B50024072104251E4A1F4B09201A601E4B1F4A1C601F4B1A601F4B1F4A13601F4A11609C
:400E40001F4A063914601F4A11601F4A13601F4B1C601F4B1D6000F03BFB0321092000F013FB1C49092000F007FB1B4B1C601B4B1C601B4B1C601B4B1C601B4B1D601B4B11
:400E80001C601A681A4B1A801A4B1C601A4B1C601A4B1C701A4B1C601A4B1C6070BDC0460F000002000024404000244001000A004800244007000080000324400403244064
:400EC0001003244044002440000224400402244050002440B9160000880E2440C80E2440480F2440080F2440C80F2440880F2440C810002080320020782200207D3200208D
:400F00007422002070220020064A074B11680B40902109040B431360044B1A88044B1A607047C04600010240FFFF0FFFC8100020880F2440064A074B11680B401360064B81
:400F40001A68E423DB001340044A13807047C04600010240FFFF0FFF880F2440C810002070B5092000F0B4FAFFF7ACFE0D4D002806D0092000F0A2FAFFF78AFE040006E0D9
:400F8000094B09201C6804232B6000F097FAD8239B0028682B60D82300029B021840204370BDC046C00F24404003244010B504000134631E1878002802D0FFF7BFFEF7E750
:400FC00010BD00008021054A10B5136809060B4313600A2000F072FA10BDC0460000254010B5054C2378002B03D100F01DF801232370FFF7E7FF10BDCC10002010B50A2066
:4010000000F066FA00F06CF8054A0A2013685B005B0813600022034B1A6000F063FA10BD00002540880F254010B50024184B194A1C60194B0A201A60184B194A1360194AB3
:401040001460194A1460194A1360194B1C6000F03FFA03210A2000F017FA16490A2000F00BFA1022144B1C60144B1C60144B1C60144B1C60144B1C60144B1C60144B1A703C
:40108000144B1C80144B1C60144B1C6010BDC04600002540FF08008060002540070100800003254004032540100325400002254004022540A1170000C80E2540880E254067
:4010C000480F2540080F2540C80F2540880F25408432002092320020983200208C3200200023044A1360044A13601022034B1A707047C046680025406C002540843200201E
:401100000E4A10B513680E495B005B08136000230B600C490C480B6004680C49214001600B490B600B490B6010210B4B19708021136809060B43136010BDC04600002540B8
:40114000680025406C00254060002540FF5CFFFF880F2540C80F25408432002010B50A2000F0B6F9064B1C88064BA4B21B789B0601D504231C430A2000F0A0F9200010BD4B
:40118000923200208432002010B50A2000F0A0F90022044B0A201C88A4B21A8000F08EF9200010BD92320020054B1A682023134000D0082301221343024A13607047C0462E
:4011C0006400254068002540F7B506000F00019200930424002948D0264D2B78102B08D10A2000F075F9244B24191B68DB073CD408E02B780424602B37D108211F4A1388C3
:401200008B43138028232B7000251D4B019A1D601C4B1A491D601C4B76001A601B4B1C481F606B461A781B4B01241A70FF2302221E400B88184F93430B80402317490B6056
:401240001749086014201749FF30086016490B60009B23401C00AB4204D0FFF7A5FF2C003E6002E0114B3E601A600A2000F026F92000FEBD84320020640025409232002085
:40128000883200208C320020943200209C320020170300009032002040022540800F2540000F2540080F2540880F254068002540F7B506000F00019200930424002950D0FA
:4012C0002A4D2B78102B08D10A2000F001F9284B24191B68DB0744D408E02B780424602B3FD10821234A13888B431380292300222B70214B21491A60019B214A01201360AB
:40130000204B76001F606B461B780B70FF2319491E400B88064383430B801B491B4B196014211B4BFF31196013681A4A072B01D8042306E08020184940000B6803430B609C
:40134000082301241360009B144D23401C1E04D0FFF72AFF00242E6003E00222104B2E601A600A2000F0AAF82000FEBD84320020640025409232002098320020903200201C
:40138000A4320020A032002017030000000F2540080F2540C80F25406000254040022540680025408021034A090613680B4313607047C04608010B40024A13685B005B08F7
:4013C0001360704708010B4010B5040000F06DF9072304490A689A43234013430B6000F068F910BD00010B4070B5040000F05DF9E104E024054DA4032B68054A21401A400E
:401400000B0013432B6000F054F970BD00010B40FFFFC7FF10B5040086B000F046F90E4B0E491A6802AB02920D4A126803920D4A1419033C227804920B4A126805920B4A91
:4014400000926A4601930A4B1A600A4A11601B6800F02FF906B010BD08010B401700008000010B40724F010030001040B6EA00000800104004001040024B8000C3181868F7
:401480001960704740000020F8B5032605003540B5400F0004000635AE40AF4000F005F9A408054BA400E4182368B3431F43276000F0FFF8F8BDC04600E400E01F23184038
:4014C0001E3B8340014A13607047C04600E100E01F2318401E3B8340014A13607047C04680E100E01F2318401E3B8340014A13607047C04680E200E070B5802504002D02B2
:40150000064BAC4205D9586800F0C6F8044BE418F6E79868604300F0BFF870BDBC0C00200080FFFF10B5034B1B7B584300F0B4F810BDC046BC0C0020012370B50400802093
:401540000E4900020A681D001A430A600C490D4A11600D490A6802430A60002C01D100200AE00120FFF7DEFF084B1B682B42F6D1013C002CF5D1102070BDC04660F02E40D2
:401580000220000078002E4010002E400C002E4010B500F08AF80421034A13688B43136030BF00F086F810BD10ED00E037B500F07CF804210D4A0E4D136804005B005B085B
:4015C00013600C4B0C4A1B8802209BB213600B4A13680B4313602B680193FFF705FF30BF019B20002B6000F064F837BD00000B4000010B4052F1FF0F0C000B4010ED00E002
:4016000001200A4A136883431360022311689943116007492E330A689A43203B1A430A6007220B68934303430B60704700F02E4000FF2E4010B5FFF7E3FF8021024A090636
:4016400013680B43136010BD00F02E400122104B70B51C681440002815D0904215D1022507261968A94319600A490A68B2432A430A600A682E35AA43103D2A430A601A6890
:401680001043186001E0FFF7BBFF200070BDC04600F02E4000FF2E400230800803D00138FDD1C046C046C0467047EFF3108072B6704780F310887047274B70B51B68002BFB
:4016C00000D09847254B1B685B071DD520251F202349244C0B680133A34200D10023224A1668224AB34203D11368214B1D7004E01268204ED2B2F2540B601F4B1B6803424E
:40170000E8D104221D4B1A601D4B1B689B0721D580251F201B4C1C4A2D0121681368994210D013680133AB4200D100231749184EC95CC9B231601360164B1B680340082B73
:40174000EBD104E00221144A13688B4313600222124B1A6070BDC046C4100020CC0F2440803200200108000078220020400324407D3200207C2A002008032440C00F2440B8
:401780008C0F244074220020702200207C2200204002244008022440880F2440800F2440F8B59F4B1B68002B00D098479D4B1B68DB0702D500229C4B1A609C4B1A78920656
:4017C00001D4002223E09A4A00211068C00506D5C0249848A40001882143018001211268D20706D59020934980000A8802430A8001E00029E5D00122022019788D4C114080
:40180000411A2088014389B221800021197018781021800600D4D8E0854C206808420DD0854A844C11600122187802400220821A2088024392B222801970EFE01878000703
:401840001BD502202568054209D07B4A7949106088200A88800002430A8001220DE01878C00702D52521197007E02420187073480068002801D0724801600425197829420D
:4018800000D19FE001201978014243D008266D490C68344223D06C496C4C0D686C4909682768EF1B1F252940791AB14207D8002906D16849684A0D682A400A60020031007D
:4018C000664E674D20683768013938182F68FFB207702068013020600029F3D117E00968294214D059495D4E0C68366834195C4E3668F6B226700C6801340C600C685249DD
:4019000009688C4202D257490D6000E00200564856494DE0022124680C4220D0464A544C11601F2253490E680D68216832408A1AE90B0840101A2060842021684E4A80001B
:4019400011603C490A88024380200A804B4A400211680143116010684949014030E049490868C00626D540204749424D0E6840491F272C683C40082C18D00C68A4462F4C84
:401980002768BC4512D224680F68013CBC4203D13E4C20602A4C20600C683D4F34192478E4B23C600C6801340C60E1E710203749086007E00968490604D52D4A11682E4AA9
:4019C000116008E0002A06D128E01B780B4225D1FFF796FB22E01F491F4A086802400A6000222C490A6016490A602B4A127892070CD5012219780F480A400A218A1A018849
:401A00000A4392B2028060221A7007E0234B1A681823920600D4083B124A1360F8BDC046D01000208C0E2540880E2540843200200C0F254092320020000F254094320020AE
:401A4000880F2540CC0F2540A4320020983200200803254060002540FFFEFFFFA03200204003254068002540ED0F0000C00F254088320020080225408C32002004022540F1
:401A8000FFFFFEFF8C0F25409C320020800F254040022540C80F2540903200206400254001607047016070472B4B2C4A19782C4B09021B7819432B4B1B7812781B02134397
:401AC000294A934204D1072909D1284B033906E0D4221201934202D1042900D1234B244A1360244B244A1960244B1B7812781B021343234A134200D1224B234A234913608B
:401B0000234A0B7812781B021343224A934204D0214A934201D0052B00D1204B204A1360204B214A1B681268AA2A14D11F2B12D90B780E2B0FD11D4B1D4A1B7812781B02E3
:401B400013431C4A13601C4B1C4A1B7812781B0213431B4A13607047D9F0FF0FDEF0FF0FD8F0FF0FDFF0FF0F580B0000580D00006C002E4074002E40DAF0FF0FDBF0FF0FAF
:401B8000FFDFFFFF0220000078002E40DDF0FF0FDCF0FF0F0F0F000005050000050F000080002E40EC0F00F0E00F00F06DF2FF0F6CF2FF0F84002E406FF2FF0F6EF2FF0FF0
:401BC00094002E4010B5FFF7ADFC10BD10B5FFF793FC10BD10B500F05DF810BD10B500F061F810BD10B500F05DF8034800F028F8032000F02BF810BDB51C000010B50248A1
:401C000000F034F810BDC046B51C00000220FF3070472B2070472B2070472B2070472B2070472B2070472B2070472B2070472B2070472B2070472B2070472B20704770470F
:401C4000014B18677047C0460000002010B50400FFF72BFDC021044AA40113688B431C431460FFF726FD10BD0CE400E010B58024054B64011C60054B18670320FFF7E6FFC8
:401C8000034B1C6010BDC04680E100E00000002000E100E08022024B52011A607047C04600E100E08022024B52011A607047C04680E100E010B512F051FF10BD02B4714620
:401CC00049084900095C49008E4402BC7047C046002243088B4274D303098B425FD3030A8B4244D3030B8B4228D3030C8B420DD3FF22090212BA030C8B4202D31212090268
:401D000065D0030B8B4219D300E0090AC30B8B4201D3CB03C01A5241830B8B4201D38B03C01A5241430B8B4201D34B03C01A5241030B8B4201D30B03C01A5241C30A8B4272
:401D400001D3CB02C01A5241830A8B4201D38B02C01A5241430A8B4201D34B02C01A5241030A8B4201D30B02C01A5241CDD2C3098B4201D3CB01C01A524183098B4201D3EB
:401D80008B01C01A524143098B4201D34B01C01A524103098B4201D30B01C01A5241C3088B4201D3CB00C01A524183088B4201D38B00C01A524143088B4201D34B00C01A85
:401DC0005241411A00D20146524110467047FFE701B5002000F0F0F802BDC0460029F7D076E7704703460B437FD4002243088B4274D303098B425FD3030A8B4244D3030B6A
:401E00008B4228D3030C8B420DD3FF22090212BA030C8B4202D31212090265D0030B8B4219D300E0090AC30B8B4201D3CB03C01A5241830B8B4201D38B03C01A5241430B35
:401E40008B4201D34B03C01A5241030B8B4201D30B03C01A5241C30A8B4201D3CB02C01A5241830A8B4201D38B02C01A5241430A8B4201D34B02C01A5241030A8B4201D3B6
:401E80000B02C01A5241CDD2C3098B4201D3CB01C01A524183098B4201D38B01C01A524143098B4201D34B01C01A524103098B4201D30B01C01A5241C3088B4201D3CB003A
:401EC000C01A524183088B4201D38B00C01A524143088B4201D34B00C01A5241411A00D201465241104670475DE0CA0F00D04942031000D34042534000229C4603098B4250
:401F00002DD3030A8B4212D3FC22890112BA030A8B420CD3890192118B4208D3890192118B4204D389013AD0921100E08909C3098B4201D3CB01C01A524183098B4201D393
:401F40008B01C01A524143098B4201D34B01C01A524103098B4201D30B01C01A5241C3088B4201D3CB00C01A524183088B4201D38B00C01A5241D9D243088B4201D34B00F2
:401F8000C01A5241411A00D20146634652415B10104601D34042002B00D54942704763465B1000D3404201B5002000F005F802BD0029F8D016E770477047C0469E2110B5DA
:401FC000C905041C01F0F4F9002803D1201C00F0A7FA10BD9E21201CC90500F01BF900F09FFA80231B069C466044F2E7F0B557464E4645464300E0B446028846760A1F0E0B
:40200000C40F002F47D0FF2F25D0002380259A469946F600ED042E437F3F434642465D02D20F5B006D0A1B0E904640D0FF2B39D080220020ED00D20415437F3BFB18424630
:402040005746591C62408C4607430F2F5CD86F49BF00C9598F46002E45D108239A46063B9946DAE7424602282DD0032800D1C3E0012800D0A2E0002500260240D4B276022C
:40208000ED05760A2E43E407264330001CBC90469946A246F0BD002E1AD104239A46033B9946BAE72A00511E8A41901CC6E70120002DC3D0280001F085F9431F76309D409F
:4020C00043420020BAE70124FF2514400026D6E7300001F077F9431F9E400023763047429A46994699E70C239A46093B994694E780260024F603FF25C1E735004846B2E720
:40210000350022004846AEE72904090C0800370C3604360C2C0C7943704367437443060C64183619B14203D980214902884647440004000C310409188D01681E8541890E4C
:402140002943350CED19AD010D43290104D5012369081D4063460D4319007F31002925DD680704D00F202840042800D00435280103D5274980330D401900FE29A3DC012468
:40218000AD016E0A1440CDB279E78020C003064207D0054205D128434602760A4446FF256DE706437602760AFF2568E70124611A1B2905DD14400025002660E76346CBE737
:4021C0002E002023CE40591A8D406B1E9D412E43730704D00F233340042B00D00436730104D5012401251440002648E70124B601760A1440002542E780260124F6032E43A8
:402200007602760A1440FF2539E7C046A04F0100FFFFFFF7F8B54A024E0043024400240EC50F9B09360EC90F9209FF2E00D183E001204140A01BA9425CD0002800DC95E0A5
:40224000002E1CD1002A00D081E05A0704D00F221A40042A00D004335A013BD50134FF2C00D191E001209B015B0AE4B205405B02E4055B0AED0723432B431800F8BDFF2C7E
:40228000E3D08021C9040A431B2800DD90E016002021C640081A8240511E8A4132439B1A5A0115D59B019E09300001F08BF80538864084426CDC041B330020200134E34054
:4022C000041BA640721E964100243343BDE70D005A07BCD1DF0801231D40FF2C33D1002F00D190E08022D20313003B435B025B0AFF24BCE700284FDD002E2ED0FF2CA4D083
:402300008025ED042A431B2800DD97E016002025C640281A8240501E824132439B185A01D5D50134FF2C6DD001227B481A405B08034013430D0088E7002A00D07AE777E732
:40234000031EC5D100257B025B0AE4B28FE701380028A4D0FF2C97D177E7002A00D174E701380028DAD0FF2CCDD16EE7002821D1601CC0B2012858DD80279E1AFF0437400F
:402380002FD0D61A0D008FE701231D4000236EE7624B241A334058E7002851D1601CC6B2012E33DDFF282DD09B185B0804004CE7012274E7002C1AD0FF2E1FD08024E404EB
:4023C000404223431B2800DD96E01D002024C540201A8340581E83412B43D31A34000D005EE7002E00D05FE700250024ABE7002B44D0C0430028F0D0FF2EE3D11300FF2481
:402400000D0022E70D00FF24002330E7002C5DD1002B7DD0002A00D117E79B185A0100D456E73E4A040013400FE7002C1ED1002B2FD1002A65D013000D0006E701226DE734
:40244000002C1FD1002B59D0C04300280BD0FF2E4FD01B285EDC1D002024C540201A8340581E83412B439B18340058E7002B1CD1002A49D013000D00FF24E6E6130034003B
:402480000D00E2E6FF2E34D08024E40440422343DFE7002A00D1D8E68027981AFF04074000D14DE7D31A0D00CFE6FF24002A00D1CBE68020DB08C003034204D0D208024280
:4024C00001D113000D00DB00FF24BEE6002B10D0FF24002A00D1B8E68020DB08C003034203D0D208024200D11300DB000D00FF24ABE61300FF24A8E601236EE71300340001
:40250000A3E6002700251EE780270025FF03E9E613009AE60123A6E7FFFFFF7DFFFFFFFB4302590A4300C20F1B0E00207E2B0EDD9D2B0DDC802000040143952B0BDC9620DF
:40254000C31AD9400B005842002A00D118007047034BD018FBE7963B99400B00F3E7C046FFFFFF7F70B5002830D0C317C5185D40C40F280000F026FF9E231B1A962B0DDC7C
:402580009622D21A95406A02520AD8B25202C005520AE40702432243100070BD992B19DC9922D21A9540124A2A40690704D00F210D40042D00D00432510103D50C4B1A403B
:4025C0009F231B1A9201520AD8B2DFE7002400200022DBE705222E00121AB921D6402A00C91A8A40551EAA4135001543DBE7C046FFFFFFFBF0B55F4656464D464446F0B4E3
:402600000D0399464E002B0B87B00700924680469B46760DCC0F002E69D06D4B9E4235D05B468022DD001204430F13432B439B46C3009846674B00279C460023664401931E
:402640004A4615035000D20F53462D0B400D914600D176E05E4A90426CD080225B0F120413435C4AED0094461D4353460022DB00604449463618701C6140029017430F2FFC
:4026800000D9AFE05448BF00C759BF465B461F4300D088E000239B469846023308270193CEE74946022A6AD0032A00D109E2012A00D0BBE111400022002300259046CCB2E4
:4026C00000212D030A0D12052D0B1543434A1B0515401D436D00E4076D0825434046290007B03CBC90469946A246AB46F0BD034352D05B46002B00D18AE1584600F062FE3D
:4027000003000B3B1C2B00DD7BE11D22D31A3A0001005D46DA4008398D4013008F402B439B46B8462E4B00279C46002360444642019385E752462A432CD100250023022230
:4027400097E752462A4321D0002D00D154E1280000F038FE03000B3B1C2B00DD46E11D21CB1A51460200D9405346083A954093400D431B4A944660444042002279E701241C
:4027800000220C40124B0025904699E70025002301226EE703226CE700239B4698460133042701934CE703230C27019348E700238025984600242D03054B81E75D46434699
:4027C000019A6FE75D4643462100019A6AE7C046FF07000001FCFFFFE04F0100FFFF0F80F30300004246120C91461A0C9446424617044A461B041B0C5A43604690464A4656
:4028000042431000039262461C003F0C7A437C4342440192220C9246019A5244904506D98246802040028046C24450460390100C049048462404240C1204121905922A0C9C
:402840002D042D0C68432C00824648467C4350438146200C8046574357444744BA4503D9802040028046C144380C3F04B84648442404240C01900498A0444044049058463E
:40288000000C814658460404200C8246070048465F434C464343604660436446834650464443380C8446E4186444A34203D980235B029C46E34448463F04230C3F0C240494
:4028C000E419574668436F4384464D46504655434243380C814662444A445B44944503D9802040028446654403983F04834604983F0C8446E344C345804140428246100443
:4029000084460198674484466744A344BC46A345A4419946D44464428742BF41D4458041E144A04699459B417F424042C8440743120CBA18A045A4415F423B00644223431E
:40294000D71843467D19DB0D6D021D435B465A02059B1A43531E9A415B46DB0D1A4343465B021343EA0107D501225C0813402343EA07029E13436D08574AB218002A4BDD0A
:40298000580709D00F201840042805D0181D98429B415B42ED180300E80104D54F4A15408022D200B2184E48824200DDE7E60124DB08680718436D02530580462D0B5B0DD6
:4029C0000C407DE6802259461203114208D0154206D115432D0398462D0B4C46414B6FE65D4615432D032D0B3E4B69E603005546283B9D400023BCE6504600F0E3FC2030D5
:402A0000A8E60300283B9F400023BB46984689E600F0D8FC203073E60124A61A382E07DD00220C4000230025904649E6029EA3E71F2E20DC20222C001800921BF040944051
:402A400093400443581E83411C43F540630709D00F232340042B05D023001C1D9C4292415242AD182B021FD5012400220C4001230025904624E61F202C004042821AD440B2
:402A8000202E1CD04022961BB5402B43581E83410720234318400025002809D00F2200251A401C00042AD8D1230068076D022D0B0124DB08034398460C40002300E600259F
:402AC000E3E780220124120315432D0398462D0B0C40044BF4E5C046FF030000FFFFFFFEFE070000FF070000F0B557464E464546E0B40E001100F20F9246C500420F1803F2
:402B000037037400400A4E0F7F0A3043CF4E17435A00640D520DDB0FC900B24200D1E5E001267340A61AB446534500D1AFE0002E00DC0DE1002A3AD103000B4300D0E4E0C8
:402B40006B0709D00F232B40042B05D02B1DAB42AD416D427F191D003B0200D488E0BB4B01349C4200D110E13A00B94B51461A4001235007ED08520264050543120B640D5C
:402B80000B400021280012030D0D120B64052D0515436208AF4CDB072C401443640064081C4321001CBC90469946A246F0BDA74B9C42C5D080231B0418436346382B00DD5B
:402BC000FDE01F2B00DD30E1624620239B1A02009A40664690460A009940F24046464B1E99413243114363460200DA40691A8D429B410D00BA1A5B42D71A3B0235D57A02F0
:402C0000530A98464346002B00D1C4E0404600F0D9FB0300083B1F2B00DDC5E020222900D21A4746D1409F400A009D403A439C4200DDC0E01C1B631C1F2B00DDE4E020215F
:402C400014002800C91AD8408C408D400443DA40681E854117002543002471E7424663461A4300D14CE2674645466B0700D069E7012351467807ED08FA080B400543734905
:402C80008C4238D012036405120B640D79E7002E00DC9AE0002A47D06C4A944200D14FE78022120410436246382A00DC08E10143481E81410022C9B24919D219A942BF415F
:402CC0000D007F42BF183A0200D442E15F4A0134944200D14EE101205D4A69083A4028400843D507054357089A4629E706000E4300D017E714E72900114300D1F9E1802186
:402D000009030A431203120B3BE701235B429846C4446346002B72D1691A8D429B413F1A5B42FF1A0D0068E702000A4300D107E7012252429046C4446246002A00D0E6E084
:402D40006918A942B6413F187642F7190D00BAE7002E00D080E0621C5205520D012A00DCF9E06A1A91464D45B6413A1A7642921B9046120200D499E04D1BA9428941C71BDE
:402D800049427A1A90469A463CE752460123002513400022F5E6280000F014FB20300300083B1F2B00DC39E72A002838824000259C4200DC3EE7264FE41A1740C0E60143E3
:402DC000481E81410022C9B210E7002E00D0F1E0621C94465205520D012A00DCA0E01B4A944500D1C5E06918A94292413F185242D2194908D5070D4357086446A0E6134B80
:402E00009C4200D0D9E69BE611001F3CE1400C00202B00D180E04021CB1A9A4015436A1E95410027254300241FE763460200203BDA406346202B71D0402366469B1B98400E
:402E40000143481E814111430022CFE6FF070000FFFF7FFFFFFF0F80002C48D0CA4CA24200D1A2E07442A1468024240427434C46382C00DDDBE01F2C00DD44E14E46202495
:402E8000A41B3E00A640A246B0464C462E00E640B4464646644626435446A5406C1EA54134002C434D46EF400D1B28E04A4643464D461A4300D0A5E6002300240025DEE6BA
:402EC0001F2A5ADC66462022921B060096409146B04662460E00D640424616434A4691404A1E9141020060463143C240E4E63C002C435AD0F443A146002C52D14D1BA9424A
:402F00008941C71B49427F1A14009A4675E69E4A944200D0C7E613E600227FE700208FE7002C00D0C8E03B002B4300D10FE103000B4300D104E66918A9429B413F185B42CA
:402F4000DF193B0200D41AE1904B0D001F406446F6E59A4689E63A002A43002C5CD1002A75D102000A4300D1CAE007000D009A46E6E564460022002581E662460600203AD9
:402F8000D6406246B046202A00D1B7E040226646921B904001434246481E8141114300228AE6794CA24200D061E707000D0014009A46C5E5002C41D13C002C4378D0F4436B
:402FC000A146002C20D0704CA24271D04C46382C00DDB2E01F2C00DDBCE02026341BA2463C005646B4404E46A0462C00F440A446444666463443A4465446A54064466E1E6B
:40300000B54125434C46E7406D188D4289413F184942CF19140056E6002A2FD102000A4300D184E007000D009A46574C88E53D436F1EBD41ECB200270D1B60E7524CA242CE
:4030400036D0744280263604A1463743BEE702000A4300D174E56A1A90464545B6413A1A7642921B9446120200D4F7E54D1BA9428941C71B49427F1A9A4661E502000A436B
:403080003AD0ED087C072C438025FA082D032A4208D0C7082F4205D145072C003A009A46C9080C43670FD200E5001743364C47E507000D00140043E53A002A4343D00200FB
:4030C0000A4319D0ED087C072C438025FA082D032A4207D0C6082E4204D147073C003200C9080C43D700620FE50017439A46264C26E50022002544E5234C21E5002049E791
:4031000000230025BBE54C463E00203CE6404C46B446202C31D040244E46A61BB7403D436C1EA54164462C4300270D1BE7E6802200231203144C0025A1E53D436F1EBD41B7
:403140000027EDB260E707000D000F4CF8E407000D00F5E44E463C00203EF440A0464C46202C0ED040244E46A41BA7403D436F1EBD4144460027254346E70027CFE70D002D
:4031800073E50027F2E7C046FF070000FFFF7FFF4200120E511C4302C9B270B55D0AC40F012915DDE02189008C466D071B0B6244002128000D0D2D052B431C4D52052B405B
:4031C000520813435B00E4075B082343190070BD002A15D1002D1FD0280000F0F3F80A281DDC0B232A001B1ADA4013000200153295400F4A1B03121A52051B0B520DD7E75B
:40320000002D06D080221B0B120313436D07094ACEE7084A0023CBE700220023C8E703000B3B9D402B000025E3E7C046FFFF0F8089030000FF0700004B0070B55E0D0C0372
:40324000751C640A420F6D052243C90FC4006D0D012D2ADD3B4BF318FE2B1ADC002B42DD8001451EA841D2001043620F0243500704D00F201040042800D004328020C004FA
:40328000104021D00133FF2B03D09201520ADBB201E0FF2300225202520ADB0513435B00C9075B080B43180070BD002E07D01443EFD08020D20080040243FF23D7E7224359
:4032C0000023002A03D00522D208FF2B03D05202520ADBB2DFE7002A32D08020C00302435202520AD7E71800173014DB8020000402431E20C01A1F280FDC2500124BF3185D
:403300009D406E1EB5419A402B0013432200C2401A430023ABE70023D5E702256D42EB1A1500DD40202809D0084BF3189A401443621E9441220000232A4398E70022F6E77C
:403340000022A8E780FCFFFF82FCFFFFA2FCFFFF8446081C6146FFE71FB500F0BDF8002801D40021C8421FBD10B500F049F84042013010BD10B500F0AFF8002801DB00201C
:4033800010BD012010BDC04610B500F0A5F8002801DD002010BD012010BDC04610B500F057F8002801DC002010BD012010BDC04610B500F04DF8002801DA002010BD01201E
:4033C00010BDC0461C2101231B04984201D3000C10391B0A984201D3000A08391B09984201D30009043902A2105C40187047C046040302020101010100000000000000000D
:40340000430270B542004C005D0AC30F4802120E460A240EC90FFF2A0FD0FF2C11D00120A24200D070BDB542FCD18B420DD0002AF8D12800431E9841F4E70120002DF1D1D3
:40344000EBE70120002EEDD1E9E70020EAE7C0464302F0B542005D0AC30F4802440A4800120E000EC90FFF2A1FD0FF2822D0002A09D16E426E4100280FD1002C0DD1002095
:40348000002D09D005E0002801D1002C01D08B4213D0584201231843F0BD002EF7D048424141012049420843F6E7002DDDD002204042F1E7002CDAD0F9E78242E9DC04DB6B
:4034C000A542E6D80020A542E6D25842434101205B421843E0E7C0464302F0B542004C005E0AC30F4802120E450A240EC90FFF2A17D0FF2C19D0002A0BD170427041002C36
:4035000017D0002807D048424141012049420843F0BD002C13D08B4214D0584201231843F6E70220002EF3D1E3E70220002DEFD1E1E7002DE5D10020002EE9D0EDE7002D9F
:40354000E9D1EAE7A242E8DC04DBAE42E5D80020AE42DDD25842434101205B421843D7E7014B18687047C046881000200E4B70B500251E000D4CE41AA410A54204D0AB0065
:40358000F35898470135F8E711F04CFD084B00251E00084CE41AA410A54204D0AB00F35898470135F8E770BD3050010030500100305001003850010030B50024A24208D043
:4035C000035D651C0C5DA34201D0181B02E02C00F4E7002030BD002310B59A4203D0CC5CC4540133F9E710BD03008218934202D019700133FAE77047134A1088810703D001
:403600008107890F401A001D11791030484381B25088820703D08207920F801A001D800040180A494030098980B2CA0701D0503080B2890706D504495422091F0978514338
:40364000081880B270470000D60C0020E010002010B501F00FFF10BD10B500F05BFA10BD10B50749044609780220002907D1204601F050FF002802D120460AF0D1F910BD2C
:40368000740E002070B504460120002C12D02368002B0FD0616800290CD0074D06222889208118462968FFF796FF6968606809780170002070BD0000E0100020FFB585B04E
:4036C000002768460E9D07734F481C460078002802D0082009B0F0BD10990F9801900095029105A807C800F007F90028F2D16946264603AB84460873002C19D0002115E03E
:403700008A00B75A082F09D990198078002805D0083FB7521878401C187005E0002914D00027B75290198770491CC9B2A942E7D360460028CED10F98002809D0109901F07D
:4037400049FA002804D00120C4E701208446EFE701F090FE2D480021416081600599016021888180022D07D3A1798171A17AC171A1890181218A418100211EE0481C19E046
:4037800082008B00A75AE65ABE46BE4211D26F463E80B4461E190296B678BE7001967646E6521719029EBB78B3706646A652019EBE70401CA842E3D3491CA942DED31348C2
:4037C00022460C3000906846037B0799069800F01BF90028B8D168460B4C007B60700B480C3001F077FE0028AED1084907480C3107F074F90028A7D107F08EF90028A3D18F
:403800000121217066E70000D00C0020D4100020F8B5054636480F460078002802D002242046F8BD002F60D000243249002D16D02A89D0070DD02868002808D003881B3B21
:40384000E12B04D24088FB2801D81B2801D2012409E0900707D56868002804D1F7E70020088108604860002CDAD122482E8906811F481B21801D01804180042101711C49AA
:403880000020891C0870F00705D019480622801D2968FFF7A0FE1749B00703D56A68144812788270124D0E46AD1D281F0D60486001F056FE284601F045FE30890DF0AEFEF9
:4038C00030890DF09FF828880DF0A2F830890EF00FF803461033FFF78FFE1F21C018890140183880A91F88809AE7012498E70000D00C0020E0100020FFB58446384F1C464D
:403900000020BB883F78054602460646002F11D100290ED0029999420BD36146002908D0002C06D00A99002906D02E4B0B99994202D2012004B0F0BD002144E0AB001F1960
:40394000BF78002F3BD0E35A002B38D07B43591889B22B0000F04AF8050410161C253100A7782388BC46FF27233BEB37BB4222D26346032B1FD322E0A388002B1FD0302B30
:4039800019D31CE02389002B19D0282B13D316E0A289002A13D01346134F233BBB420AD20DE0268A002A0AD033460F4F233BBB4201D2964203D901200EE0002001E0002874
:4039C0000AD16D1CEDB2099B9D42B7D31C2463435B1802998B42ACD89642AAD8AAE70000D00C002079020000BAFF000030B47446641E2578641CAB4200D21D46635D5B00DD
:403A0000E31830BC18470000FFB583B0002469460C801F4606468C80002806D00598002803D004983043800701D0012466E0002FFBD03449049809888842F6D3FEF7DEF8D3
:403A4000FEF7CCF800F012FC002855D100F07AFD002851D12C49084601F0F0F805042D0C4AD12A480499066081800021C18007810C98007AC00704D0684601F014FD0400CA
:403A800007D10C98007A800703D501A801F014FD0446BF1DFEB2002C20D13146059800F05DF804001AD10DF031FF040016D16A461088928808368518144AF1B29088D28803
:403AC000AEB29319984207D3401B801A80B201F0A5FB050007D000E0FF25012400F05EFA002D04D008E0F8B200F01CF9F6E700F081FA07490120087000F0CAFB204607B066
:403B0000F0BD0000D40C0020493C0000EC100020DC0C002010B503480078012801D101F01FFA10BDDC0C002070B5084B0446DA889E8800205518B54206D81D68AA18226058
:403B4000DA885118D98070BD032070BDEC1000200148008970470000EC100020F0B587B007460D4600208900009006916846FFF7DBFF844600285DD1304800990160002166
:403B800017E02E4B88001A680629115406D22C4C0419667882185670628805E0C419203CA67A8218567022891B68C018491C4280C9B2A942E5D300242DE0601CC2B20590C3
:403BC00025E01E4FA30039689600581840887118039604904E88B04217D938466F46FE80B6464F786E4677710297049F4F800168039F5E18767879184E7001687646591864
:403C00004E800068029F18184770521CD2B2AA42D7D30598C4B2AC42CFD36046002809D168460699FFF780FF8446002802D1054900980860604607B0F0BD0000E00C002008
:403C400058500100E40C00207047000010B5002809D005494A68002A05D0011F08788000105801F089FA10BDE00C002010B50446FFF76EFFC0B2801DA0420CD30748406801
:403C8000002808D0A100405801F0E8F9002801D00470001D10BD002010BD0000E00C0020F8B516460D460446FFF752FFC0B2801DA04203D20020C0430090F8BDB2B2E9B28F
:403CC000684601F0F1F90099481C03D0024AA000526811500098F8BDE00C0020F8B50746FFF736FF801DC6B20A49002005460C680DE06178002907D06188B94202D3207888
:403D0000FFF7B4FF002804D1241D6D1CEDB2B542EFD3F8BDE00C002010B5002801D0FFF795FF10BD70B506460948002504680BE06178002905D062882078121D0023FFF706
:403D4000AFFF241D6D1CEDB2B542F1D370BD0000E00C0020FFB581B00A9F16000C4620D000F0F2F8054604281BD0002F0CD03846FFF7B4FF20492A0151184860002810D037
:403D80003A460499FFF727FC1B4928010E504618778101980570200406D47D20C000444304E0FF2005B0F0BD6404640C00F0BAF80746042807D000F04FFAA0420BD800F07F
:403DC0004BFA201A03E0204600F0AAFA0020F06035720020E6E700F03FFA009000F0B6FA00980121001B009000F0ECF802493A0151180098C860E6E7F8100020F8B5060179
:403E000016483418217A042903D0E068002802D017E00020F8BD00F01FFA054600F096FA00F0A0F804280CD001010C480F18F8680021451900F0C6F80020F860284600F0EB
:403E40006FFA6068054D002801D0FFF765FF042020720020A8516081E060DAE7F8100020FEB500266A46304601232549050169180D7A042D02D0C96800291BD00021115426
:403E8000401CC0B20428F0D300246846005D002830D01B48210108184189476805680291002101604160042241810272C160002E02D015E01354E3E700F054F804280ED0C4
:403EC00001010F4808180190C6680021304600F079F801980021C160304600F021FA0126002D07D038460299A847002F02D03846FFF712FF641CE4B2042CC6D3FEBD0000E3
:403F0000F81000200EB5002005216A460090118150810348694600680EF05DFB0EBD0000E80C0020074A0020010189180B7A042B02D0C968002903D0401CC0B20428F3D38F
:403F400070470000F81000200549002002015218127A042A03D0401CC0B20428F6D37047F810002030B50A4B04200A4C00210A011219157A042D06D0D268002A03D09A42A4
:403F800001D808461346491CC9B20429EFD330BDFFFF0000F81000207047000030B50020074C05460423020111190B72A5504D60401C4D81C0B2CD600428F4D330BD000029
:403FC000F810002030B5094C00231A011219157A042D04D0D568002906D02D18D5605B1CDBB2042BF1D330BD2D1AF7E7F8100020002070471CB5002469460C7014200190BF
:404000002346054A05480EF0EBFA04480068401C00D1FF2420461CBD71400000E80C00203EB5124A0146FF2000230124126800290DD0012914D0042908D104206946009399
:4040400008814B8110460EF0C6FA80B23EBD6846009304814381694610460EF0B7FAF4E768460093048143816946EBE7E80C002070B545890468416800890300FFF7B6FC36
:4040800008280509091E22282628002005F0E2FB1EE0022908D0C8B22A4621460CF0FEFB2046FFF739FE13E002202A4621460CF0F5FB2946204600F00DF809E000200DF08F
:4040C00089FF05E02046FFF7CBFE01E0FDF7B7FD002070BD014B0022DB681847EC0C002070B5448905680089022803D0032809D0FF2070BD2246094C0023A468294601207F
:40410000A04708E0FFF7A4FA241DA2B200232946022006F096FB002070BD0000EC0C002070470000024800214160018041807047EC0C002070B50C46002186B01646039155
:40414000012802D0022859D116E003A9012006F0CDFB01281BD1039D324621462846FFF73AFA0095287801900220694608814E816846FFF7B5FF41E0214D002B686809D099
:40418000049004A9022006F0B1FB01281DD0022006B070BD002812D0298840182146FFF71AFA28880024801980B228806988091D884206D12C801348FFF792FF03E00320C8
:4041C000E6E788421AD96C6018E004986860E278A378110219430B4A698000231060E3565360032313815181A1788170E178C1706178417021780170042028800020C7E71E
:40420000EC0C0020381100203EB515460C46022803D004280CD000203EBD0091019002206946088107484A8100680EF0D4F907E00CF034FB044B0022DB68294620469847FA
:4042400001203EBDE80C0020EC0C0020014AD16090607047EC0C0020034801688068081A0A214843000970474411002010B5FDF7B9FC482204490548FFF7ADF90349012097
:40428000C870002010BD0000745001004815002010B5FDF79FFC10BD70B5134C2368002B08D0207B1149C20705D04008400020738868A08070BD88680B4AA18880B29268DF
:4042C000814203D90A4D691A091802E0814202D2411A5118A160A080A0689842EAD30EF097F900F013F870BD44110020C0102E40FFFF000010B508461946FFF7A7FF10BDE5
:40430000704710B5FFF780FF10BD000003480021016041608160C1607047000044110020024610B5FF20002A0CD0FFF7EFFF064C0321207B0843207310010A21FDF74EFDA3
:404340002060002010BD00004411002000B504480A21806848430209FFF7D8FF104600BD441100200248007B8007C00F704700004411002010B54B490868002802DA4A4BB3
:4043800001221A70022290430860484800694549C00B4031096A0246C907C90F0A4259D0012000F09FFA3F480E216C30FDF77AFB3E4820218430FDF775FB3C4814219C308D
:4043C000FDF770FB3948FF21C131A430FDF76AFB3648FF212F31B030FDF764FB33483449BC30FDF75FFB31483249AC30FDF75AFB30492E48491CB430FDF754FB2B482E49BD
:40440000B830FDF74FFB29482C49CC30FDF74AFB26482B490830FDF745FB24482949A830FDF740FB214828498830FDF73BFB1F4826498C30FDF736FB1C481921C90290306C
:40444000FDF730FBFDF730FBFDF7E0FBC0B2022812D01FE000290BD0002101420AD0114801216030FDF71EFB0120FDF7AFFB97E70121F2E7FF2010BD15491648FDF712FB77
:4044800014481549001DFDF70DFB124800210830FDF708FB54200449C043891C0870002010BD000000F02E40FC0C002000002E40320300002F3F0000310200001052000085
:4044C000EC160000FA12000031D000003AE300009956000080012E40F80F000070B50646581C80B245086D00002408E0304600F0C1F81055000A1119A41C4870A4B2AC425A
:40450000F4D3D80705D0D0182038D15CC47FD454C17770BD30B50A4C002100195B1E07E0541864782502545C2C430480891C89B29942F5DB994201D1515C018030BD000089
:4045400000102E4010B5FF2000F0CCF90F49FF2048700E481021801D41800121417001700A490020C91C4870FFF704FF04000AD100F010F907210648FDF792FA0448072181
:404580001830FDF78DFA204610BD0000FC0C0020CC112E4070B5002405465B1E0AE0284600F068F8010A161971702D1D1055A41CADB2A4B29C42F2DB9C4203D1284600F0E3
:4045C00059F8105570BD000070B500210A4D5B1E0AE0541864782602545C344346193480001D891C80B289B29942F2DB994202D1515C4019018070BD00102E40F0B5059934
:40460000091FCFB200217E1E0BE0541864782502545C2C43164D45192C80001D891C80B289B2B142F1DBFC0712D01C78515C24020F4A0C4381180C809C785D78001D2102FE
:4046400080B2294384182180001D80B2D9780CE059781A7809021143054A84182180001DD9789B78090280B2194380180180F0BD00102E40014940180088704700102E40C8
:4046800010B50B490020487000F084F8002000F04FF9002000F03CF907210648FDF700FA044807211830FDF7FBF9002010BD0000FF0C0020CC112E4010B50B46062812D06F
:4046C00006DC01280CD0032801D1FFF7D9FF10BD0A28FCD00B28FAD105480078107010BDFFF730FF10BD1146184600F03DF910BD020D0020F8B5244DAC6A0127A007234EF0
:40470000002816DA307806280ED1286A384328621F480069F903084381B21D481030FDF7C1F9042000F0DEF8174802212830FDF7B7F9E00718D000F027FF01280FD1002002
:4047400000F074FF062000F0CDF81049FF20C91E48707078002802D1686B384368630A4801212830FDF79CF9E0050BD53078042802D1052000F0B6F80348FF21013128306F
:40478000FDF78EF9F8BD000040F02E40FF0C002000002E4010B503212348FDF783F90120FDF710FA20483038406A204C80076178800F890001431C480C38FDF773F960782D
:4047C000002808D0401E022181401820FDF7F0FBC000083800E0B82081B21548FDF762F91348032109021438FDF75CF910481149B830FDF757F9612189010F48FDF752F92A
:404800000D480321001FFDF74DF90C490C48FDF749F90B480B496038FDF744F9084801218838FDF73FF910BD70F02E40020D0020D8102E4090890000041E2E40FF0F000022
:4048400058122E40209000000849087806280BD148780749002803D1486B400840004863C86A01221043C86270470000FF0C002040F02E400148007870470000FF0C0020EE
:4048800002484078022800D001207047FC0C002000B50300FFF7AAF8080D050D0B070507090D012000BD032000BD042000BD022000BDFF2000BD0000074A9168D26889B238
:4048C000064B92B2994204D105498A4201D1012100E000210170704780002E4033D000003FE3000010B50446FDF778F9072C01D9FF2C01D102480470FDF76CF910BD0000C7
:40490000FF0C00200149487070470000FC0C002010B5064A012805D01921C9021046FDF7C1F810BD1D21C902F8E7000090002E4010B50A4A141D012808D009491046FDF7B6
:40494000B1F808492046FDF7ADF810BD04491046891CFDF7A7F80349491DF3E788002E4031D000003AE3000070B50C460546FDF74DF9C0B202280E49287804D0FF2810D08C
:404980004C280CD810E0FF2809D10A4AD0680004800F032801D0087807E09069000A553803E00878207070BD4F382070087070BDFE0C002000002E40F0B50122002834D034
:4049C000002932D00424420600D00524792342065B06D21800D0641C034600221EE00C2516466E43124D00277519AF72104F002ABB51696007D0661EB24209D10D4E861947
:404A00007606760E05E05E06760E8027BE1B00E080269B198919521C2E81D2B2A242DED303480549006B002288611046F0BD0000D013002079020000080D002018B5002065
:404A4000694608700A48006900280ED0132149014018047E684604704F21C900054800F059F8A04201D0012018BD002018BD0000080D002054110020074900200C22424392
:404A80005218927A012A05D0401CC0B20628F5D30020704701207047D0130020F8B50E000446154609D0194F19497868A04202D94018A04201D38D4201D90120F8BD314666
:404AC0002046FEF779FD00281ED02A4631462046FEF781FDE8B200210C224A43D21913895568EE18A6420BD90126641B1B1B9672834209DA1469C01A044AC0B22032967682
:404B0000491CC9B20629E7D30020F8BDD013002079020000034610B50020024604E09C5C2018521CC0B292B28A42F8D310BD000070B500F05FF8084C064A216907480D460B
:404B4000FEF749FD05492846FFF736FFFFF776FF207070BD79020000080D002054110020002070470020054A002902D0012902D002E0906000E0D06000207047080D00208B
:404B800070B5084C154608460549E26889182A46FEF721FDE0684019E06028B270BD000054110020080D00203EB50A226946FFF7E7FF044606480A2200686946FEF7FCFC03
:404BC000002802D00020C0433EBD20463EBD00000C0D0020002802D0044A914201D2FF20704703494A6108610020704779020000080D0020024800218160C1607047000034
:404C0000080D002070B5074C15460548A26880182A46FFF743FFA0684019A06028B270BD54110020080D002010B503490A220968FFF7E8FF10BD00000C0D002010B50F4A04
:404C4000002313600E4A13600E4B18600E4801600E49012008600E490860000290600E490C4808600D4914300860FF381538506000F0BCF800F0CAF9002010BD3C0D0020C4
:404C8000240D0020500D0020540D0020400D0020300D002018150020340D0020480D0020014610B50020002910D0094B1A689C685118A14209D25868196080188A0704D04C
:404CC0008A07920F891A091D196010BD002010BD240D0020F8B50024164E671E321F3D463168136806E01422624310328A58521C1BD0641C9C42F6D36A1C14D02C4614221C
:404D0000544322460C3288500C214843FFF7C8FF3168002808510AD031680020103408517068401C70602846F8BD2546E4E73846F8BD0000340D0020F3B50026F64381B076
:404D400000281BDB1E490968884217D80299002914D01B4F142204463F1D54432546396810354859401C09D0FCF738FF38682F1F4159C359994203DBFCF72CFF3046FEBD02
:404D8000214608310091465801590C20704308180C220299FEF71FFC0948761C001D0068C159B14200D100260549009A091D865008684159491C4151FCF70CFF0020FEBDC8
:404DC000300D0020002803DB07490968884202D90020C043704704491422091D096850431030085870470000300D0020F0B500200D4A451E0346171F50600FE01426014691
:404E0000714314680E1DA3510C461668083433511668083435511468401C635039688842ECD30020F0BD0000340D0020F3B50026F64381B0002841DB2349096888423DD838
:404E4000029900293AD0204F142204463F1D54432546396810354859401C2FD0FCF7BEFE3868415900292BD0211D009146580C21005971430F46C1190C220298FEF7ABFBEF
:404E800011480021001D0068761C00590C34C0190160416081600C48001D00680159B14200D100260849009A091D865008684159491E4151FCF78EFE0020FEBD3046FEBD7A
:404EC000FCF788FEFAE70000300D0020FEB504460D4600201E49089E0860471E009001900290002C11D0486885420ED2002A0CD0002E0AD0642E08D808460C3001681C20EB
:404F000068430C18207A002801D03846FEBD0120226020721846FFF7DDFE6060401C13D06681A6810A4827610C3067610179A94200D205710021684601810A462846029B2E
:404F400000F040F82846FEBD00202072DDE700003C0D002038B50124009400F039F838BDFEB50027164EFF433D4600240EE01C20316860430818017A002906D04068FFF780
:404F800021FF002801D0254603E0641C3079A042EDDA681C12D01C2130684D434419FCF71DFE69466068FFF741FF0546FCF712FE002DD9D1216868468847D5E7FEBD000033
:404FC000480D002038B50024009400F001F838BD1FB500220C49541E0A60002811DB496888420ED808491C220C31096850430818406801A9FFF7A0FE401C02D0002004B045
:4050000010BD2046FBE700003C0D0020F0B50021114A4D1E174611710C3F0B46BD6016E008461C2460431668041D355114680646235014680836A3551468361DA353044686
:4050400016680A34335318301468491C255078688142E5D30020F0BD480D002038B500210091002811DB0F49097888420DDA0D4D04010C3529680859002807D0201D081888
:40508000694600F06FF9002801D0002038BDFCF7A5FD28680F34015D491E0155FCF79AFD009838BD580D0020F7B582B0002502986E1E06602E48D21C024017462D4A2C4641
:4050C00010460C380178106805E02301C358002B0FD0641CE4B28C42F7D3711C28D03401211D40180191039900F02AF900281FD101E02646F1E71F48016820460C300F52A8
:405100001C480399026820460E30115419480399026820460F3011540398784300F0A0F8144900280968085102D00024009011E001251AE00F48016801980818009900F0C5
:405140002CF9002801D0012502E00098C0190090641CE4B203988442ECD3002D05D10298066004480179491C0171284605B0F0BDFCFF0000640D0020F8B50D4600216A4605
:405180008C461180002839DB23490978884235DA214B04010C3319680A59002A2ED020460C300B5A801C0E5C184670438018954224D3854222D2002006E007465F43BF18C3
:4051C000AF4206D0401CC0B2B042F6D36046002814D0114E271DC8190C366A46294600F006F900280AD168460088012808D030682946C01900F0D1F8002803D00120F8BD35
:405200000020F8BDFCF7EAFC30680F34015D491C0155FCF7DFFCF3E7580D0020F8B50F46002400F031F8002817D10C4900220B460C334A600EE021011D680E466A501D6877
:405240000C36AA53B61C1D680F31AA551D68641C6A54E4B2BC42EED31A71F8BD580D002000280BD0C01C074A81085068890053884118994203D893685160181870470020E5
:4052800070470000580D0020F8B5064600200F4D009029700C0121466846FEF745FC00280CD129460C3100980860301B001F84B221466846FEF738FC002801D0FF20F8BD60
:4052C0006C800098A8600020F8BD0000580D0020F8B5002827DB19490978884223DA174C05010C342168485900281CD028460C30085A009028460E300E5C401C0E54206868
:405300002F1DC01900F064F800280CD12068002445590EE0094829460C300068C01900F03CF8002801D00120F8BD00982D18641CE4B2B442EED30020F8BD0000580D00208B
:4053400030B50D4604000BD0A800FFF789FF6060002805D000202570C0436080002030BD012030BD70B50D46040005D0002D03D00220205E002801DA012070BDFCF72EFC21
:405380000221615E60688900405828606088401E6080FCF71FFC002070BD70B50D46040007D0002D05D002212078615E401E814201DB012070BDFCF711FC6088401C00B209
:4053C0006080616880000D50FCF704FC002070BD10B5040009D0227800216068FEF704F90020C0436080002010BD012010BDF0B500231D46002802D00224045F0AE0012039
:40540000F0BD46689F00F6598E4201D1012503E05B1CDBB29C42F4DA15700020F0BD000001480078704700006C0D00207CB505460024FEF70DF9A8796946087000A80622B2
:4054400029460130FEF7C7F80021684604F0C8FC0C2806D0072806D01F2806D0122806D006E0022404E0042402E0272400E0012420467CBD10B500F067F9FFF7FBF9FFF737
:4054800007FA10BD70B504460025FEF7E1F8002C06D0A079012803D8214602F06BFC00E00125284670BD01460120002902D05020088000207047000001460120002905D0A4
:4054C000034854220078504308800020704700006E0D002010B502460D49FE204870032410460DF09BFB002810D10DF03FFB00280CD105F057FA002808D100F01BFB0028E3
:4055000004D104F013FF002800D10024204610BD6C0D002070B50025044600280ED0A07901280BD8FEF794F8A0790028204602D002F0AEFF03E002F083FF00E00125284684
:4055400070BD0000014610B50120002904D006220248FEF740F8002010BD0000780D002001460120002903D00878024908700020704700006E0D002010B5FFF77BF9012832
:4055800001D1FFF77DF910BD0148007A704700005016002038B504460120002C20D0617801291DD800290BD0FF25E535FEF750F80C4828180088C0B22070072803D00EE0E7
:4055C000FF25CD35F2E70020694608706846FFF773F969460878012801D108202070002038BD000000102E40014A0021926810476C0D002008B500226B461A7026280CD046
:40560000094A342852680BD0352805D1900703D50021352005F0A2FA08BD19462620F9E7D007F9D03420F5E76C0D0020014908727047000050160020F8B504460120002C85
:4056400026D06178012902D92278092A20D8002905D0FF25E5352078092803D004E0FF25CD35F8E708202070FDF7F2FF2078114F114E08280DD00020FFF75AF97078012855
:40568000207810D00D4969180880FE2070700020F8BD0120FFF74CF90720B8810549203188800120F2E7B8810248217820308180EBE70000C0112E406C0D002000102E404E
:4056C00070B50E46050001D0002400E00C4C002C11D0E28A500609D5D107C90F022002F06BFFE08A40218843E08204E0D107C90F012002F061FF3146284602F049FC70BDDC
:40570000B0150020F8B50546002004460D4E009013E022466946284600F0C2FF0098002801D00DF05DFAA878214602F08BFAA878214602F079FA641CE4B2308AA042E8D8CD
:40574000F8BD00007C16002038B51E4CFFF792F8042813D0052811D0062812D003282AD007280AD100206946087002460120FEF7A3FFFFF77FF80128FBD138BD00F077FB8F
:4057800038BD02F0B5FA00F072FB02F015FB8007800F0228F4D10C4841880029F0D05B21095D0029ECD101210170A07D0140022002F002FF38BD02F09FFA0120FFF792F8FA
:4057C00038BD0000B0150020920D0020F8B50646002402F05FFF0546304602F075FF03460A480021068A0DE001228A401046174628401F40002803D0002F01D1224394B235
:40580000491CC9B28E42EFD82046F8BD7C1600201CB50020694648706846FFF7BBFE01AA69460A20FEF748FF6946042008561CBD70B50D4601F01AFB04000BD02079002887
:4058400008D0FDF705FFE178A0782A4602F026FC002070BD022070BD0148007870470000881500204030C07E002800D00120704700B500F001F800BD902148430749084ADB
:4058800040186030417F491CC9B24177D289914201D300214177C8B270470000901500207C16002013B501F0E1FA04000BD001F07EFE002807D0214601AA0A310620FEF7DE
:4058C000FBFE00201CBD02201CBD000010B50C4601F0CCFA00280AD001F069FE002806D0224604490A20FEF7E7FE002010BD022010BD000071150020F3B581B007460146ED
:405900000026029802F0BEFE0446002F01D0002500E0154D002D21D0284601F0DDFA032C04D13946029802F009FF06463846029902F07AF9032C06D0002C10D00121384662
:4059400001F0D0FB03E03146384603F0FDF8284602F05EF80221284602F074F8FEBD3846029902F061F9FEBDB015002010B5044600F066FA002804D103F0B0FD002801D051
:405980000C2010BD2078611C02F08AFCFF2801D01F2010BD02F0D0FCFF280AD02178621C02F0D0F8044821780068026B601C904710BD072010BD0000B80D002010B503F062
:4059C0008DFD002801D00C2010BD02F04BFC03480068C06A8047002010BD0000B80D002070B50D46044610210DF03AF81021601806460DF035F8334610221946204603F0D8
:405A00009BFD102130460DF02BF802202870204604F0C2FB70BD0000F8B504464078217802028006870FE0781143A67809050002090D0643084601F019FA00210546F2B206
:405A4000002812D0002C10D0022F0ED0032F0CD0002A0AD00279092A07D0002A05D0134A5A23527E1B5C9A4207D82889002104F0C8FA20460DF0B4F8FF21002914D10C4876
:405A8000224600682946436930469847C0B2FF280AD128464030817EF2B2491C8176FF232146284600F0E3F8F8BD000048150020D40D00200020704710B5044603F00EFD7C
:405AC000002801D00C2010BD2078611C02F0E8FBFF2808D002F020FB044821780068426B601C904710BD1F2010BD0000B80D002010B500F06BF904F019FC002010BD10B5DF
:405B0000044600786178E2780843A17811430843217908436179084305D003F0D1FC002803D00C2010BD122010BD204602F0B0FC002010BD10B5FCF769F802F0CDFD0448C9
:405B400003F038FD02F0F2FA012000F003F810BD58150020F1B586B003A8009005A8019028489F22817A114081726846FDF78AFD002845D169460989C90705D0224806999E
:405B80000068C2686846904769460989890706D5002835D11D480068816A0698884700282ED11B4E0025757075737571F575357675767575B570F570B5713746F5730120C7
:405BC000D03738731F20F880FF2130467972A0300176457600F0BCFA00242046069901F091FC002803D1641C2406240EF5D0FD720749BD72B573C0310D704D704D600D7262
:405C000007B0F0BD48150020D40D0020B80D00209015002070B505460E46084602F03AFD0446304602F050FD0121A9400A46224001400A4301D0012070BD002070BD10B522
:405C40000446084602F040FD0121A140014201D0012010BD002010BD10B5FEF70BFE032804D102F049F80120FEF73CFE10BDFEB51C4616460F46054601F0CAFEA878FFF778
:405C8000F7FD02460190334639460094284600F00DF8002808D1A8780199FFF711FDFF2C02D138460CF09CFFFEBD0000FFB585B005460E980C46FF2810D02B49C0000968C3
:405CC0000A5840180179C0795278814201D9012601E09006860F6846038108E06078A1788006860FE0780002014368460181284601F068FC070007D021462846079A00F0A2
:405D000063FC384609B0F0BD304600F011FD04AE0346039002AA29460096204600F09DFB3C20405D002818D0284601F04BFC012813D0684600890096C0B20190A878231D94
:405D4000FF22079902F0D8F868460089039BC2B2A878079902F018FCD3E7684600890021C0B20091E9E70000D00D0020F8B5002600253046FFF72AFD07001DD09020114926
:405D8000704340186030447F12E0601CFCF726F8CCB23846E040C007C00F07D02146304601F03AFF21463046FFF7A6FD6D1CEDB20548018AA942E8D8761C3606360ED7D09C
:405DC000F8BD0000901500207C16002010B502F0ADF90020FFF7BEFE0CF098FF002010BDF8B5002400F0B2F80123012800D10124104F00203E4620360425082203E0002863
:405E000001D0002100E031460979002907D001290BD002290BD0114681402143CCB2401C0006000EEBD07C70F8BD1C43F7E72C43F5E700009015002010B5FFF7D1FF10BD21
:405E400010B5044604F0C4FB002802D1601C00F001F810BD1CB500240094062269460194FDF7AAFB002800D1122420461CBD10B5FBF71BFC0446FEF7FDFC012809D0FEF73A
:405E8000F9FC022805D0FBF783FB2046FBF711FCEEE72046FBF70DFC10BD10B50B4681791943817103D08078114602F03BFB10BD10B582798A43827102D1807802F046FB23
:405EC00010BD000030B50C4C0220A28A0B4B9978002901D0022906D11D785B78EB18282B01D9032002E0032900D101205105490DC0020143A18230BDC0112E40880D002076
:405F000000B500F029F8002807D0012805D0032801D0042801D0002000BD012000BD014600B50020C90701D000F010F800BD014600B50020C90701D000F008F800BD00000E
:405F40000148006870470000800D002001480088000A704720102E400448008B410501D5042070474007800F7047000000102E400148406870470000800D002038B5044677
:405F8000000610D5FFF7E8FF01280CD1684601F0B9FE6846007800F01BFB012001F0A0FD0220FFF749FF600708D507480179012904D1002101712620FFF71CFB03480068DD
:405FC00001692046884738BD8C0D0020B80D002010B501460A4A007800241070FFF7B6FF0128084603D002F0BFF9204610BD00F0E7F80400F9D1034801210170F5E70000CA
:40600000880D00205016002070B50446FFF79EFF002801D00C2070BDA27B01211F48002A827801D00A4301E05208520082706279012A14D0C17849084900C170184D286887
:40604000016820468847207901280CD06188208802F0F6FF2080207904280FD015E0C2780A43C270EAE72868C168E01D8847E01D02F0FAF90B48808C208006E02868C168A4
:40608000E01D8847E01D02F0EFF9074920798870204602F077F9002070BD000090150020B80D002048150020880D002008B50178FFF74CFF814201D10C2008BD002914D061
:4060C000072069460870FFF71BFF012807D10121684600F0D5F8012801D0092008BDFFF7F1FE02F083F9012011E0FFF709FF012806D1684601F006FE6846007800F09CFA1A
:4061000002F06AF9FFF722FF0028FBD10220FFF793FE002008BD000010B501460A4A007800245070FFF712FF0128084603D002F0D9F9204610BD00F05DF80400F9D103480F
:4061400001214170F5E70000880D00205016002038B568460CF0DAFC002801D01F2038BD01210098C90201804180002505714571857107214173857302F004F9009C2022EC
:4061800000212046FDF730FA25702A460021601CFDF72AFA204602F0E7F8204602F0A2F900980CF01DFD062200210448FDF71CFA02480C388560002038BD00008C0D0020C8
:4061C000F8B504460025684600950CF09FFC002801D007250AE0064E009830602278611C401CFDF7F8F93168207808702846F8BD800D0020F8B504460025684600950CF0F2
:4062000085FC002801D007250AE0064E009870602278611C401CFDF7DEF97168207808702846F8BD800D00200346084800B5834209D8184600F01AFE002804D00089984262
:4062400001D1012000BD002000BD0000FF0E0000074A9179491C8906890E917138220A4092014907090E1143084302490840704790150020FF0E0000C006C00E70470000F8
:40628000F8B507460E4600240D4803E0002C01D0002500E005462979002905D0641C2406240EF3D00020F8BD0021204601F02AF92E712046FFF7CCFF28813C700120F8BD47
:4062C000B015002010B503F06BF90222002100F003F801F0D7FE10BD10B5094B40074907000F090F185A595A40185043C0086421FBF774FD002800D1012080B210BD00002A
:40630000BC500100F7B53D20405C88B015460C46002802D02878042802D200200BB0F0BD6946087200262046FFF79CFA012800D00126204603A93830019100902346032714
:40634000A17E34333246206A03F04EF902A8089900900B46019120463A4603A9243003F0CBF802466846007A2870204601F0B6F81046D3E7FFB587B00C4605461078694625
:4063800008723D20005D1746002826D000262046FFF768FA012800D00126204603A93830019100902346A17E34333246206A03F01BF902A80090291D019120462B1D03A92A
:4063C00024300A9A03F098F802006846007A388002D1204601F082F810460BB0F0BDF0B505463C20405C89B016460C4600280CD0307869460873002806D000272046FFF7B8
:4064000031FA012803D003E01F2009B0F0BD012703200890204604A93830019100902346E17E34333A46E06903F0DEF86846007B03A928180290009120462B46019504A91A
:406440002430089A03F08CF802466846007B3070204601F04DF81046D7E7FFB505463C20405C89B016460C46002810D0084601F0A9F801280BD0308869468883002809D0B1
:4064800000272046FFF7EEF9012805D005E000200DB0F0BD0220FBE70127204603A93830019100902346E17E34333A46E06903F09BF8291D2B1D07A8129A6D4607C52046F1
:4064C00003A924300C9A03F04BF802466846808B3080204601F00CF81046D9E770B50D460446FFF7BFF901280AD0E87AA97A00020143A07801F0C2FC012808D0002070BD4B
:4065000000222421204602F0EDFC242070BD28214C200155204600F0B1FB282070BD0000002801D0002000E003484030C07F012800D0002070470000B015002001460020B1
:4065400049070ED50021084B03E0002901D0002200E01A461279022A04D0491C0906090EF3D0704701207047B01500200146002049070ED50021084B03E0002901D00022DB
:4065800000E01A461279022A04D0491C0906090EF3D0704701207047B015002010B5044680346068002803D00CF02EFB0020606010BD403041707047403081707047403096
:4065C000017070470171704792001018C166704770B53C2501F09CF9040004D020460021433001F0FFFBFF222946204600F0E8FB002C02D0A07801F00DF970BD10B50028F9
:4066000001D0002000E00348002802D0008903F03FFD10BDB015002010B5002801D0002000E00448002804D00179072901D100F047F810BDB015002010B501F069F9002837
:4066400002D0807801F0E6F810BD00207047000070B50546008A00281ED01049F122897A1140C90618D5294640314A8A098A521C4A4392B2D10800D10121540801E0621A46
:4066800094B2A042FBD9FEF7CBFE012804D1298AA878224601F0B8FC70BD00004815002010B50023054C0B60248A944204D992001018C26E0A60C36610BD00007C16002097
:4066C00038B5044600200090A079002814D14020015D052901D00E290ED168460CF026FA002809D12046009902F0DAFB03481021C28A2046FFF7D1FB38BD000048150020C6
:4067000010B50B4604460146184602F04BF8002802D020460CF06EFA10BD13B5044601AA11460620FDF7C8FF6846818861811CBD002800D10220704770470000F8B50446A7
:406740002346401D543300909A1EA078911E01F0F5FA25464035A88A298A8000FBF73EFB401E81B2688A884203D96982A07801F05DFF698A8C20015120460021433001F018
:4067800031FB27480088E88102F00AFFE989891C8AB26179FFF7A0FD01F074FC02F000FF2A8A6179FFF798FD074601F05FFC688A002806D01B49088A032212021043088292
:4067C00002E0002001F026FF1648803801886E8A002E0CD0304648431349FBF7E9FB0004000C01D0401C80B21049488002E00F4800214180288A704381B2A07801F080FEE3
:40680000FF2228374932B9B21346204602F01CFCE98AA07801F0F4FDA07801F025FAF8BD80102E40E0112E4071020000920D00207FB504468034616805460E461831082243
:406840006846FCF7C8FE31462031082202A8FCF7C2FE102168460CF003F96068102108300CF0FEF860682B46083024331022694602F062FE7FBD10B504460821FFF718FBF0
:4068800010212046FFF714FB207905281FD006281DD008281AD12189002003F071FB072020712046FEF7DEFF014620464030012913D00E21017000210176204600F0BCFFC5
:4068C0002046FFF76BFE2046FFF7C2FE10BD20890122002103F038FBE1E70521EAE70000FFB581B01F4604460821FFF7E1FA10212046FFF7DDFA2079082803D0092804D085
:40690000042203E00422012501E009220025204600F044FE264600204036307022712046FFF73CFE0398002D02D0012808D00BE001280AD120890022029903F005FB04E0A7
:406940002189029803F01CFB012700203076012F04D0204600F070FF05B0F0BD02983073204602F0EBFA054605480121C28A2046FFF793FA002DEFD109202071ECE70000CD
:406980004815002070B50C460546FEF76BFF012809D108212846FFF78BFA0023012221462846FFF79DFF70BD10B5044600F0F6FD2046FFF7F3FD00214034217010BD70B5F4
:4069C00005461A24FEF74EFF012809D108212846FFF76EFA0023012221462846FFF780FF70BD0000F8B50446002000900E4668460CF09CF8002801D00D20F8BD8420005906
:406A000008212030009D00F02CFA20460421383000F027FA002E02D1204600F0FBFD2946204602F0CCF90E480821C28A2046FFF734FA204600F071FF25464035002808D050
:406A4000204600F023F8002801D0092028700020F8BD08202870204600F0DAFFF7E7000048150020014610B540310A460978082906D0092907D00A2901D100F091F810BD23
:406A80000B20107010BD00F001F810BD70B50446007925464035052805D0062803D008280FD00C2070BD03220621204602F01AFA0D480821C28A2046FFF7EFF911202870E6
:406AC00010E006202873204602F038FA0646AA8A0A20424301212046FFF7DFF9002E01D109202071002070BD4815002038B504460020009068460CF019F8002801D00D208A
:406B000038BD2046009D00F0C3F908202071204600F080FD2946204602F084F900213D2001550F2040210855204600F071FF002038BD00B5024600F031FD10214032117006
:406B400000BD10B50446FEF78DFE012809D04020005D112805D100231A4606212046FFF7BFFE10BD10B5FFF786FE10BD38B504460021684600910BF0D9FF00280CD120468A
:406B8000009902F0D0F905480821C28A2046FFF784F90D204034207038BD00004815002038B504460021684600910BF0BFFF002801D00D2038BD2046009902F0A9F90548F8
:406BC0000821C28A2046FFF768F90C2040342070002038BD4815002000787047F8B5002569460D70002801D0002400E01F4C002C18D0204600F0DBFC002813D020790328FC
:406C00000BD005280CD026464036B18AA07801F081FCB078012806D01DE0042020711DE006202071F8BD0021204601F0D8FD274680373868002802D00BF0E6FF3D600020E3
:406C4000B0702079072802D12046FFF701FD0221204600F0F7FE20790428E3D1207A694608703420FEF7C6FCF8BD0000B015002010B54C22115400F052F810BD10B5044604
:406C8000FF21FFF715F909202071A07801F068FC10BD000038B5FF216A461180002801D0002400E00B4C002C12D011460620FDF703FD684601882046FFF72FFD204600F086
:406CC00087FC002804D104480068C1692046884738BD0000B0150020D40D002010B504468079002809D022214C200155FF212046FFF7DEF8204600F012F810BD10B5037958
:406D000002464032002B03D01173092B02D003E0002100E02221117300F001F810BDFEB504460089002700902781207926464036002817D0012815D002280AD112E002AA90
:406D400001A9204601F01CFD002807D101980BF051FF204601F03CFD0028F0D02046FEF7D1FCB776254680352868002802D00BF04BFF2F606868002802D00BF045FF6F60F2
:406D8000317B002919D0009800F064F8A078002100F086FF2046FFF795FAA07801F058F8A07800F037FDFF212046FFF781F80B20FFF742F800F068FCFEBD1F213173E2E7F7
:406DC000F8B517460E46054602F0E6FB04003CD020460C3000F0F6FF2046062200211830FCF702FC2046062200211230FCF7FCFB1648224600683946436A284698470746C9
:406E000026702846FEF72EFD012148406070002D10D02889608028464030C1782171002E0FD169796171018AE180418A2181808A608106E00648008BC005C00F2071002063
:406E400060803946204603F01EF8F8BDB80D002000102E400A4610B50146002003F030F910BD10B50BF0D8FB10BD000000B50146FFF702FA002801D0002000E0034800280D
:406E800002D002898A4200D0002000BDB015002038B5044680346068002806D168460BF055FE002801D100986060606838BD000010B5014600F086FB0128887802D0FEF7ED
:406EC000DBFC10BD90214843024940186030007F10BD00009015002070B5054604464035A87F012811D1A1789020084A484380186030067F3046FEF78DFE002805D10220A4
:406F0000A877A078314601F04DF870BD9015002010B50C4CA07A002813D0FEF727FF0A48027F417F408B00F0B7FB012809D10020A07200F0FDFE05498989090B01D000F0C9
:406F40003BFA10BD6016002090150020A0102E4070477047490510B5490F0B00FCF746FD060704080C0C0F073E21FFF781FE10BD0821FFF7C3FE10BDFFF7D1FE10BDFFF75F
:406F8000ADFE10BDF8B507460025002D01D0002600E0204E00F09AFE3046403044890021418100F09DFE304600F001FB01282BD1A00702D52846FFF711FEE00602D528467C
:406FC000FFF768FEA00601D5FEF7D0FE600601D500F014FB200602D5284600F01DF8600702D5284600F02CFA380402D52846FFF713FB780402D52846FFF700FBE00703D098
:4070000021463046FFF7A6FF6D1C2D062D0EBCD0F8BD0000B0150020F8B5002801D0002400E0284C002C4BD025464035A878012846D1FF278820493700593E46002805D0EE
:407040002149897A890601D5878AC68A2046FEF709FC012834D002F0A3FA2A8A6179FFF73BF9009001F002F800983346283081B23A46204601F0E8FFE98AA07801F0C0F9FF
:4070800012480188688A124E002810D048431149FAF78EFF0004000C01D0401C80B27080A07DC107C90F002001F086FA01E000207080288A698A484381B2A07801F020FA0C
:4070C000F8BD0000B01500204815002060112E40920D0020710200000149096809680847D40D002070B50D460026194A0146002801D0002401E014462034002C26D0204670
:4071000000F060FA01280AD19020484380186030007FFEF77FFD002801D101F08FFE0D48006881692046884700280CD020464030817EA94202D3491B817600E086762089E1
:40714000294602F05EFF204600F062FC70BD000090150020D40D002070B503460088FFF785FE040013D000F022FA00280FD02079092819D02546997840352973204601F0AA
:40718000DDFE0646A878012803D0AA8A02E0022070BDEA880A20424301212046FEF77DFE002E01D109202071002070BD0EB5002217216B460292198100905A810120029BE2
:4071C00000990BF0C1FD0EBDF8B518480024807A002822D1164E0025B089000B22E0204600F010FE1249A039401807882A462146384600F051FA012810D00E480122478302
:4072000005770A4944778A72002D01D0002000E02030002801D000F0FBFBF8BDB089000B641CE4B20028DAD1F8BD000060160020A0102E409015002010B50088FFF716FE34
