:400000000040002011000000250D0000250D000080B500AF00F090FE80B500AF2F4B12221A6003F0BDFC2E4B180004F041FB012003F0C6FC302003F0CDFA2A4B2A4A1A60CD
:400040002A4B8022D2051A60294B294A126802210A431A60274B284A1A60284B00221A60274B274A126808218A431A60FA23DB00180003F0FDFA234B180003F031FC224B86
:40008000C82252011A60214B214A1A60214B802212061A60204B8022D2021A601F4B40221A601F4B1900082003F02CFB082003F0A3FB1C4B1C4A1A600C4B1C4A1A601C4B94
:4000C00008221A60C0461A4B1B6808221340FAD1174B01221A60C046BD4680BD30001040001BB70004010B40060000800C020B4078002E407C002E402D3E000064F02E4063
:400100006CF02E40DC050000000301400000014040FF008008010B4000010B4004010140553B000008020B40FFFF00000500004010020B4080B582B000AF72B6384B002282
:400140001A60FB1D00221A7022E0FB1D1A7813005B009B185B00334A9B183B603B681A78597809020A43997809040A43DB781B06134318003B681A795B791B0213439BB2D9
:40018000190000F0ABFDFB1D1A78FB1D01321A70FB1D1B78012BD8D9234BEE2212061A60224B992212041A60214B992212041A60204B992212041A601F4B992212041A609D
:4001C0001E4B992212041A601D4A1D4B1B78DBB206210B43DBB213701A4BD82212041A60194B20221A60194BC42292021A60184B20221A60174B40221A60174B80225203BA
:400200001A60164B80221A60154B802212041A60FFF702FF00F072FDC046BD4602B080BD6CF02E40708E0100000002400001024000500F4010500F4020500F4030500F40BD
:4002400000700F40080004400001044008010440180104400002044008020440000304400803044010B5064C2378002B07D1054B002B02D0044800E000BF0123237010BDE9
:400280005810002000000000048A0100084B10B5002B03D00749084800E000BF07480368002B00D110BD064B002BFBD09847F9E7000000005C100020048A0100A80B00205B
:4002C0000000000080B500AF00F00CF800F020F800F012F803F0C4FE00F028F804F0B4FFFAE7C04680B500AF024B00221A60C046BD4680BDF822002080B500AF034B18003A
:4003000000F008FEC046BD4680BDC0464104000080B500AF62B602F0E1FE034B180003F03DF9C046BD4680BD608A010090B583B000AF394B1B78042B04D0062B3AD0022B00
:4003400013D05FE0344B1B789AB2344B1B889A4203D0334B180003F021F9324B1B78DBB2002B4AD000F050FF47E02B4B1B789AB22A4B1B889A4203D02B4B180003F00EF99D
:400380002A4B1B781F2B02D000F004FA37E0284B1B78DBB201225340DBB2002B02D000F077FA2CE0234B1B78DBB2012B27D000F04DFB24E0184B1B789AB2184B1B889A42C3
:4003C00003D01D4B180003F0E9F8164B1B78DBB2002B0ED0BC1D194B180000F027FF03002380BB1D1B88002B0BD10E4B00221A7007E0002000F0B6FE03E0C04602E0C04638
:4004000000E0C046044B1B789AB2044B1A80C046BD4603B090BDC0462C230020FC2200207C8A010074100020988A010080100020751000203C230020B88A0100841000206A
:4004400080B586B000AF786039607B68522B00D95CE17B689A00B34BD3181B689F46B24B180003F09BF858E1B04B180003F096F83B687B617B691B78042B00D048E17B6943
:400480001B7A062B00D043E17B69DB6801331B78FF2B00D03CE17B69DB6802331B78312B00D035E17B69DB6803331B78012B00D02EE17B69DB6804331B783B2B00D027E122
:4004C0007B69DB6805331B78042B00D020E1984B01221A707B695B68964A1000190006231A0004F070FE7B695A78924B9A71924B180003F053F80BE1904B180003F04EF83C
:400500008B4B00221A708E4B00221A708D4B00221A708D4B180003F041F8C04602F0F2FE01008A4B1A6880231B02134001D0012300E00023CB18002BF0D102F0E1FD02F038
:4005400005FF02F05FFE02F0C9FDE6E0804B180003F024F83B683B613B695B6805337D491022180004F020FE031E1CD13B695B6803331B789AB2784B1A803B695B68043333
:400580001B781B021AB2744B1B881BB213431BB29AB2714B1A806B4B1B7802221343DAB2684B1A70B6E03B695B6805336B491022180004F0F9FD031E00D0ABE03B695B683F
:4005C00003331B789AB2664B1A803B695B6804331B781B021AB2624B1B881BB213431BB29AB25F4B1A80574B1B7804221343DAB2544B1A708EE05B4B180002F0CFFF3B68BC
:40060000FB60FB685B6803331B78292B00D083E0FB685B6802331B78022B00D07CE0FB685B681B789AB2504B1A80FB685B6801331B781B021AB24C4B1B881BB213431BB268
:400640009AB2494B1A803F4B1B7808221343DAB23C4B1A7060E0454B180002F09FFF3B685B88162B04D83B685A88414B1A8002E03F4B17221A80334B1B7810221343DAB29C
:40068000304B1A7049E03B4B180002F087FF3B68180000F01BF940E0374B180002F07EFF3B68BB60BB685B681A88344B1A80BB685B685A88324B1A80224B1B780122134357
:4006C000DAB2204B1A7028E02E4B180002F066FF3B685B88162B04D83B685A88244B1A801BE0234B17221A8017E0154B01221A70254B180002F052FF244B180002F04EFF87
:400700000BE0234B180002F049FF06E0C04604E0C04602E0C04600E0C046C046BD4606B080BDC046D88C0100D88A0100F48A01007410002084100020208B0100588B010039
:400740007510002080100020808B010008022440988B0100248A010076100020348A010078100020C08B01007A100020E48B0100AC0B0020088C0100308C01007C1000208F
:400780007E100020608C0100848C0100A08C0100BC8C010080B500AF354B1B78012B1AD002DC002B05D05EE0072B32D00F2B4AD059E0304B304A1178527812020A43002064
:4007C0001204120C010C09040A43100019685A6811F0ECFC47E0294B1A88294B1A80294B1A88274B5A80264A234B1188528812040A43002111001A785B781B021A4300238D
:400800001204120C1B0C1B041343180011F0B2FC29E01D4B1B8801339AB21C4B1A80194B1A881A4B5A801949134B1A785B781B021A4300231204120C1B0C1B04134318009D
:4008400011F082FC0FE00C4B1A785B781B021A4300231204120C1B0C1B0413431721180011F0C0FCC04604F0EFFCC046BD4680BD80100020448A0100402300207C100020FB
:40088000002300207E10002076100020F422002080B500AF0A4B1A880A4B1A8109490A4B1A785B781B021A4300231204120C1B0C1B041343180011F029FDC046BD4680BDA2
:4008C0007A100020B00B00204023002090B585B000AF7860334B1B685A1C324B1A60324B180002F05BFE00F08FF8304B180002F055FE2E4B180002F051FE0B23FC1800F04E
:400900005BF803002370294B180002F047FE0B23FB181B785BB2180000F0B4F90300180002F03CFE214B180002F038FE1D4B1B68180000F0A7F90300180002F02FFE1B4B4F
:40094000180002F02BFE7B689A89194B1B889A421BD10023FB6012E07B685A68FB68D3181B78180000F08EF90300180002F016FE0E4B180002F012FEFB680133FB607B6881
:400980001B891A00FB689A42E6DC064B1B68094A934202DD034B00221A60C046BD4605B090BDC046F8220020248E0100288E010076100020E703000090B583B000AFFB1D2F
:4009C00000221A70FC1D06F0CDFB03002370FB1DFA1D12781A70FB1D1B785BB2FF221340180000F04FF90300180002F0D7FD054B180002F0D3FDFB1D1B785BB21800BD4641
:400A000003B090BD2C8E010080B582B000AF03F0F5FB03F0A9FB03007B607B68180003F0C5FB03007B607B68180000F02BF90300180002F0B3FD044B180002F0AFFDC0462A
:400A4000BD4602B080BDC046348E0100F0B58FB000AF68467860774800880338431E9C4663463B6303003B6100237B613B695B0F9C467B69DA0063461A433B69D9000200C5
:400A80001500002216006A0FF300FB60FB681343FB60EB00BB6003000733DB08DB006A46D31A9D466B460033FB6202F087FB02001C2318218C46BC4463441A801C231822D2
:400AC0009446BC4463441B885B4A934202D900F0BDF801E000F0C8F81C2318229446BC4463441B88002B00D19DE01C2318229446BC4463441A884F4B1B88033B9A420DDB56
:400B00004E4BFA2292001A804A4B1A881C2318218C46BC446344033A1A8010E0474B1B88013B9AB2454B1A80444B1B88002B06D01C2318229446BC44634400221A801C23D6
:400B400018229446BC4463441B88002B6BD03B4BFA2292001A801F2318229446BC44634400221A7018E01F2318229446BC4463441C7802F0DFFC0300DAB2FB6A1A551F233F
:400B800018229446BC4463441A781F2318218C46BC44634401321A701F2318229446BC4463441B789BB21C2218218C46BC44624412889A42D7D8224B1A881C23FB181A814A
:400BC0001C23FB181C2218218C46BC44624412889A80FA6A1C23FB181A6000F037F812231822BA18D4181C23F918164B1A785B781B021A4300231204120C1B0C1B04134301
:400C0000180011F08DFB0300238004F01DFB122318229446BC4463441B88002B03D00A4B1B78022BDBD07B689D46C046BD460FB0F0BDC046AC0B0020FF030000BC0B00200F
:400C400078100020402300202C23002080B500AF044B044A126804218A431A60C046BD4680BDC046C80F244080B500AF044B044A126804210A431A60C046BD4680BDC046B9
:400C8000C80F244080B584B000AF7860124BFB60FB68013BFB60FB6800221A70FB68013BFB607B680A21180004F058F80B00DBB23033DAB2FB681A707B680A21180003F057
:400CC000C7FF03007B607B68002BE7D1FB681800BD4604B080BDC046AA10002080B582B000AF786039603A687B680021180004F073FAC046BD4602B080BDC04680B500AFB3
:400D0000054B03221A60054B03221A60044B00221A60C046BD4680BD3000304030003140000E3F4080B500AF04F012FA03001B680C2B00D1FEE7FEE780B586B000AF224B13
:400D40007B61224B3B61204B7B6135E03B691B68FB603B695B68BB603B699B683B6000237B600CE0FB681A68BB681A60BB680433BB60FB680433FB607B6804337B607A683F
:400D80003B689A42EED13B69DB683B6000237B6008E0BB6800221A60BB680433BB607B6804337B607A683B689A42F2D13B6910333B617B69013B7B617B69002BC6D104F027
:400DC000CDF9FFF77FFAFEE7010000000491010080B582B000AF154B144A126801218A431A6000237B600FE07B68032B04D8104B7A689200D35800E00E4B0F4A79688900BB
:400E00008B507B6801337B607B682F2BECD9FFF791F90A4B00221A60044B044A126801210A431A60C046BD4602B080BD0000104000000000250D000000000020C0000020F8
:400E400080B500AF1B4B00221A701B4B00221A701A4B00221A701A4B00221A70194B5A88194B1A80174B9A88174B5A80154B9A79154B1A73134BDA79134B1A71124B0622C5
:400E8000DA81114B06221A820F4B00225A820E4B64229A820C4B0022DA820B4B012252421A830A4B1E221A8000F012F8C046BD4680BDC046552300203C23002053230020C3
:400EC00052230020040C0020102300202A23002080B500AF0C4B1B88002B05D10B4B0E220021180004F078F9074BDB88002B05D1074B06220021180004F06EF901F04AFD6E
:400F0000C046BD4680BDC0461C0C00204423002034230020B0B594B004AF78603E23FB1800221A802823FA18394B1000190014231A0004F048F9374B1B78002B04D1FFF720
:400F40007FFF344B01221A707B68002B55D0324B7A681A603E23FB181B88002B29D11023FB181C22BA185A601023FB182022BA181A601023FB1800221A812023FB181B2205
:400F80001A802023FB181B225A802023FB1804221A711C23FB1800221A703E23FC180E23FA181023FB181100180004F029FA030023803E23FB181B88002B22D13E23FC1897
:400FC0002823FD18AE231A01144915480023029300230193052300932B0004F067F9030023803E23FB181B88002B0AD10D4B01221A700D4B08221A7003E03E23FB180122F4
:401000001A803E23FB181B881800BD4610B0B0BD7C8E0100B41000200C230020C8000020091800002C2300202D23002090B585B000AF0200FB1D1A70FB1D1B78022B04D90F
:401040000E23FB1801221A804AE0294B1B78062B41D1284B1B78DBB21A00042313403AD1FB1D1B78002B0BD1234B0A221A82224B5B6820221A80204B5B6830225A8010E08B
:40108000FB1D1B78012B0CD11B4B96221A821A4B5B68C822D2001A80174B5B688022D2015A80164BFA1D12781A700E23FC18124B180010F001FA030023800E23FB181B8802
:4010C000002B0DD10B4B1B78DBB204221343DAB2084B1A7004E00E23FB180422FF321A800E23FB181B881800BD4605B090BDC0462C23002055230020F00B002053230020B1
:4011000080B584B000AF78600A00FB1C1A700023BB60BB68002B20D07B689A79BB681A700F23FB1800221A7012E00F23FB181B780133BA68D3180F22BA18127879688A5CA5
:401140001A700F23FB181A780F23FB1801321A700F23FB181B78052BE7D9C046BD4604B080BDC04690B585B000AF0200FB1D1A70FB1D1B78022B04D90E23FB1801221A80C1
:4011800035E0FB1D1B78002B09D11C4B0A221A811A4B30225A80194B30229A800EE0FB1D1B78012B0AD1154B96221A81134B802212015A80114BE122D2009A80104BFA1DDE
:4011C00012781A700E23FC180C4B180010F0F4F8030023800E23FB181B88002B07D1094B1B78DBB204221343DAB2064B1A700E23FB181B881800BD4605B090BD040C002020
:40120000522300205523002080B500AF10F000F9054B1B78DBB208221343DAB2024B1A70C046BD4680BDC0465523002090B585B000AF7860294B1B78062B05D00E23FB181B
:401240000422FF321A8041E07B68002B04D10E23FB1801221A8039E00D23FB1800221A7012E00D23FB181B780D22BA1812787968895C1B4AD3180A1C5A710D23FB181A7841
:401280000D23FB1801321A700D23FB181B78052BE7D97B689A79124BDA720E23FC18104B180010F02FF8030023800E23FB181B88002B0BD1094B05221A700A4B1B88002B2E
:4012C00004D0084B1B8818000CF028FF0E23FB181B881800BD4605B090BDC0462C230020102300202A23002090B583B000AF104B1B78052B04D0BB1D0422FF321A8011E0DD
:40130000BC1D0FF0F1FF030023800A4B1B88002B01D00CF01DFFBB1D1B88002B02D1044B06221A70BB1D1B881800BD4603B090BD2C2300202A23002080B582B000AF786059
:401340007B681B789AB27B6801331B789BB21B029BB213439BB21800BD4602B080BDC04680B582B000AF78607B68DB880D4A934214D10D4B5B88002B08D17B689A880A4BB9
:401380005A807B689A78084B1A7007E0074B1B687A68911D8622520010009847C046BD4602B080BD052A0000342300200C23002080B582B000AF78607B689B880B4A934241
:4013C00010D10B4B9B88002B04D17B685A88084B9A8007E0074B1B687A68111D8622520010009847C046BD4602B080BD02290000342300200C23002080B582B000AF7860D5
:401400000C4B5A887B689B899A420ED10A4B1B6879688322520010009847084B1B78DBB201229343DAB2054B1A70C046BD4602B080BDC046342300200C23002055230020E4
:4014400080B582B000AF7860C046BD4602B080BD80B582B000AF7860C046BD4602B080BD80B582B000AF7860C046BD4602B080BD80B588B000AF7860394B1B78022B6AD147
:40148000384B1B88002B66D00823F918354B022208009B180422190003F095FE7B6859687B681B891A000823FB180433180003F08AFE0823FB18180001F0E0FA294B1B88C0
:4014C00001339AB20823FB181A80274B1B781900264A0B005B005B185B00D31802331A880823FB185A800823FB181A880823FB185B889A4221D80823F9181D4B1A785B7819
:401500001B021A4300231204120C1B0C1B041343180010F077FE031E12D0164B1B6884225200002110009847134B1B78DBB202229343DAB2104B1A7002E0012000F09CFC4E
:401540000D4B1B78DBB201229343DAB20A4B1A70044B00221A80C046BD4608B080BDC0462D230020D8100020542300201C0C0020402300200C2300205523002080B588B052
:4015800000AF7860394B1B78022B6AD1384B1B88002B66D00823F918354B022208009B180422190003F00FFE7B6859687B681B891A000823FB180433180003F004FE0823D2
:4015C000FB18180001F05AFA294B1B8801339AB20823FB181A80274B1B781900264A0B005B005B185B00D31802331A880823FB185A800823FB181A880823FB185B889A4293
:4016000021D80823F9181D4B1A785B781B021A4300231204120C1B0C1B041343180010F0F1FD031E12D0164B1B6884225200002110009847134B1B78DBB202229343DAB242
:40164000104B1A7002E0012000F016FC0D4B1B78DBB201229343DAB20A4B1A70044B00221A80C046BD4608B080BDC0462D230020D8100020542300201C0C002040230020BB
:401680000C2300205523002080B500AF094B00225A70084B00221A70074B1B78052B03D1054B07221A7002E0034B08221A70C046BD4680BD402300202D23002080B582B0B0
:4016C00000AF78607B681B78032B3ED1264B1B78DBB21A000223134037D0244B1B78022B10D002DC012B05D024E0032B12D0042B18D01FE01E4B1B680822FF3200211000F6
:40170000984717E01A4B1B68842252000021100098470FE0164B1B680A22FF3200211000984707E0124B1B6885225200002110009847C0460C4B1B78DBB202229343DAB2D0
:40174000094B1A70094B00221A707B681B78042B05D1084B1B78052B01D1FFF7C5FDC046BD4602B080BDC046552300202D2300200C2300202C23002080B500AFC046BD46BF
:4017800080BDC04680B584B000AF78600E23FB1800221A707B689B79002B1CD10F23FB1800221A7012E00F23FB181B787A68D35C002B04D00E23FB1801221A700BE00F231E
:4017C000FB181A780F23FB1801321A700F23FB181B78052BE7D90E23FB181B781800BD4604B080BD80B582B000AF0200BB1D1A80C046BD4602B080BD80B582B000AF786027
:40180000C046BD4602B080BD80B588B000AF02003960FB1D1A70DA4B1B78DBB201221343DAB2D74B1A70FB1D1B78712B00D9FAE19A00D44BD3181B689F461423FB180722E7
:401840001A701423FB1800225A701423FB18180005F0ECFC1423FB1807221A701423FB1801225A701423FB18180005F0DFFCC64B1B681800FFF786FF031E11D0C24B1B684A
:40188000180003F0E5FCC04B1B6800211800FFF737FCBD4B1B6801211800FFF731FC0DE0BA4B180003F0D4FCB84B00211800FFF727FCB64B01211800FFF722FC03200FF0D1
:4018C000E7FB1023FB183F221A701023FB1800225A701023FB1818000FF0F8FBAC4B06221A70ABE13B681800FFF7E8FEA6E13B681A78A84B1A70A1E13B68BB61BB691B7856
:40190000002B00D091E1BB695B78002B0BD1A24B0022DA80A04B00229A809F4B9F4A1A60BB699D4A5A60964B1B78DBB201229343DAB2934B1A7078E1914B1B78DBB21A003D
:401940002023134000D072E1954B1B78102B02D1934B0522DA70934B1B78914A110018000FF068FD03001A000E23FB181A800E23FB181B88002B06D08B4B1B680E22BA18C7
:401980001100362098477E4B1B78DBB201221343DAB27B4B1A70834B1B78814A110018000FF02EF943E13B681800FFF725FF45E13B681800FFF720FF7C4B1B88002B01D0D3
:4019C0000CF0C6FB724B02221A7037E1704B06221A7033E16E4B1B78022B00D129E1684B1B78DBB21A000123134000D121E1644B1B78DBB21A00042313400BD0644B032289
:401A00001A705F4B1B78DBB204229343DAB25C4B1A700EE15A4B1B78DBB21A00082313400BD05B4B06221A70554B1B78DBB208229343DAB2524B1A70FBE0554B1B78032B6B
:401A400000D0F6E0524B06221A70594B1B78002B00D0EEE00120FFF7E9FA031E00D0E8E04B4B03221A70E4E0494B1B78022B00D1E1E0434B1B78DBB21A000123134000D1BF
:401A8000D9E03F4B1B78DBB21A00042313400BD03F4B04221A703A4B1B78DBB204229343DAB2374B1A70C6E0354B1B78DBB21A00082313400BD0364B06221A70304B1B78E7
:401AC000DBB208229343DAB22D4B1A70B3E0304B1B78042B00D0AEE02D4B06221A70354B1B78002B00D0A6E00120FFF73BFB031E00D0A0E0264B04221A709CE03B681B883E
:401B00001800FFF76FFE99E0264A3B681000190002231A0003F057FB1E4B00221A70264B00221A70FFF728FE88E0FFF7ADFD85E03B685B88162B05D81E23FB183A685288C2
:401B40001A8003E01E23FB1817221A801E23FB1819883B681A8800231204120C1B0C1B041343180010F09EFE68E03B68180000F083F863E03B68180000F0B6FA5EE0C04690
:401B800055230020908E0100180C0020100C00202C2300203C230020F0100020A80B0020300C0020402300200C2300202A23002053230020522300202D23002000F082FE67
:401BC0003CE03B68180000F029FD37E03B68180000F0C8FE32E03B681800FFF739FC2DE03B681800FFF708FC3B681800FFF738FC1F4B1B78DBB21A00012313401DD13B6825
:401C0000186810F099FA18E03B681800FFF730FC14E03B681800FFF7B1FC0FE03B681800FFF70EFC0AE0C04608E0C04606E0C04604E0C04602E0C04600E0C0460C4B1B7854
:401C4000DBB21A00112313400ED0094B1B78DBB201229343DAB2064B1A70064B1B68FA1D1278396810009847C046BD4608B080BD552300200C23002080B586B000AF7860A8
:401C80000023FB60774B1B78012B00D0E6E0764B1B78DBB21A000223134000D1DEE00A23FB187A6812891A800A23FB181B88062B05D00A23FB181B88142B00D0C7E0082389
:401CC000FB187A6852891A801423FB1800221A80ABE07B685A681423FB181B88D318FB601323FB1800221A70FB681A885F4B1B889A4200D27CE0FB681A885C4B5B889A4255
:401D000000D975E00A23FB181B88062B00D068E0FB6801221A751623FB1800221A8055E01623FB181A88524913005B009B185B00CB1804331A88FB689B889A423FD116238B
:401D4000FB181A884A4913005B009B185B005B5A002B13D11623FB181A88454913005B009B185B00FA68CB1811000422180003F02AFA1323FB1801221A7020E01623FB18F6
:401D80001B88012B0FD81623FB181B885A1C384913005B009B185B00CB1804331A88FB689B889A420BD0334B1B68FA68111D0C22FF32100098471323FB1801221A70162304
:401DC000FB181A881623FB1801321A801623FB181B88022B0CD81323FB181B78002B9FD006E0FB6802221A75FB68180000F046FE1323FB181B78002B0DD11B4B1B78DBB289
:401E00001A000123134006D01A4B1B68F9681222FF32100098471423FB181422B9180A22BA18098812888A181A801423FA180823FB1812881B889A4200D24AE70A4B1B785D
:401E4000DBB201229343DAB2074B1A7006E0094B1B680822FF32002110009847C046BD4606B080BD2D23002055230020302300201C0C00200C23002080B582B000AF020026
:401E8000FB1D1A70FB1D1B78002B06D0344B1B780133DAB2324B1A700CE0314B00221A70304B00221A8005E02D4B1B780133DAB22B4B1A702A4B1B78022B19D8284B1B78D4
:401EC0001900294A0B005B005B185B009A5A274B1B889A42E8D3224B1B781900224A0B005B005B185B009A5A204B5B889A42DBD81B4B1B78022B28D8194B1B781A001300AE
:401F00005B009B185B00184A9918194B1A785B781B021A4300231204120C1B0C1B041343180010F06FF9031E15D0124B1B68842252000021100098470F4B1B78DBB20222E3
:401F40009343DAB20C4B1A7005E00C4B03221A70002000F0ADFAC046BD4602B080BDC04654230020D81000201C0C002030230020402300200C230020552300202D2300204A
:401F800080B582B000AF78607B68DB884F4A934200D184E04D4A93420BDC4D4A934224D04B4A934200DD68E0A822920193420AD087E0484A93423CD0474A93424BD0474A10
:401FC000934224D07DE0464B1B88002B04D17B689A88434B1A8074E0424B1B687A68911D86225200100098476BE03D4B5B88002B04D17B689A883A4B5A8062E0394B1B681A
:402000007A68911D862252001000984759E0344B1B89002B04D17B689A88314B1A8150E0304B1B687A68911D862252001000984747E02B4B5B89002B04D17B689A88284B0F
:402040005A813EE0274B1B687A68911D862252001000984735E0224B9B89002B04D17B689A881F4B9A812CE01E4B1B687A68911D862252001000984723E0194B9B88002BA3
:4020800004D17B689A88164B9A801AE0154B1B687A68911D862252001000984711E0104BDB88002B04D17B689A880D4BDA8007E00C4B1B687A68911D8622520010009847D5
:4020C000C046C046BD4602B080BDC046032A0000012A0000A62A0000C92A0000042A0000442300200C23002090B593B000AF7860D44B1B78DBB21A000223134000D1D1E15A
:402100003E23FB187A6812891A803C23FB187A6852891A807B685B683B64CB4B1B78032B00D0C7E04623FB1800221A80B8E03B6C1800FFF701F903001A002423FB181A8028
:402140003B6C02333B643B6C1A782423FB189A703B6C01333B643B6C1800FFF7EDF803001A002423FB189A803B6C02333B643E23FB181B88152B33D12423FB1802229A753F
:402180002423FB180622396C9B181022180003F01AF83B6C10333B64AC4B1B781900AC4A0B005B005B185B00D31804331B881A00A84B9A425DD0A54B1B78012B5BD9A34BF4
:4021C0001B78022B57D8A14B1B789BB2023B9BB22422BA181100180000F0B8FCC0464AE03E23FB181B88072B48D12423FB1801229A753B6C1800FFF79FF803001A002423E7
:40220000FB18DA803B6C02333B64904B1B7819008F4A0B005B005B185B00D31804331B88C0225201934203D08B4A934206D00BE02423FB181800FFF7A3FE1FE02423FB18B3
:402240001800FFF78DF819E0804B1B78012B14D97E4B1B78022B10D87C4B1B789BB2023B9BB22422BA181100180000F06FFCC04603E0C04602E0C04600E0C046714B1B7811
:40228000DBB201229343DAB26E4B1A704623FB184622B9183E22BA18098812888A181A804623FA183C23FB1812881B889A4200D23DE7F7E0644B1B78022B00D0F2E046232E
:4022C000FB1800221A80E4E03B6C1800FFF734F803001A000C23FB181A803B6C02333B643B6C1800FFF728F803001A000C23FB185A803B6C02333B643B6C1800FFF71CF8A4
:4023000003001A000C23FB189A803B6C02333B643E23FB181B88062B30D10C23FB1802229A750FF0EDFF0C23FB1859884B4B1A785B781B021A4300231204120C1B0C1B04CB
:40234000134318000FF07CFF031E07D1444B0C22BA1813CA13C313CA13C388E0414B1B6884225200002110009847364B1B78DBB202229343DAB2334B1A7078E03E23FB180D
:402380001B88082B00D072E00C23FB1801229A753B6C1800FEF7D0FF03001A000C23FB18DA803B6C02333B644423FB1800221A8033E04423FB181A88254913005B009B1806
:4023C0005B00CB1804331A880C23FB18DB889A421CD14423FB181A881D4913005B009B185B005B5A002B11D14423FB181A88184913005B009B185B000C22BA180220CB189A
:4024000011180422180002F0DEFE0BE04423FB181A884423FB1801321A804423FB181B88022BC6D9094B1B781900094A0B005B005B185B00D31804331B881A000A4B9A4299
:4024400014D014E0552300202D230020542300201C0C0020FEFF00000118000040230020D81000200C23002012180000C0460F4B1B78DBB201229343DAB20C4B1A70462334
:40248000FB184622B9183E22BA18098812888A181A804623FA183C23FB1812881B889A4200D211E7C046BD4613B090BD5523002080B582B000AF0200FB1D1A70FB1D1B7851
:4024C000002B06D0354B1B780133DAB2334B1A7009E0324B00221A7005E0304B1B780133DAB22E4B1A702D4B1B78022B19D82B4B1B7819002A4A0B005B005B185B009A5A51
:40250000284B1B889A42E8D3244B1B781900244A0B005B005B185B009A5A224B5B889A42DBD81E4B1B78022B2DD81C4B1B781A001B4913005B009B185B001B4A585ACB1842
:402540005B881B04034319001378527812021A4300231204120C1B0C1B04134318000FF009FE031E15D0114B1B680A22FF320021100098470E4B1B78DBB202229343DAB2D2
:402580000B4B1A7005E00B4B04221A70002000F0E9F8C046BD4602B080BDC046542300201C0C002030230020402300200C230020552300202D23002080B582B000AF3B00E4
:4025C00000221A803B0000225A80114B1B78002B09D1104B5B8801339AB23B001A800E4B1A893B005A803B1D3A0012681A603A1D002311880904090C1B0C1B040B43528827
:4026000012041B041B0C13431800BD4602B080BD54230020342300201C0C002080B58AB000AF78600823FB1800225A804A4B1B78042B00D08BE0494B1B78DBB21A000223D3
:40264000134000D183E01E23FB187A6812891A807B681A7B0823FB181A750823FB187A6812881A800823FB181B7D012B04D12623FB1804221A8003E02623FB1812221A80CF
:402680007B685B683B622423FB1800221A804EE03B6A1800FEF750FE03001A000823FB185A803B6A02333B620823FB181B7D022B15D10823FB183A6A04331100102218008A
:4026C00002F081FD3B6A10333B62254B1B78012B23D10823FB18180000F0FEFB1DE03B6A1800FEF729FE03001A000823FB189A803B6A02333B621A4B1B78002B04D108239E
:40270000FB181800FEF754FE154B1B78012B04D10823FB18180000F0DFFB2423FB182422B9182622BA18098812888A181A802423FA181E23FB1812881B889A42A8D3074B8E
:402740001B78DBB201229343DAB2044B1A70C046BD460AB080BDC0462D230020552300205423002080B584B000AF0200FB1D1A700C23FB1800221A800C23FB1800225A803E
:402780004A4B1B78012B17D0FB1D1B78002B0DD0464B1B780133DAB2444B1A70434B1B78012B09D1FB1D00221A7005E03F4B00221A70FB1D01221A703C4B1B78012B0CD140
:4027C000FB1D1B78180000F0C5FA03001A000C23FB181A60FB1D01221A70344B1B78012B06D0FFF7E9FE03001A000C23FB181A600C23FB181A882E4B1B889A4215D90C2306
:40280000FB181A882A4B5B889A420ED80C23FB185A88274B1B889A4207D30C23FB181A880C23FB185B889A4203D9204B1B78012BA6D91E4B1B78012B21D80C23F9181D4BA7
:402840001A785B781B021A4300231204120C1B0C1B04134318000FF077FC031E21D0164B1B6885225200002110009847134B1B78DBB202229343DAB2104B1A7011E0104BC8
:4028800005221A700C4B1B68892252000021100098470A4B1B78DBB202229343DAB2074B1A70C046BD4604B080BDC0465423002030230020402300200C2300205523002035
:4028C0002D23002080B500AF244B1B78DBB21A00022313403FD0224B1B78022B17D002DC012B05D037E0032B1DD0042B27D032E01B4B02221A700020FFF7BEFA174B1B7820
:40290000DBB201229343DAB2144B1A7023E00120FFF7B2FA114B1B78DBB201229343DAB20E4B1A7017E00120FFF7C2FD0B4B1B78DBB201229343DAB2084B1A700BE0012041
:40294000FFF710FF054B1B78DBB201229343DAB2024B1A70C046C046BD4680BD552300202D23002080B582B000AF7860084B1B78DBB21A000223134005D07B689B790A2B3E
:4029800001D1FFF79FFFC046BD4602B080BDC0465523002080B582B000AFBB1D00221A8060E0BB1D1B889A1C324913005B009B185B005B5A002B50D13B1D00221A8040E0D4
:4029C000BB1D1B882C4A1B01D3180C331A683B1D1B881B01D31800221A80BB1C00221A8019E0BB1D1B88244A1B01D3180C331A683B1D1B881B01D318D968BB1C1A88130054
:402A00005B009B189B00CB1800221A80BB1C1A88BB1C01321A80BB1D1B88174A1B01D3180C331A683B1D1B881B01D3189B7A9BB2BA1C12889A42D4D33B1D1A883B1D0132B1
:402A40001A80BB1D1B880C4A1B01D31809331B789BB23A1D12889A42B2D3BB1D1A88BB1D01321A80BB1D1B88002B9AD0C046BD4602B080BD1C0C0020540C002080B584B01E
:402A800000AF78600D23FB1800221A700E23FB1800221A8046E00E23FB181B88284A1B01D31808331B78022B35D10E23FB181B88234A1B01D318043318687B6804331022BB
:402AC000190002F071FB031E25D10E23FB181B889A1C1C4913005B009B185B005B5A002B19D10E23FB181B889A1C164913005B009B185B007A68CB1811000422180002F082
:402B000062FB114B1B780133DAB20F4B1A700D23FB1801221A700E23FB181A880E23FB1801321A800E23FB181B88002B04D10D23FB181B78002BAED0C046BD4604B080BD5E
:402B4000540C00201C0C00205423002080B584B000AF02003960BB1D1A800D23FB1800221A70774B1B68002B0FD0764B1B88BA1D12889A4206D1724B1B683A681288013A54
:402B800092B21A806E4B00221A600E23FB1800221A80ABE00C23FB1800221A703B689B7D022B27D1BB1D1B88674A1B01D3180C331A680E23FB181B881B01D3181B7A022BE5
:402BC00018D1BB1D1B88604A1B01D3180C331A680E23FB181B881B01D31858683B6806331022190002F0E0FA031E03D10C23FB1801221A703B689B7D012B27D1BB1D1B8820
:402C0000514A1B01D3180C331A680E23FB181B881B01D3181B7A012B18D1BB1D1B884A4A1B01D3180C331A680E23FB181B881B01D31858683B6806330222190002F0B4FA5B
:402C4000031E03D10C23FB1801221A700C23FB181B78012B43D1BB1D1B883B4A1B01D3180C331A680E23FB181B881B01D3181B88002B34D1BB1D1B88334A1B01D3180C3394
:402C80001A680E23FB181B881B01D3183A6892881A80BB1D1B882C4A1B01D3180C331A680E23FB181B881B01D3183A6892785A72BB1D1B88244A1B01D3180C331A680E234D
:402CC000FB181B881B01D3189A1C1D4B1A601D4BBA1D12881A800D23FB1801221A700E23FB181A880E23FB1801321A80BB1D1B88154A1B01D31809331B789BB20E22BA1826
:402D000012889A4205D20D23FB181B78002B00D140E70B4B1B68002B0DD0094B1A680B4B1B7818000A4903005B001B185B00CB1802331B881380C046BD4604B080BDC04608
:402D4000FC10002000110020540C0020542300201C0C002080B584B000AF0200FB1D1A700823FB1800221A800823FB1800225A80FB1D1B78002B2DD0524B1B880133524AC4
:402D80001288524912018A1809321278934206D24C4B1B8801339AB24A4B1A8023E04A4B1B88013309D1484B1B8801339AB2464B1A80444B00221A8015E0454B1B7801330D
:402DC000DAB2434B1A703F4B1B8801339AB23D4B1A8008E03C4B00221A803A4B00221A80FB1D01221A70384B1B88384A1B01D31809331B789AB2334B1B889A421FD9324BF3
:402E00001B88324A1B01D3180C331A682D4B1B881B01D3181B8801339AB20823FB181A80294B1B88294A1B01D3180C331A68254B1B881B01D3185A880823FB185A800823FD
:402E4000FB181A88234B1B889A4215D90823FB181A88204B5B889A420ED80823FB185A881C4B1B889A4207D30823FB181A880823FB185B889A420CD9134B1B88134A1B01B6
:402E8000D31809331B789AB20E4B1B889A4200D96EE70C23FB180822BA1812681A600C23FA18002311880904090C1B0C1B040B43528812041B041B0C13431800BD4604B0C6
:402EC00080BDC046FA100020F8100020540C0020542300203023002080B584B000AF78600E23FB1800221A700F23FB1800221A70B9E00D23FB1800221A707B681B7D022BB2
:402F000037D1664B1B88664A1B01D3180C331A68644B1B881B01D318D9680F23FB181A7813005B009B189B00CB181B7A022B20D15A4B1B885A4A1B01D3180C331A68594BA2
:402F40001B881B01D318D9680F23FB181A7813005B009B189B00CB1858687B6804331022190002F021F9031E03D10D23FB1801221A707B681B7D012B37D1484B1B88484A63
:402F80001B01D3180C331A68464B1B881B01D318D9680F23FB181A7813005B009B189B00CB181B7A012B20D13C4B1B883C4A1B01D3180C331A683B4B1B881B01D318D968BC
:402FC0000F23FB181A7813005B009B189B00CB1858687B6804330222190002F0E5F8031E03D10D23FB1801221A700D23FB181B78012B31D1294B1B88294A1B01D3180C33BC
:403000001A68284B1B881B01D318D9680F23FB181A7813005B009B189B00CB181B88002B1AD11E4B1B881E4A1B01D3180C331A681C4B1B881B01D318D9680F23FB181A781C
:4030400013005B009B189B00CB187A6852881A800E23FB1801221A700F23FB181A780F23FB1801321A700D4B1B880D4A1B01D3180C331A680B4B1B881B01D3189B7A0F2231
:40308000BA1812789A4205D20E23FB181B78002B00D12EE7C046BD4604B080BDF8100020540C0020FA10002080B500AF00F082F9C046BD4680BDC04680B500AF064B064A2D
:4030C0001268802109060A431A6000F033F800F039F8C046BD4680BD0000244080B500AF064B1B78002B04D1FFF7DEFF034B01221A70FFF7E1FFC046BD4680BD0411002012
:4031000080B500AF092000F08DFB00F023F8074B064A1268520052081A60054B00221A60092000F095FBC046BD4680BD00002440880F244080B500AF092000F05DFBC04628
:40314000BD4680BD80B500AF00F0BEF9C046BD4680BDC04680B500AF00F0D0F9C046BD4680BDC04680B582B000AF00237B600F4B1A680F4B1B689A4212D00D4B1B680133B5
:403180003B603B680B4A934201D100233B600A4A3B68D3181B78DBB27B60054B3A681A607B681800BD4602B080BDC046683300206023002001080000642B002080B582B05E
:4031C00000AF0D4B1B683B600C4B1B683A689A4205D30A4B1B683A68D31A7B6007E0074B1B683A68D31A064A944663447B607B681800BD4602B080BD6833002060230020F6
:403200000108000080B500AF092000F00BFB0E4B1A680E4B1A600E4B00221A700D4B0D4A1268802149020A431A600A4B094A126809490A401A60094B094A1A60092000F081
:40324000DBFAC046BD4680BD60230020683300206533002004032440FFFFFEFFC00F2440ED0F000080B584B000AF78601E4B1A681E4B1B689A4209D11D4B1B681F2213408C
:40328000082B03D01B4B7A681A6028E0164B1B680133FB60FA6880231B019A4201D10023FB60C046114B1B68FA689A42FAD0124B02221A607B68D9B2104AFB68D3180A1C5A
:4032C0001A70094BFA681A600D4B1B680222134005D10B4B0A4A126802210A431A60C046BD4604B080BDC0465C230020582300200802244040022440800F244064230020F6
:40330000880F244080B582B000AF0E4B1B683B600D4B1A683B689A4205D30B4B1A683B68D31A7B6008E0084B1A683B68D31A80221201944663447B607B681800BD4602B083
:4033400080BDC046582300205C23002080B500AF092000F067FA104B1A68104B1A60104B0F4A126802218A431A600E4B0D4A1268802149020A431A600A4B0A4A12680A49D5
:403380000A401A60094B0A4A1A60092000F034FAC046BD4680BDC046582300205C230020880F244004022440FFFFFEFF800F2440F307000080B500AF294B2A4A1A602A4B52
:4033C00000221A60294B2A4A1A602A4B2A4A1A602A4B07221A602A4B00221A60294B01221A60294B244A1A60284B00221A60284B04221A60092000F015FA0321092000F04F
:40340000A7F9244B1900092000F07CF9224B00221A60224B00221A60214B00221A60214B00221A60204B04221A60204B00221A601E4B1B689AB21E4B1A801E4B00221A6062
:403440001D4B00221A601D4B00221A701C4B00221A601C4B00221A60C046BD4680BDC046000024400F000002400024404800244001000A00000324400700008004032440B9
:403480001003244044002440000224400402244050002440D1460000880E2440C80E2440480F2440080F2440C80F2440880F24400611002068330020602300206533002065
:4034C0005C2300205823002080B500AF074B074A126807490A40902109040A431A60054B054A12881A60C046BD4680BD00010240FFFF0FFF880F24400611002080B500AF14
:40350000084B084A126808490A401A60074B1B689AB2E423DB0013409AB2054B1A80C046BD4680BD00010240FFFF0FFF880F24400611002080B582B000AF092000F072F96A
:40354000FFF73CFE031E07D0092000F055F9FFF709FE03007B6008E00E4B1B687B600E4B04221A60092000F047F90B4B1A68D8239B0013403B60084BD82292001A603B6898
:403580001B027A6813437B607B681800BD4602B080BDC04640032440C00F244080B584B000AF78600023FB6009E07A68FB68D3181B781800FFF756FEFB680133FB607A68BE
:4035C000FB68D3181B78002BEFD1C046BD4604B080BDC04690B58BB000AF78602723FC1801F06FF803002370194B1A680C23FB181A60184B1A680C23FB185A607B68033B08
:40360000154AD35C1A000C23FB189A60134B1A680C23FB18DA601C23FB18114A1A600C23FA181C23FB185A600E4B1C22BA181A600D4B0E4A1A600B4B1B682723FB181B7800
:40364000180001F042F8C046BD460BB090BDC04608010B4000010B408890010030001040B6EA000008001040040010401700008080B584B000AF78600023FB60154B154AA7
:40368000126801210A431A60134B144A1A60144B134A1268802109020A431A607B68002B12D01023FB600CE0012000F019F900F019F8031E02D00023FB6005E07B68013BC5
:4036C0007B607B68002BEFD1FB681800BD4604B080BDC04660F02E4078002E400220000010002E4080B582B000AF054B1B68012213407B607B681800BD4602B080BDC0463B
:403700000C002E4080B584B000AF02003960FB1D1A7080239B05FB60FB1D1B781F2B02D9002000F0ABF8FB1D1B7810339B00FA68D3181B68BB60FB1D1B7810339B00FA683A
:40374000D3183A681A60BB681800BD4604B080BD90B587B000AF0200FB1D1A70BB1D0A1C1A70BB1D1B78032B02D9002000F086F8FB1D1B781F2B02D9002000F07FF8FB1D4B
:403780001B7803221340DB0006337B611323FC1800F097FF03002370FB1D1B789B08DBB29B00144A944663441B68FB6003227B699A401300DA43FB681340FB60BB1D1A78E7
:4037C0007B699A401300FA681343FB60FB1D1B789B08DBB29B00074A94466344FA681A601323FB181B78180000F06FFFC046BD4607B090BD00E400E080B582B000AF020086
:40380000FB1D1A70064BFA1D12781F210A40012191400A001A60C046BD4602B080BDC04600E100E080B582B000AF0200FB1D1A70064BFA1D12781F210A40012191400A0001
:403840001A60C046BD4602B080BDC04680E100E080B582B000AF0200FB1D1A70064BFA1D12781F210A40012191400A001A60C046BD4602B080BDC04680E200E080B582B03B
:4038800000AF0200FB1D1A7001BEC046BD4602B080BDC04680B582B000AF786009E00D4B1B68180000F004FF7B680B4A944663447B607A6880231B029A42F0D8074B1B688C
:4038C0007A685343180000F0F3FEC046BD4602B080BDC046700C00200080FFFF680C002080B582B000AF0200BB1D1A80BB1D1B88044A12785343180000F0DAFEC046BD464F
:4039000002B080BD6C0C002080B500AF0F4B0F4A126801218A431A600C4B0C4A126802218A431A600A4B0A4A126830218A4310210A431A60064B064A126807218A4301218A
:403940000A431A60C046BD4680BDC04600F02E4000FF2E4080B500AF0F4B0F4A126802218A431A600D4B0D4A126807218A4302210A431A60094B094A126830218A43202166
:403980000A431A60044B044A126801210A431A60C046BD4680BDC04600F02E4000FF2E4080B500AFFFF7B0FF044B044A1268802109060A431A60C046BD4680BD00F02E406E
:4039C00080B584B000AF78600C4B1B6801221340FB607B68002B02D0012B03D005E0FFF793FF06E0FFF7B6FF03E00020FFF746FFC046FB681800BD4604B080BD00F02E403E
:403A000090B583B000AFFC1D00F05BFE03002370074B074A1268C02109020A431A60FB1D1B78180000F051FEC046BD4603B090BD00010B4080B500AF054B1A68C0231B028A
:403A4000134001D0012300E000231800BD4680BD00010B4090B583B000AFFC1D00F031FE030023700D4B0D4A12680D490A408021C9010A431A60094B084A126808490A40AC
:403A8000802109020A431A60FB1D1B78180000F01CFEC046BD4603B090BDC04600010B40FF3FFFFF90B585B000AF78600B23FC1800F007FE03002370FFF7BCFF031E04D0BB
:403AC0000123FB60FFF7C6FF01E00023FB607B680D4A13407B600D4B0C4A12680C4911407A680A431A60094B1B68FB68012B01D1FFF786FF0B23FB181B78180000F0E5FDDD
:403B0000C046BD4605B090BD0404040010020B40FBFBFBFF80B584B000AF786039600023FB607B68022B0AD8094B7A689200D358FB60074B7A6892003968D15002E0002050
:403B4000FFF79CFEFB681800BD4604B080BDC0461811002080B500AF344B1B68042213401FD0334B1B680422134017D0314B1B6804221340DA432E4B1B681A402C4B1A606C
:403B80002C4B1B68042293431A002A4B1A602A4B1B68002B02D0284B1B6898470420FFF781FF224B1A688023DB00134022D0204B1A688023DB00134017D01E4B1A688023BD
:403BC000DB001340DA431A4B1B681A40184B1A60184B1B68194A1A40164B1A60164B5B68002B02D0144B5B6898478023DB001800FFF758FF0D4B1A688023DB02134011D04A
:403C00000B4B1A688023DB02134006D00A4B9B68002B02D0084B9B6898478023DB021800FFF740FFC046BD4680BDC04610020B407C0C00201411002018110020FFFBFFFFD5
:403C400080B582B000AF786039607B683A681A403B689A4201D1012300E000231800BD4602B080BD80B584B000AF78607B680322134006D17B686421180001F06FF80B1E39
:403C800007D17A68C8235900100001F067F80B1E02D10123FB6001E00023FB60FB681800BD4604B080BDC04680B584B000AF78607B681B0907221A4013009B009B185B0021
:403CC000FB607B680F221340FA68D318FB60FB681800BD4604B080BD80B584B000AF78607B681B0B07221A4013009B009B185B00FB607B681B0A0F221340FA68D318FB6024
:403D0000FB681800BD4604B080BDC04680B584B000AF78607B681B0D03221A4013009B009B185B00FB607B681B0C0F221340FA68D318FB60FB681800BD4604B080BDC046D2
:403D400080B582B000AF78608023DA037B6811001800FFF775FF03001800BD4602B080BD80B584B000AF78607B681B0F03221A4013009B009B185B00FB607B681B0E0F2282
:403D80001340FA68D318FB60FB681800BD4604B080BDC04680B584B000AF78607B681B0D01221A4013009B009B185B00FB607B681B0C0F221340FA68D318FB60FB68180053
:403DC000BD4604B080BDC04680B584B000AF78607B681B0B03221340FA2292005343FB607B681B0A0F22134064225343FA68D318FB607B681B090F221A4013009B009B1876
:403E00005B001A00FB689B18FB607B680F221340FA68D318FB60FB681800BD4604B080BD80B582B000AF78607A6880231B04134001D0012300E000231800BD4602B080BD37
:403E400080B586B000AFF860B9607A603B60FB68DB057B61BB689B057A6913437B617B680A21180000F0F4FE03001B057A6913437B617B680A21180000F070FF0B001B045C
:403E80007A6913437B613B680A21180000F0E0FE03001B037A6913437B613B680A21180000F05CFF0B001B027A6913437B613B6A0A21180000F0CCFE03001B017A6913439B
:403EC0007B613B6A0A21180000F048FF0B001A007B6913437B617B691800BD4606B080BD80B586B000AFF860B9607A607B687B61FB680A21180000F0ABFE03001B053B6178
:403F0000FB680A21180000F029FF0B001B043A6913433B61BB680A21180000F099FE03001B073A6913433B61BB680A21180000F015FF0B001B063A6913433B617A68FA2333
:403F40009900100000F084FE03001B033A6913433B617A69FA239900100000F0FFFE0B007B617B696421180000F072FE03001B023A6913433B617B696421180000F0EEFE00
:403F80000B007B617B690A21180000F061FE03001B013A6913433B617B690A21180000F0DDFE0B001A003B6913433B613B691800BD4606B080BDC04690B587B000AFF86008
:403FC000B9607A60BB68022B05D8BB680C33BB607B68013B7B60BB6801331A2253430A21180000F035FE03001A00FB68D2187B68D2187B689B08D4187B686421180000F082
:4040000027FE03001A0013005B009B185B00E4187A68C8235900100000F01AFE0300E3180721180000F09AFE0B007B617B69002B01D107237B617B691800BD4607B090BDF1
:4040400080B582B000AF7860044A7B6811001800FFF760FDC046BD4602B080BDFD41000080B500AF054B1B78002B01D100F008F80020FFF7E5FFC046BD4680BD78330020B0
:4040800080B584B002AF154B01221A70144B00221A60144B0022DA60134B00221A70134B00221A60124B1A0016210B20FFF718FF03007B600F2300931523112200210020EA
:4040C000FFF7BEFE03003B607A683B681100180000F010F8C046BD4602B080BD783300203C11002084330020803300207C330020E107000090B587B000AF786039603B68FA
:404100001800FFF72DFE03007B613B681800FFF741FE03003B613B681800FFF755FE0300FB607A683B681100180000F08FF803000C000B4A136054600A4B3A685A60094BC1
:404140007A681A60FA6839697B691800FFF734FF0200044B9A60C046BD4607B090BDC046703300208433002090B583B002AF0C4B1B68190000231A000A4B5C681B685B185A
:4041800054410949002200921A002300080000F025F9054B1B681800BD4601B090BDC0463C110020703300208433002080B586B000AF786001233B610023FB6000237B61E9
:4041C00013E07B680F2213403A695343FA68D318FB607B681B097B603A6913009B009B185B003B617B6901337B617B690F2BE8D9FB681800BD4606B080BDC04690B500AF69
:404200000E4B1A680E4B1B68D2180C4B1A600B4B1A680C4B1B689A420CD30B4B5C681B68012100225B185441074A13605460034B00221A60C046BD4690BDC0464011002087
:40424000341100203811002070330020F0B591B000AF78623962002300243B637C637B6A1800FFF7B1FD0300FB62564BFB6319E0FB6B1800FFF7F6FC031E08D03B6B7C6BFA
:40428000514900225B1854413B637C6307E03B6B7C6B4E4900225B1854413B637C63FB6B0133FB63FA6BFB6A9A42E1D37B6A1800FFF770FD0300BB62BB6A5A1E444B5200BB
:4042C000D35ABB63BB6A022B08D9FB6A1800FFF7C9FC031E02D0BB6B0133BB63BB6B3D4A5343BB610023FB613B6B7C6BB969FA695B1854413B637C637B6A1800FFF730FD08
:404300000200344B5343344A944663443B6100237B613B6B7C6B39697A695B1854413B637C633B6A1800FFF7F1FC0300BB633B6A1800FFF775FD031E0BD03B6A1800FFF7A0
:40434000FFFC031E05D0BB6B0B2B02D8BB6B0C33BB63BB6BE12212015343BB600023FB603B6B7C6BB968FA685B1854413B637C633B6A1800FFF7B0FC020013001B019B1A4E
:404380009B003B6000237B603B6B7C6B39687A685B1854413B637C633B6A1800FFF784FC03001D0000231E003B6B7C6B5B1974413B637C633B6B7C6B18002100BD4611B0E3
:4043C000F0BDC046B20700000085E2018033E101B89001008051010080AEFEFFF0B5A1B002AF7865BA64FB6400233B679C4BBB669C4B7B6619E07B6EBB600023FB60BB6CD6
:40440000FC6CB968FA685B1A9441BB64FC64BB6E0133BB66BB6E1800FFF724FC031E02D0914B7B6601E08F4B7B667B6E1D0000231E00FB6CB342DED8FB6CB34202D1BB6CF8
:40444000AB42D8D80123FB66BA6EFB6E1100180000F010F90200854B53437B6618E07B6E3B6000237B60BB6CFC6C39687A685B1A9441BB64FC64FB6E0133FB66BA6EFB6E3A
:404480001100180000F0F6F80200784B53437B667B6E3B6400237B64FB6C7A6C934207D3FB6C7A6C9342DAD1BB6C3A6C9342D6D2B86CF96C6D4A002300F040FD03000C007D
:4044C0003B663A6E694B53437B667B6EBB630023FB63FB6CFA6B93420CD3FB6CFA6B934203D1BB6CBA6B934204D37B6E3B6200237B6203E0002300243B627C62BB6CFC6C19
:40450000396A7A6A5B1A9441BB64FC643B6E01333B66B86CF96CE1221201002300F00EFD03000C007B677B6FE122120153437B669023FB181B68002B1DD0FB6C002B06D1BE
:40454000FB6C002B0ED1BB6C494A93420AD901233B677B6F0C2B02D97B6F0C3B00E07B6F7B6708E000233B677B6F002B01D07B6F00E00C237B677B6E3B6300237B63FB6C5C
:404580007A6B93420CD3FB6C7A6B934203D1BB6C3A6B934204D37B6EBB610023FB6103E000230024BB61FC61BB6CFC6CB969FA695B1A9441BB64FC64B86CF96C3C220023E7
:4045C00000F0BCFC03000C00FB65FA6D13001B019B1A9B007B667B6EBB620023FB62FB6CFA6A93420CD3FB6CFA6A934203D1BB6CBA6A934204D37B6E3B6100237B6103E006
:40460000002300243B617C61BB6CFC6C39697A695B1A9441BB64FC64BA6E396EFB6E1800FFF75EFC02007B6D5A60BB6CFC6D7A6F396F90203818006800932300FFF700FC68
:4046400002007B6D1A60BA6EF96E3B6E1800FFF7B3FC02007B6D9A60C046BD461FB0F0BDB20700008033E1010085E20180510100C1A8000080B584B000AF786039607B681B
:40468000013B0A4AD35CFB607B68022B08D13B681800FFF7E7FA031E02D0FB680133FB60FB681800BD4604B080BDC046D09001000230800803D00138FDD1C046C046C04604
:4046C0007047EFF3108072B6704780F31088704780B582B000AF344B1B68002B02D0324B1B689847314B1B680422134027D0304B1B6801337B607B682E4A934201D100235B
:404700007B602D4B1B687A689A4205D12B4B1B682B4B20221A700AE0284B1B68D9B2294A7B68D3180A1C1A70214B7A681A60264B1B681F221340DAD1244B04221A60244BFF
:404740001B68022213402BD0224B1A68224B1B689A4215D0204B1B6801333B603A6880231B019A4201D100233B601C4B1C493A688A181278D2B21A60174B3A681A6006E01E
:40478000184B184A126802218A431A6005E0164B1B681F221340082BD6D1144B02221A60C046BD4602B080BD08110020CC0F2440683300200108000060230020400324409E
:4047C00065330020642B002008032440C00F24408C0F24405C230020582300204002244064230020880F244008022440800F244080B582B000AF78600A00BB1C1A80BB1C8E
:404800001A887B681A60C046BD4602B080BDC04680B582B000AF78600A00BB1C1A80BB1C1A887B681A60C046BD4602B080BDC04680B584B000AF494B1B78DBB21B02484AC3
:404840001278D2B21343FB60464B1B78DBB21B02454A1278D2B21343BB60BB68434A934207D1FB68072B04D1414BBB600423FB6009E0BA68D4231B019A4204D1FB68042B4C
:4048800001D13B4BBB603B4BBA681A603A4BFA681A603A4B1B78DBB21B02394A1278D2B21343FB60FA6880239B019A4202D0FB68002B01D1334BFB60334BFA681A60334B9E
:4048C0001B78DBB21B02324A1278D2B21343FB60FB68304A934206D0FB682F4A934202D0FB68052B01D12D4BFB602D4BFA681A602C4B1B681B097B602B4B1B68AA2B29D1E8
:404900007B68012B26D9214B1B78DBB20E2B21D1264B1B78DBB29BB21B0299B2244B1B78DBB29AB2BB1C0A431A80224BBA1C12881A60214B1B78DBB29BB21B0299B21F4BD1
:404940001B78DBB29AB23B000A431A801C4B3A0012881A60C046BD4604B080BDD9F0FF0FD8F0FF0FDFF0FF0FDEF0FF0F580B0000580D00006C002E4074002E40DBF0FF0F37
:40498000DAF0FF0F0220000078002E40DDF0FF0FDCF0FF0F0F0F000005050000050F000080002E40EC0F00F0E00F00F06DF2FF0F6CF2FF0F84002E406FF2FF0F6EF2FF0FC6
:4049C00094002E4080B582B000AF0200BB1D1A80BB1D1B881800FEF783FFC046BD4602B080BDC04680B582B000AF78607B681800FEF750FFC046BD4602B080BD80B500AF1A
:404A000000F0ECF8C046BD4680BDC04680B500AF00F0F0F8C046BD4680BDC04680B500AF00F0E8F8044B180000F0A2F8032000F0ADF8C046BD4680BD414C000080B500AF3A
:404A4000034B180000F080F8C046BD4680BDC046414C000080B500AF0223FF331800BD4680BDC04680B582B000AF78602B231800BD4602B080BDC04680B582B000AF7860BC
:404A80002B231800BD4602B080BDC04680B582B000AF78602B231800BD4602B080BDC04680B582B000AF78602B231800BD4602B080BDC04680B582B000AF78602B231800AC
:404AC000BD4602B080BDC04680B582B000AF78602B231800BD4602B080BDC04680B582B000AF78602B231800BD4602B080BDC04680B582B000AF78602B231800BD4602B01D
:404B000080BDC04680B500AF2B231800BD4680BD80B582B000AF0200FB1D1A702B231800BD4602B080BDC04680B582B000AF786039602B231800BD4602B080BD80B500AFCD
:404B4000C046BD4680BDC04680B582B000AF786000F050F87B68180000F00AF8032000F015F800F03BF8C046BD4602B080BDC04680B582B000AF7860034B7A681A67C046F0
:404B8000BD4602B080BDC0460000002090B585B000AF0200FB1D1A700623FB600B23FC18FFF78FFD030023700B4B0B4A1268C0218A431100FA1D1078FA68904002000A432E
:404BC0001A600B23FB181B781800FFF77EFDC046BD4605B090BDC0460CE400E080B500AF034B802252011A60C046BD4680BDC04600E100E080B500AF034B802252011A60AE
:404C0000C046BD4680BDC04680E100E090B583B000AFFC1DFFF755FD03002370074B074A126804218A431A6030BFFB1D1B781800FFF74BFDC046BD4603B090BD10ED00E06A
:404C400080B500AF13F0CAFEC046BD4680BDC046002243088B4274D303098B425FD3030A8B4244D3030B8B4228D3030C8B420DD3FF22090212BA030C8B4202D31212090252
:404C800065D0030B8B4219D300E0090AC30B8B4201D3CB03C01A5241830B8B4201D38B03C01A5241430B8B4201D34B03C01A5241030B8B4201D30B03C01A5241C30A8B42C3
:404CC00001D3CB02C01A5241830A8B4201D38B02C01A5241430A8B4201D34B02C01A5241030A8B4201D30B02C01A5241CDD2C3098B4201D3CB01C01A524183098B4201D33C
:404D00008B01C01A524143098B4201D34B01C01A524103098B4201D30B01C01A5241C3088B4201D3CB00C01A524183088B4201D38B00C01A524143088B4201D34B00C01AD5
:404D40005241411A00D20146524110467047FFE701B5002000F0F0F802BDC0460029F7D076E7704703460B437FD4002243088B4274D303098B425FD3030A8B4244D3030BBA
:404D80008B4228D3030C8B420DD3FF22090212BA030C8B4202D31212090265D0030B8B4219D300E0090AC30B8B4201D3CB03C01A5241830B8B4201D38B03C01A5241430B86
:404DC0008B4201D34B03C01A5241030B8B4201D30B03C01A5241C30A8B4201D3CB02C01A5241830A8B4201D38B02C01A5241430A8B4201D34B02C01A5241030A8B4201D307
:404E00000B02C01A5241CDD2C3098B4201D3CB01C01A524183098B4201D38B01C01A524143098B4201D34B01C01A524103098B4201D30B01C01A5241C3088B4201D3CB008A
:404E4000C01A524183088B4201D38B00C01A524143088B4201D34B00C01A5241411A00D201465241104670475DE0CA0F00D04942031000D34042534000229C4603098B42A0
:404E80002DD3030A8B4212D3FC22890112BA030A8B420CD3890192118B4208D3890192118B4204D389013AD0921100E08909C3098B4201D3CB01C01A524183098B4201D3E4
:404EC0008B01C01A524143098B4201D34B01C01A524103098B4201D30B01C01A5241C3088B4201D3CB00C01A524183088B4201D38B00C01A5241D9D243088B4201D34B0043
:404F0000C01A5241411A00D20146634652415B10104601D34042002B00D54942704763465B1000D3404201B5002000F005F802BD0029F8D016E770477047C046002B11D1A1
:404F4000002A0FD1002900D1002802D00021C943081C07B4024802A14018029003BDC046D9FFFFFF03B4684601B5029800F006F8019B9E4602B00CBC7047C046F0B54D4622
:404F8000564644465F46F0B4924683B004000D0099468B422FD82CD04946504600F0AEF829000600200000F0A9F8331A9846203B9B4600D574E053465A4693401F005346C8
:404FC000424693401E00AF4229D826D05B46A41BBD41002B00DA79E0002200230092019301235A4693400193012342469340009319E08242D0D900220023009201930C9B74
:40500000002B01D01C605D600098019903B03CBC90469946A246AB46F0BDA342D6D900220023009201934346002BE8D0FB0772081A4346467B080EE0AB4201D1A2420CD85B
:40504000A41A9D41012024196D410021013E24184D41002E06D0AB42EED9013E24196D41002EF8D15B460098019900196941002B22DB2B005A46D3402A004446E2401C00F7
:405080005B461500002B2CDB26009E40330026004746BE403200801A994100900191AEE7424620239B1A5246DA40414613004A468A4017001F4382E7424620239B1A2A0011
:4050C00046469A402300F3401343D5E74246202300219B1A0022009101920122DA40019282E74246202326009B1ADE402F00B446974066463B003343C9E7C04610B50029FD
:4051000003D100F007F8203002E0081C00F002F810BDC0461C2101231B04984201D3000C10391B0A984201D3000A08391B09984201D30009043902A2105C40187047C046BB
:4051400004030202010101010000000000000000014B18687047C046501000200E4B70B500251E000D4CE41AA410A54204D0AB00F35898470135F8E713F0B2FF084B00257A
:405180001E00084CE41AA410A54204D0AB00F35898470135F8E770BDEC900100EC900100EC900100F490010030B50024A24208D0035D651C0C5DA34201D0181B02E02C00F7
:4051C000F4E7002030BD002310B59A4203D0CC5CC4540133F9E710BD03008218934202D019700133FAE77047134A1088810703D08107890F401A001D11791030484381B207
:405200005088820703D08207920F801A001D800040180A494030098980B2CA0701D0503080B2890706D504495422091F09785143081880B270470000860C002050110020FF
:4052400010B501F007FF10BD10B500F05BFA10BD10B50749044609780220002907D1204601F048FF002802D120460CF023F810BD320E002070B504460120002C12D023685F
:40528000002B0FD0616800290CD0074D06222889208118462968FFF796FF6968606809780170002070BD000050110020FFB585B0002768460E9D07734F481C4600780028F9
:4052C00002D0082009B0F0BD10990F9801900095029105A807C800F007F90028F2D16946264603AB84460873002C19D0002115E08A00B75A082F09D990198078002805D063
:40530000083FB7521878401C187005E0002914D00027B75290198770491CC9B2A942E7D360460028CED10F98002809D0109901F041FA002804D00120C4E701208446EFE7EF
:4053400001F088FE2D480021416081600599016021888180022D07D3A1798171A17AC171A1890181218A418100211EE0481C19E082008B00A75AE65ABE46BE4211D26F4614
:405380003E80B4461E190296B678BE7001967646E6521719029EBB78B3706646A652019EBE70401CA842E3D3491CA942DED3134822460C3000906846037B0799069800F002
:4053C0001BF90028B8D168460B4C007B60700B480C3001F06FFE0028AED1084907480C3108F052FE0028A7D108F06CFE0028A3D10121217066E70000800C00204411002020
:40540000F8B5054636480F460078002802D002242046F8BD002F60D000243249002D16D02A89D0070DD02868002808D003881B3BE12B04D24088FB2801D81B2801D2012424
:4054400009E0900707D56868002804D1F7E70020088108604860002CDAD122482E8906811F481B21801D01804180042101711C490020891C0870F00705D019480622801D40
:405480002968FFF7A0FE1749B00703D56A68144812788270124D0E46AD1D281F0D60486001F04EFE284601F03DFE30890FF0DAFE30890EF07DFF28880EF080FF308910F0D5
:4054C00053F803461033FFF78FFE1F21C018890140183880A91F88809AE7012498E70000800C002050110020FFB58446384F1C460020BB883F78054602460646002F11D10D
:4055000000290ED0029999420BD36146002908D0002C06D00A99002906D02E4B0B99994202D2012004B0F0BD002144E0AB001F19BF78002F3BD0E35A002B38D07B4359183E
:4055400089B22B0000F04AF8050410161C253100A7782388BC46FF27233BEB37BB4222D26346032B1FD322E0A388002B1FD0302B19D31CE02389002B19D0282B13D316E04D
:40558000A289002A13D01346134F233BBB420AD20DE0268A002A0AD033460F4F233BBB4201D2964203D901200EE0002001E000280AD16D1CEDB2099B9D42B7D31C24634339
:4055C0005B1802998B42ACD89642AAD8AAE70000800C002079020000BAFF000030B47446641E2578641CAB4200D21D46635D5B00E31830BC18470000FFB583B00024694607
:405600000C801F4606468C80002806D00598002803D004983043800701D0012466E0002FFBD03449049809888842F6D3FFF706FAFFF7ECF900F012FC002855D100F07AFDFE
:40564000002851D12C49084601F0E8F805042D0C4AD12A480499066081800021C18007810C98007AC00704D0684601F00CFD040007D10C98007A800703D501A801F00CFD32
:405680000446BF1DFEB2002C20D13146059800F05DF804001AD10FF075FF040016D16A461088928808368518144AF1B29088D288AEB29319984207D3401B801A80B201F0C9
:4056C0009DFB050007D000E0FF25012400F05EFA002D04D008E0F8B200F01CF9F6E700F081FA07490120087000F0CAFB204607B0F0BD0000840C0020395800005C110020AF
:405700008C0C002010B503480078012801D101F017FA10BD8C0C002070B5084B0446DA889E8800205518B54206D81D68AA182260DA885118D98070BD032070BD5C11002004
:4057400001480089704700005C110020F0B587B007460D4600208900009006916846FFF7DBFF844600285DD1304800990160002117E02E4B88001A680629115406D22C4C38
:405780000419667882185670628805E0C419203CA67A8218567022891B68C018491C4280C9B2A942E5D300242DE0601CC2B2059025E01E4FA30039689600581840887118F8
:4057C000039604904E88B04217D938466F46FE80B6464F786E4677710297049F4F800168039F5E18767879184E700168764659184E800068029F18184770521CD2B2AA42B9
:40580000D7D30598C4B2AC42CFD36046002809D168460699FFF780FF8446002802D1054900980860604607B0F0BD0000900C002018910100940C00207047000010B50028CA
:4058400009D005494A68002A05D0011F08788000105801F081FA10BD900C002010B50446FFF76EFFC0B2801DA0420CD307484068002808D0A100405801F0E0F9002801D09E
:405880000470001D10BD002010BD0000900C0020F8B516460D460446FFF752FFC0B2801DA04203D20020C0430090F8BDB2B2E9B2684601F0E9F90099481C03D0024AA0008A
:4058C000526811500098F8BD900C0020F8B50746FFF736FF801DC6B20A49002005460C680DE06178002907D06188B94202D32078FFF7B4FF002804D1241D6D1CEDB2B542FB
:40590000EFD3F8BD900C002010B5002801D0FFF795FF10BD70B506460948002504680BE06178002905D062882078121D0023FFF7AFFF241D6D1CEDB2B542F1D370BD000041
:40594000900C0020FFB581B00A9F16000C4620D000F0F2F8054604281BD0002F0CD03846FFF7B4FF20492A0151184860002810D03A460499FFF727FC1B4928010E504618EB
:40598000778101980570200406D47D20C000444304E0FF2005B0F0BD6404640C00F0BAF80746042807D000F04FFAA0420BD800F04BFA201A03E0204600F0AAFA0020F06016
:4059C00035720020E6E700F03FFA009000F0B6FA00980121001B009000F0ECF802493A0151180098C860E6E768110020F8B5060116483418217A042903D0E068002802D031
:405A000017E00020F8BD00F01FFA054600F096FA00F0A0F804280CD001010C480F18F8680021451900F0C6F80020F860284600F06FFA6068054D002801D0FFF765FF04205C
:405A400020720020A8516081E060DAE768110020FEB500266A46304601232549050169180D7A042D02D0C96800291BD000211154401CC0B20428F0D300246846005D00287F
:405A800030D01B48210108184189476805680291002101604160042241810272C160002E02D015E01354E3E700F054F804280ED001010F4808180190C6680021304600F0FD
:405AC00079F801980021C160304600F021FA0126002D07D038460299A847002F02D03846FFF712FF641CE4B2042CC6D3FEBD0000681100200EB5002005216A460090118112
:405B0000508103486946006810F0B5FB0EBD0000980C0020074A0020010189180B7A042B02D0C968002903D0401CC0B20428F3D37047000068110020054900200201521841
:405B4000127A042A03D0401CC0B20428F6D370476811002030B50A4B04200A4C00210A011219157A042D06D0D268002A03D09A4201D808461346491CC9B20429EFD330BD95
:405B8000FFFF0000681100207047000030B50020074C05460423020111190B72A5504D60401C4D81C0B2CD600428F4D330BD00006811002030B5094C00231A011219157A0D
:405BC000042D04D0D568002906D02D18D5605B1CDBB2042BF1D330BD2D1AF7E768110020002070471CB5002469460C70142001902346054A054810F043FB04480068401C39
:405C000000D1FF2420461CBD615C0000980C00203EB5124A0146FF2000230124126800290DD0012914D0042908D104206946009308814B81104610F01EFB80B23EBD68461A
:405C40000093048143816946104610F00FFBF4E768460093048143816946EBE7980C002070B545890468416800890300FFF7B6FC08280509091E22282628002006F020FF21
:405C80001EE0022908D0C8B22A4621460EF0DCFA2046FFF739FE13E002202A4621460EF0D3FA2946204600F00DF809E000200FF0E1FF05E02046FFF7CBFE01E0FEF73EFFA5
:405CC000002070BD014B0022DB6818479C0C002070B5448905680089022803D0032809D0FF2070BD2246094C0023A46829460120A04708E0FFF7A4FA241DA2B20023294644
:405D0000022008F074F8002070BD00009C0C0020704700000248002141600180418070479C0C002070B50C46002186B016460391012802D0022859D116E003A9012008F07C
:405D4000ABF801281BD1039D324621462846FFF73AFA0095287801900220694608814E816846FFF7B5FF41E0214D002B686809D0049004A9022008F08FF801281DD0022090
:405D800006B070BD002812D0298840182146FFF71AFA28880024801980B228806988091D884206D12C801348FFF792FF03E00320E6E788421AD96C6018E004986860E278DD
:405DC000A378110219430B4A698000231060E3565360032313815181A1788170E178C1706178417021780170042028800020C7E79C0C0020A81100203EB515460C460228A3
:405E000003D004280CD000203EBD0091019002206946088107484A81006810F02CFA07E00EF012FA044B0022DB6829462046984701203EBD980C00209C0C0020014AD160CB
:405E4000906070479C0C0020034801688068081A0A21484300097047B411002010B5FEF7DDFD482204490548FFF7ADF903490120C870002010BD000034910100B815002021
:405E800010B5FEF7BBFD10BD70B5134C2368002B08D0207B1149C20705D04008400020738868A08070BD88680B4AA18880B29268814203D90A4D691A091802E0814202D2F9
:405EC000411A5118A160A080A0689842EAD310F0EFF900F013F870BDB4110020C0102E40FFFF000010B508461946FFF7A7FF10BD704710B5FFF780FF10BD000003480021E8
:405F0000016041608160C16070470000B4110020024610B5FF20002A0CD0FFF7EFFF064C0321207B0843207310010A21FEF716FF2060002010BD0000B411002000B5044823
:405F40000A21806848430209FFF7D8FF104600BDB41100200248007B8007C00F70470000B411002010B54B490868002802DA4A4B01221A7002229043086048480069454907
:405F8000C00B4031096A0246C907C90F0A4259D0012000F097FA3F480E216C30FEF738FC3E4820218430FEF733FC3C4814219C30FEF72EFC3948FF21C131A430FEF728FCED
:405FC0003648FF212F31B030FEF722FC33483449BC30FEF71DFC31483249AC30FEF718FC30492E48491CB430FEF712FC2B482E49B830FEF70DFC29482C49CC30FEF708FCFF
:4060000026482B490830FEF703FC24482949A830FEF7FEFB214828498830FEF7F9FB1F4826498C30FEF7F4FB1C481921C9029030FEF7EEFBFEF7FCFBFEF70CFDC0B2022830
:4060400012D01FE000290BD0002101420AD0114801216030FEF7DCFB0120FEF7C3FC97E70121F2E7FF2010BD15491648FEF7D0FB14481549001DFEF7CBFB1248002108302B
:40608000FEF7C6FB54200449C043891C0870002010BD000000F02E40AC0C002000002E40320300002F3F00003102000010520000EC160000FA12000031D000003AE3000054
:4060C0009956000080012E40F80F000070B50646581C80B245086D00002408E0304600F0C1F81055000A1119A41C4870A4B2AC42F4D3D80705D0D0182038D15CC47FD45417
:40610000C17770BD30B50A4C002100195B1E07E0541864782502545C2C430480891C89B29942F5DB994201D1515C018030BD000000102E4010B5FF2000F0C4F90F49FF203A
:4061400048700E481021801D41800121417001700A490020C91C4870FFF704FF04000AD100F010F907210648FEF742FB044807211830FEF73DFB204610BD0000AC0C0020C1
:40618000CC112E4070B5002405465B1E0AE0284600F068F8010A161971702D1D1055A41CADB2A4B29C42F2DB9C4203D1284600F059F8105570BD000070B500210A4D5B1EEC
:4061C0000AE0541864782602545C344346193480001D891C80B289B29942F2DB994202D1515C4019018070BD00102E40F0B50599091FCFB200217E1E0BE054186478250251
:40620000545C2C43164D45192C80001D891C80B289B2B142F1DBFC0712D01C78515C24020F4A0C4381180C809C785D78001D210280B2294384182180001D80B2D9780CE03B
:4062400059781A7809021143054A84182180001DD9789B78090280B2194380180180F0BD00102E40014940180088704700102E4010B50B490020487000F084F8002000F0A6
:4062800047F9002000F034F907210648FEF7B0FA044807211830FEF7ABFA002010BD0000AF0C0020CC112E4010B50B46062812D006DC01280CD0032801D1FFF7D9FF10BD3E
:4062C0000A28FCD00B28FAD105480078107010BDFFF730FF10BD1146184600F035F910BDB20C0020F8B5244DAC6A0127A007234E002816DA307806280ED1286A3843286248
:406300001F480069F903084381B21D481030FEF77FFA042000F0D6F8174802212830FEF767FAE00718D000F017FF01280FD1002000F076FF062000F0C5F81049FF20C91E59
:4063400048707078002802D1686B384368630A4801212830FEF74CFAE0050BD53078042802D1052000F0AEF80348FF2101312830FEF73EFAF8BD000040F02E40AF0C0020EB
:4063800000002E4010B503212348FEF741FA0120FEF718FB20483038406A204C80076178800F890001431C480C38FEF731FA6078002808D0401E022181401820FEF7B8FD5C
:4063C000C000083800E0B82081B21548FEF720FA1348032109021438FEF71AFA10481149B830FEF715FA612189010F48FEF710FA0D480321001FFEF70BFA0C490C48FEF737
:4064000007FA0B480B496038FEF702FA084801218838FEF7FDF910BD70F02E40B20C0020D8102E4090890000041E2E40FF0F000058122E40209000000849087806280BD125
:4064400048780749002803D1486B400840004863C86A01221043C86270470000AF0C002040F02E400148007870470000AF0C002000B50300FFF7B2F8080D050D0B07050738
:40648000090D012000BD032000BD042000BD022000BDFF2000BD0000074A9168D26889B2064B92B2994204D105498A4201D1012100E000210170704780002E4033D0000040
:4064C0003FE3000010B50446FEF7A0FA072C01D9FF2C01D102480470FEF790FA10BD0000AF0C00200149487070470000AC0C002010B5064A012805D01921C9021046FEF7F9
:4065000087F910BD1D21C902F8E7000090002E4010B50A4A141D012808D009491046FEF777F908492046FEF773F910BD04491046891CFEF76DF90349491DF3E788002E40C6
:4065400031D000003AE3000070B50C460546FEF781FAC0B202280E49287804D0FF2810D04C280CD810E0FF2809D10A4AD0680004800F032801D0087807E09069000A553802
:4065800003E00878207070BD4F382070087070BDAE0C002000002E40F0B50122002834D0002932D00424420600D00524792342065B06D21800D0641C034600221EE00C2516
:4065C00016466E43124D00277519AF72104F002ABB51696007D0661EB24209D10D4E86197606760E05E05E06760E8027BE1B00E080269B198919521C2E81D2B2A242DED379
:4066000003480549006B002288611046F0BD00004014002079020000B80C002018B50020694608700A48006900280ED0132149014018047E684604704F21C900054800F0B0
:4066400059F8A04201D0012018BD002018BD0000B80C0020C4110020074900200C2242435218927A012A05D0401CC0B20628F5D3002070470120704740140020F8B50E0017
:406680000446154609D0194F19497868A04202D94018A04201D38D4201D90120F8BD31462046FEF781FD00281ED02A4631462046FEF789FDE8B200210C224A43D21913893D
:4066C0005568EE18A6420BD90126641B1B1B9672834209DA1469C01A044AC0B220329676491CC9B20629E7D30020F8BD4014002079020000034610B50020024604E09C5C2B
:406700002018521CC0B292B28A42F8D310BD000070B500F05FF8084C064A216907480D46FEF751FD05492846FFF736FFFFF776FF207070BD79020000B80C0020C4110020B7
:40674000002070470020054A002902D0012902D002E0906000E0D06000207047B80C002070B5084C154608460549E26889182A46FEF729FDE0684019E06028B270BD000071
:40678000C4110020B80C00203EB50A226946FFF7E7FF044606480A2200686946FEF704FD002802D00020C0433EBD20463EBD0000BC0C0020002802D0044A914201D2FF2017
:4067C000704703494A6108610020704779020000B80C0020024800218160C16070470000B80C002070B5074C15460548A26880182A46FFF743FFA0684019A06028B270BD72
:40680000C4110020B80C002010B503490A220968FFF7E8FF10BD0000BC0C002010B50F4A002313600E4A13600E4B18600E4801600E49012008600E490860000290600E4950
:406840000C4808600D4914300860FF381538506000F0BCF800F0CAF9002010BDEC0C0020D40C0020000D0020040D0020F00C0020E00C002088150020E40C0020F80C002053
:40688000014610B50020002910D0094B1A689C685118A14209D25868196080188A0704D08A07920F891A091D196010BD002010BDD40C0020F8B50024164E671E321F3D46B0
:4068C0003168136806E01422624310328A58521C1BD0641C9C42F6D36A1C14D02C461422544322460C3288500C214843FFF7C8FF3168002808510AD0316800201034085139
:406900007068401C70602846F8BD2546E4E73846F8BD0000E40C0020F3B50026F64381B000281BDB1E490968884217D80299002914D01B4F142204463F1D5443254639683F
:4069400010354859401C09D0FEF760F838682F1F4159C359994203DBFEF750F83046FEBD214608310091465801590C20704308180C220299FEF727FC0948761C001D006873
:40698000C159B14200D100260549009A091D865008684159491C4151FEF730F80020FEBDE00C0020002803DB07490968884202D90020C043704704491422091D09685043F7
:4069C0001030085870470000E00C0020F0B500200D4A451E0346171F50600FE014260146714314680E1DA3510C461668083433511668083435511468401C63503968884201
:406A0000ECD30020F0BD0000E40C0020F3B50026F64381B0002841DB2349096888423DD8029900293AD0204F142204463F1D54432546396810354859401C2FD0FDF7E6FFAC
:406A40003868415900292BD0211D009146580C21005971430F46C1190C220298FEF7B3FB11480021001D0068761C00590C34C0190160416081600C48001D00680159B1426B
:406A800000D100260849009A091D865008684159491E4151FDF7B2FF0020FEBD3046FEBDFDF7ACFFFAE70000E00C0020FEB504460D4600201E49089E0860471E009001904D
:406AC0000290002C11D0486885420ED2002A0CD0002E0AD0642E08D808460C3001681C2068430C18207A002801D03846FEBD0120226020721846FFF7DDFE6060401C13D0F3
:406B00006681A6810A4827610C3067610179A94200D205710021684601810A462846029B00F040F82846FEBD00202072DDE70000EC0C002038B50124009400F039F838BD75
:406B4000FEB50027164EFF433D4600240EE01C20316860430818017A002906D04068FFF721FF002801D0254603E0641C3079A042EDDA681C12D01C2130684D434419FDF7FB
:406B800045FF69466068FFF741FF0546FDF736FF002DD9D1216868468847D5E7FEBD0000F80C002038B50024009400F001F838BD1FB500220C49541E0A60002811DB496889
:406BC00088420ED808491C220C31096850430818406801A9FFF7A0FE401C02D0002004B010BD2046FBE70000EC0C0020F0B50021114A4D1E174611710C3F0B46BD6016E0C6
:406C000008461C2460431668041D355114680646235014680836A3551468361DA353044616680A34335318301468491C255078688142E5D30020F0BDF80C002038B50021C8
:406C40000091002811DB0F49097888420DDA0D4D04010C3529680859002807D0201D0818694600F06FF9002801D0002038BDFDF7CDFE28680F34015D491E0155FDF7BEFE85
:406C8000009838BD080D0020F7B582B0002502986E1E06602E48D21C024017462D4A2C4610460C380178106805E02301C358002B0FD0641CE4B28C42F7D3711C28D0340176
:406CC000211D40180191039900F02AF900281FD101E02646F1E71F48016820460C300F521C480399026820460E30115419480399026820460F3011540398784300F0A0F8EB
:406D0000144900280968085102D00024009011E001251AE00F48016801980818009900F02CF9002801D0012502E00098C0190090641CE4B203988442ECD3002D05D1029871
:406D4000066004480179491C0171284605B0F0BDFCFF0000140D0020F8B50D4600216A468C461180002839DB23490978884235DA214B04010C3319680A59002A2ED02046AC
:406D80000C300B5A801C0E5C184670438018954224D3854222D2002006E007465F43BF18AF4206D0401CC0B2B042F6D36046002814D0114E271DC8190C366A46294600F057
:406DC00006F900280AD168460088012808D030682946C01900F0D1F8002803D00120F8BD0020F8BDFDF712FE30680F34015D491C0155FDF703FEF3E7080D0020F8B50F461D
:406E0000002400F031F8002817D10C4900220B460C334A600EE021011D680E466A501D680C36AA53B61C1D680F31AA551D68641C6A54E4B2BC42EED31A71F8BD080D0020CA
:406E400000280BD0C01C074A81085068890053884118994203D89368516018187047002070470000080D0020F8B5064600200F4D009029700C0121466846FEF74DFC002869
:406E80000CD129460C3100980860301B001F84B221466846FEF740FC002801D0FF20F8BD6C800098A8600020F8BD0000080D0020F8B5002827DB19490978884223DA174C1C
:406EC00005010C342168485900281CD028460C30085A009028460E300E5C401C0E5420682F1DC01900F064F800280CD12068002445590EE0094829460C300068C01900F03B
:406F00003CF8002801D00120F8BD00982D18641CE4B2B442EED30020F8BD0000080D002030B50D4604000BD0A800FFF789FF6060002805D000202570C0436080002030BDFB
:406F4000012030BD70B50D46040005D0002D03D00220205E002801DA012070BDFDF756FD0221615E60688900405828606088401E6080FDF743FD002070BD70B50D46040004
:406F800007D0002D05D002212078615E401E814201DB012070BDFDF739FD6088401C00B26080616880000D50FDF728FD002070BD10B5040009D0227800216068FEF70CF908
:406FC0000020C0436080002010BD012010BDF0B500231D46002802D00224045F0AE00120F0BD46689F00F6598E4201D1012503E05B1CDBB29C42F4DA15700020F0BD000004
:4070000001480078704700001C0D00207CB505460024FEF715F9A8796946087000A8062229460130FEF7CFF80021684606F00EF80C2806D0072806D01F2806D0122806D071
:4070400006E0022404E0042402E0272400E0012420467CBD10B500F087F9FFF703FAFFF707FA10BD70B504460025FEF7E9F8002C06D0A079012803D8214603F01FFA00E05F
:407080000125284670BD01460120002902D05020088000207047000001460120002905D0034854220078504308800020704700001E0D002010B502460D49FE2048700324A1
:4070C00010460FF0FBFB002810D10FF09FFB00280CD106F03DFF002808D100F061FB002804D106F0B3FA002800D10024204610BD1C0D002070B50025044600280ED0A07933
:4071000001280BD8FEF79CF8A0790028204602D003F0BAFD03E003F08FFD00E00125284670BD0000014610B50120002904D006220248FEF748F8002010BD0000280D002081
:4071400001460120002903D00878024908700020704700001E0D00200148007A70470000C01600201CB5FF206946087100200870FEF766F86A4601A90620FFF795F8694621
:40718000002008561CBD000038B504460120002C20D0617801291DD800290BD0FF25E535FEF74EF80C4828180088C0B22070072803D00EE0FF25CD35F2E70020694608703B
:4071C0006846FFF769F969460878012801D108202070002038BD000000102E40014A0021926810471C0D002008B500226B461A7026280CD0094A342852680BD0352805D153
:40720000900703D50021352006F07EFF08BD19462620F9E7D007F9D03420F5E71C0D00200149087270470000C0160020F8B504460120002C26D06178012902D92278092A3D
