:400000000040002011000000810C0000810C000080B500AF00F03EFE80B500AF294B12221A6002F02BFA284B180002F0EDFA012002F034FA302001F0EBFF244B244A1A60E1
:40004000244B8022D2051A60234B234A126802210A431A60214B224A1A60224B00221A60214B214A126808218A431A60FA23DB00180002F01BF81D4B180002F04FF91C4B8D
:40008000E82252011A601B4B1B4A1A601B4BC82252011A60174B1A4A1A601A4B802212061A60194B8022D2021A60184B41221A60174B40221A60074B8022D2051A60C04611
:4000C000BD4680BD30001040001BB70004010B40060000800C020B4078002E407C002E406A2D000064F02E406CF02E40DC050000040301400000014041FF008000030140DE
:4001000040FF008008010B4000010B40080101400401014080B582B000AF72B63A4B00221A60FB1D00221A7022E0FB1D1A7813005B009B185B00354A9B183B603B681A7883
:40014000597809020A43997809040A43DB781B06134318003B681A795B791B0213439BB2190000F069FDFB1D1A78FB1D01321A70FB1D1B78012BD8D9254BEE2212061A60B7
:40018000244B992212041A60234BEE2212041A60224B992212041A60214B992212041A60204B992212041A601F4B992212041A601E4A1E4B1B78DBB206210B43DBB2137027
:4001C0001B4BD82212041A601A4B20221A601A4BC42292021A60194B20221A60184B20221A60184BC02292021A60174BB0221A60164B174A1A60FFF70FFF00F02DFDC046F5
:40020000BD4602B080BDC0466CF02E40B069010000000240000102400003024000500F4010500F4020500F4030500F4000700F400800044000010440080104401801044042
:40024000000204400802044000030440080304400040820010B5064C2378002B07D1054B002B02D0044800E000BF0123237010BDA81000200000000010670100084B10B5B9
:40028000002B03D00749084800E000BF07480368002B00D110BD064B002BFBD09847F9E700000000AC10002010670100A80B00200000000080B500AF02F09AF9C046BD46DF
:4002C00080BDC04680B500AF00F09EF800F072F900F002F8FCE7C04680B500AF2C4B1B78012B24D002DC002B05D045E0022B2FD0042B37D040E0274B180001F0AFFB244BFC
:4003000001221A70FA235B00180001F0E1FFFA235B00180001F0DCFFFA235B00180001F0D7FFFA235B00180001F0D2FF2CE01A4B180001F093FB01F0C7FB00F095F801F081
:40034000D5FB052001F0C4FF114B02221A701BE000F02AF8114B180001F080FB0C4B04221A7011E000F0E2F80D4B180001F076FB074B00221A7007E00A4B180001F06EFB9D
:40038000034B00221A70C046C046BD4680BDC046402200201467010024670100346701004C6701006467010080B582B000AF00F001F900F0ABF8052001F08AFF00237B601B
:4003C0000E4B01221A6011E00D4B1B78DBB2012B04D000F007F97B6801337B60094B180001F03CFB00F03EF904F0D4FB034B1B68002BE9D1C046BD4602B080BD2C22002022
:40040000842200209067010080B500AF104B00221A70104B00221A600F4B00221A600F4B00221A600E4B00221A600E4B00221A700C4B00221A710B4B00225A70094B00227A
:40044000DA70084B00229A70C046BD4680BDC04654220020602200205822002038220020702200206422002080B500AFFA235B00180001F02DFFFA235B00180001F028FF8A
:4004800000F072FB0300DAB21D4B5A70FA235B00180001F01DFF00F0EBFA0300DAB2184B9A70174B0322DA70154B02221A70154B1A78134B1A71134B1B780133DAB2114BE9
:4004C0001A70104B1B78F92B02D90E4B00221A700B4B5A780C4B5A71094B9A780A4B1A71074BDA78084BDA70054B1A78064B9A70034B1A79044B5A70C046BD4680BDC0462C
:4005000064220020542200204422002080B500AF054B180000F060FC00F0A4F804F03AFBC046BD4680BDC0469907000090B583B000AF022004F026FB032004F023FB1B4BC7
:40054000180001F0F3FF052001F0C2FEFC1D02F064F803002370BC1D06F01EFB03002370BB1D1B78062B03D0BB1D1B78042B0CD1002001F0B3FF01F0FFFE012001F0AEFFD9
:4005800003E00B4B180001F069FA04F0FFFA0300012BF6D1FB1D1B78180002F042F804F0F9FAC046BD4603B090BDC046B5020000C067010080B500AF62B600F0F9FF074BB9
:4005C000180001F04BFA064B180001F047FA034B180001F043FAC046BD4680BDD4670100F467010080B584B000AF3B1D174A1A603B1D06229A803B1D0E221A81144B180021
:4006000001F02CFA391D134B1A785B781B021A4300231204120C1B0C1B041343180010F0C9F903001A000C4B1A6004F0B3FA0B4B00221A60084B1B68002B03D0084B1B7808
:40064000022BDBD0C046BD4604B080BD442200201468010088220020502200202C2200208022002080B584B000AF3B000C22BA181A603B0002229A803B000222DA803B00DF
:400680000F221A813A4B1B78042B60D89A00394BD3181B689F46384B1A78354B1B789A4257D0364B180001F0D9F952E0324B1A782F4B1B789A4203D0314B180001F0CEF9AE
:4006C00030493B000022180011F0FCFB2E4B1B78DBB2012B3FD00C23FB181B789BB2180000F0B0F837E0244B1A78214B1B789A4203D0264B180001F0B1F90C23FB18002220
:400700001A700C23FB1800225A70002000F0F8FB00F060FF01F07AF800F0DEFF00F048FF1EE0154B1A78124B1B789A4215D0184B180001F093F910E00F4B1A780C4B1B78E9
:400740009A420CD0134B180001F088F907E0C04606E0C04604E0C04602E0C04600E0C046034B1A78044B1A70C046BD4604B080BD80220020BC68010074220020206801006F
:400780004068010088220020842200206068010080680100A068010080B582B000AF786039607B68412B16D004D8012B09D0282B0CD034E04C2B2DD04E2B11D0432B18D041
:4007C0002DE0194B180001F049F928E0174B180001F044F923E0164B180001F03FF91EE0144B180001F03AF93B68180000F02CF915E0114B180001F031F93B685B88162B34
:4008000004D83B685A880D4B1A8008E00B4B17221A8004E00A4B180001F020F9C046C046BD4602B080BDC046D0680100EC680100186901003C69010064690100AC0B00209A
:400840008C690100F0B58FB000AF0300162038189C466346038068463861774800880338431E9C4663463B630300BB600023FB60BB685B0F9C46FB68DA0063461A43BB6894
:40088000D90002001500002216006A0FF3007B607B6813437B60EB003B6003000733DB08DB006A46D31A9D466B460033FB6200F0EFFE0200242310218C46BC4463441A8009
:4008C000242310229446BC4463441B88002B00D1ABE01623FB181B88012B00D0A5E0242310229446BC4463441A88534B1B88033B9A420DDB514BFA2292001A804E4B1A8866
:40090000242310218C46BC446344033A1A8010E04A4B1B88013B9AB2484B1A80474B1B88002B06D0242310229446BC44634400221A80242310229446BC4463441B88002B5E
:4009400073D03E4BFA2292001A80272310229446BC44634400221A7018E0272310229446BC4463441C7801F045F80300DAB2FB6A1A55272310229446BC4463441A782723C7
:4009800010218C46BC44634401321A70272310229446BC4463441B789BB2242210218C46BC44624412889A42D7D8FA6A0C2310218C46BC4463441A600C2310229446BC44ED
:4009C0006344242210218C46BC44624412889A800C2310229446BC4463440E221A811A231022BA18D4180C231022BA18D118144B1A785B781B021A4300231204120C1B0CFB
:400A00001B04134318000FF0D5FF0300238004F0C1F81A2310229446BC4463441B88002B03D0084B1B78022BD9D03B699D46C046BD460FB0F0BDC046AC0B0020AE0B002004
:400A4000882200208022002080B582B000AF78607B689B89112B07D17B685A687B681B891900100000F0B8FEC046BD4602B080BDB0B500AF344900230122402001F01EF9AF
:400A8000C04601F04BFA020002231340F9D001F067FA052001F01CFC2C4900230422402001F0A0F9C04601F039FA020001231340F9D001F055FA254B1B781B02234A52788C
:400AC0001A43234B1A60224B1B68180002F0E0FF021C204B1A601F4B1B68181C03F0EEFD1D4A1E4B03F01CF803000C001800210003F038FE021C174B1A60164B1B688F2100
:400B0000C905181C02F0EEFB031C1A1C114B1A60104B1B68181C03F0D1FD114A114B03F079FA03000C001800210003F01BFE021C084B1A60074B1B68181C02F0BBFB0300CA
:400B4000DBB21800BD46B0BDB00B0020C41000202822002030220020D7A3703D0AF76540CDCCCCCCCC6C474080B500AF2C4900230122402001F0A2F8C04601F0CFF90200AD
:400B800002231340F9D001F0EBF9052001F0A0FB244900230422402001F024F9C04601F0BDF9020001231340F9D001F0D9F91D4B1B781B021B4A52781A431B4B1A601A4BAF
:400BC0001B68180002F064FF021C184B1A60174B1B681749181C02F09FFC031C1A1C134B1A60124B1B688F21C905181C02F07AFB031C1A1C0D4B1A600C4B1B680D49181C53
:400C000002F09EFD031C1A1C084B1A60074B1B68181C02F04FFB0300DBB21800BD4680BDBC0B0020C81000204C220020142200200000FA420000C04080B582B000AF7860EB
:400C400039603A687B680021180003F063FFC046BD4602B080BDC04680B500AF054B03221A60054B03221A60044B00221A60C046BD4680BD3000304030003140000E3F4009
:400C800080B500AF03F002FF03001B680C2B00D1FEE7FEE780B586B000AF224B7B61224B3B61204B7B6135E03B691B68FB603B695B68BB603B699B683B6000237B600CE00C
:400CC000FB681A68BB681A60BB680433BB60FB680433FB607B6804337B607A683B689A42EED13B69DB683B6000237B6008E0BB6800221A60BB680433BB607B6804337B6062
:400D00007A683B689A42F2D13B6910333B617B69013B7B617B69002BC6D103F0BDFEFFF7D1FAFEE701000000886E010080B582B000AF154B144A126801218A431A60002344
:400D40007B600FE07B68032B04D8104B7A689200D35800E00E4B0F4A796889008B507B6801337B607B682F2BECD9FFF7D3F90A4B00221A60044B044A126801210A431A6044
:400D8000C046BD4602B080BD0000104000000000810C000000000020C000002080B500AF064B00221A70064B00221A70054B00221A7000F009F8C046BD4680BD8B22002080
:400DC000842200208A22002080B500AF00F0D0FBC046BD4680BDC046B0B594B004AF78603E23FB1800221A802823FA183D4B1000190014231A0003F084FE3B4B1B78002BFA
:400E000004D1FFF7CBFF384B01221A707B68002B5CD0364B7A681A603E23FB181B88002B29D11023FB181C22BA185A601023FB182022BA181A601023FB1800221A81202370
:400E4000FB181B221A802023FB181B225A802023FB1804221A711C23FB1800221A703E23FC180E23FA181023FB181100180003F06DFF030023803E23FB181B88002B29D1AE
:400E80003E23FC182823FD18AE231A01184919480023029300230193052300932B0003F0ABFE030023803E23FB181B88002B11D1114B01221A703E23FC18104B14221121B3
:400EC000180010F0E7FF0300238003E03E23FB1801221A803E23FB181B881800BD4610B0B0BDC046BC690100CC10002078220020C80000203912000080220020086A010091
:400F000090B585B000AF0200FB1D1A70FB1D1B78022B04D90E23FB1801221A804AE0294B1B78042B41D1284B1B78DBB21A00042313403AD1FB1D1B78002B0BD1234B0A223E
:400F40001A82224B5B6820221A80204B5B68A0225A8010E0FB1D1B78012B0CD11B4B96221A821A4B5B68C822D2001A80174B5B688022D2015A80164BFA1D12781A700E23F2
:400F8000FC18124B18000EF06DFB030023800E23FB181B88002B0DD10B4B1B78DBB204221343DAB2084B1A7004E00E23FB180422FF321A800E23FB181B881800BD4605B081
:400FC00090BDC046802200208B220020140C00208A22002080B584B000AF78600A00FB1C1A700023BB60BB68002B20D07B689A79BB681A700F23FB1800221A7012E00F2334
:40100000FB181B780133BA68D3180F22BA18127879688A5C1A700F23FB181A780F23FB1801321A700F23FB181B78052BE7D9C046BD4604B080BDC04680B582B000AF78605C
:401040007B681B789AB27B6801331B789BB21B029BB213439BB21800BD4602B080BDC04690B585B000AF78600F23FB1800221A707B689B890B22934232D17B68181D7A68A2
:401080000F23FC184023002110F056FF030023700F23FB181B78002B1AD17B685B681800FFF7CAFF03001A00022313409BB2002B07D00F4B1B687968822252001000984789
:4010C00006E00B4B1B6879680622FF3210009847084B1B78DBB201229343DAB2054B1A700F23FB181B781800BD4605B090BDC046782200208B22002090B585B000AF7860B3
:401100000F23FC187B681800FFF7AAFF03002370154B1B78DBB21A00012313401FD10F23FB181B78002B16D00823FB1812229A707B689A890823FB181A800823FB180F2286
:40114000BA181278DA700823FA187B68110018680FF0F2FB03E07B6818680FF077FCC046BD4605B090BDC0468B22002080B582B000AF7860C046BD4602B080BD80B500AFCC
:40118000044B00225A70034B00221A70C046BD4680BDC0468822002080B582B000AF7860C046BD4602B080BD80B500AFC046BD4680BDC04680B584B000AF78600E23FB189A
:4011C00000221A707B689B79002B1CD10F23FB1800221A7012E00F23FB181B787A68D35C002B04D00E23FB1801221A700BE00F23FB181A780F23FB1801321A700F23FB186F
:401200001B78052BE7D90E23FB181B781800BD4604B080BD80B582B000AF0200BB1D1A80C046BD4602B080BD80B582B000AF7860C046BD4602B080BD80B588B000AF0200C2
:401240003960FB1D1A70BE4B1B78DBB201221343DAB2BB4B1A70FB1D1B78712B00D94EE19A00B84BD3181B689F461423FB1807221A701423FB1800225A701423FB181800A1
:4012800005F0EAFC1423FB1807221A701423FB1801225A701423FB18180005F0DDFC0023002B01D003F06AFCA74B1B681800FFF781FF031E11D0A44B1B68180003F06EFC8B
:4012C000A14B1B6800211800FFF784FE9E4B1B6801211800FFF77EFE0DE09C4B180003F05DFC9A4B00211800FFF774FE974B01211800FFF76FFE03200EF046F81023FB18D4
:401300003F221A701023FB1800225A701023FB1818000EF057F88E4B04221A70F6E03B681800FFF739FFF1E03B681A78894B1A70ECE03B68BB61BB691B78002B00D0E0E03C
:40134000BB695B78002B0BD1834B0022DA80824B00229A80804B814A1A60BB697E4A5A60774B1B78DBB201229343DAB2744B1A70C7E0734B1B78DBB21A002023134000D0B1
:40138000C1E0774B1B78102B02D1754B0522DA70744B1B78724A110018000EF021F903001A000E23FB181A800E23FB181B88002B06D06D4B1B680E22BA1811003620984743
:4013C0005F4B1B78DBB201221343DAB25C4B1A7099E03B681800FFF727FF97E03B681800FFF722FF5A4B02221A708FE0584B04221A708BE0564B1B78022B00D185E0504BA2
:401400001B78DBB21A000123134000D17DE04C4B1B78DBB21A00042313400BD04C4B03221A70474B1B78DBB204229343DAB2444B1A706AE0424B1B78DBB21A00082313407F
:401440000BD0434B04221A703D4B1B78DBB208229343DAB23A4B1A7057E03D4B1B78032B53D13B4B04221A70404B1B78002B4CD10120FFF745FD031E47D1354B03221A700F
:4014800043E03B681B881800FFF7C4FE3EE0354A3B681000190002231A0003F032FB2D4B00221A70FFF780FE30E0FFF767FE2DE03B685B88162B05D81E23FB183A685288A7
:4014C0001A8003E01E23FB1817221A801E23FB1819883B681A8800231204120C1B0C1B04134318000FF032FA10E03B681800FFF703FE0BE03B681800FFF738FE06E0C04678
:4015000004E0C04602E0C04600E0C0460C4B1B78DBB21A00112313400ED0094B1B78DBB201229343DAB2064B1A700F4B1B68FA1D1278396810009847C046BD4608B080BD1D
:401540008B220020686B0100300C0020280C00208022002084220020D0100020A80B0020D00C002088220020782200208A22002080B500AFC046BD4680BDC04680B500AF5F
:4015800000F078F9C046BD4680BDC04680B500AF064B064A1268802109060A431A6000F033F800F039F8C046BD4680BD0000244080B500AF064B1B78002B04D1FFF7DEFF87
:4015C000034B01221A70FFF7E1FFC046BD4680BDD810002080B500AF092000F041FE00F023F8074B064A1268520052081A60054B00221A60092000F049FEC046BD4680BDB1
:4016000000002440880F244080B500AF092000F011FEC046BD4680BD80B500AF00F0B4F9C046BD4680BDC04680B500AF00F0C6F9C046BD4680BDC04680B582B000AF002314
:401640007B600F4B1A680F4B1B689A4212D00D4B1B6801333B603B680B4A934201D100233B600A4A3B68D3181B78DBB27B60054B3A681A607B681800BD4602B080BDC046D5
:401680009C3200209422002001080000982A002080B582B000AF0D4B1B683B600C4B1B683A689A4205D30A4B1B683A68D31A7B6007E0074B1B683A68D31A064A9446634461
:4016C0007B607B681800BD4602B080BD9C320020942200200108000080B500AF092000F0BFFD0E4B1A680E4B1A600E4B00221A700D4B0D4A1268802149020A431A600A4BB8
:40170000094A126809490A401A60094B094A1A60092000F08FFDC046BD4680BD942200209C3200209932002004032440FFFFFEFFC00F2440ED0F000080B584B000AF786086
:401740001E4B1A681E4B1B689A4209D11D4B1B681F221340082B03D01B4B7A681A6028E0164B1B680133FB60FA6880231B019A4201D10023FB60C046114B1B68FA689A42AA
:40178000FAD0124B02221A607B68D9B2104AFB68D3180A1C1A70094BFA681A600D4B1B680222134005D10B4B0A4A126802210A431A60C046BD4604B080BDC0469022002066
:4017C0008C2200200802244040022440800F244098220020880F244080B584B000AF786039600023FB6009E07A68FB68D3181B781800FFF7A1FFFB680133FB60FA683B68E7
:401800009A42F1D3C046BD4604B080BD80B500AF092000F025FD104B1A68104B1A60104B0F4A126802218A431A600E4B0D4A1268802149020A431A600A4B0A4A12680A4952
:401840000A401A60094B0A4A1A60092000F0F2FCC046BD4680BDC0468C22002090220020880F244004022440FFFFFEFF800F2440F307000080B500AF294B2A4A1A602A4B87
:4018800000221A60294B2A4A1A602A4B2A4A1A602A4B07221A602A4B00221A60294B01221A60294B244A1A60284B00221A60284B04221A60092000F0D3FC0321092000F0EA
:4018C00065FC244B1900092000F03AFC224B00221A60224B00221A60214B00221A60214B00221A60204B04221A60204B00221A601E4B1B689AB21E4B1A801E4B00221A603C
:401900001D4B00221A601D4B00221A701C4B00221A601C4B00221A60C046BD4680BDC046000024400F000002400024404800244001000A0000032440070000800403244014
:40194000100324404400244000022440040224405000244029260000880E2440C80E2440480F2440080F2440C80F2440880F2440DA1000209C32002094220020993200201C
:40198000902200208C22002080B500AF074B074A126807490A40902109040A431A60054B054A12881A60C046BD4680BD00010240FFFF0FFF880F2440DA10002080B500AF36
:4019C000084B084A126808490A401A60074B1B689AB2E423DB0013409AB2054B1A80C046BD4680BD00010240FFFF0FFF880F2440DA10002080B582B000AF092000F030FC32
:401A0000FFF746FE031E07D0092000F013FCFFF713FE03007B6008E00E4B1B687B600E4B04221A60092000F005FC0B4B1A68D8239B0013403B60084BD82292001A603B685D
:401A40001B027A6813437B607B681800BD4602B080BDC04640032440C00F244080B584B000AF78600023FB6009E07A68FB68D3181B781800FFF760FEFB680133FB607A680F
:401A8000FB68D3181B78002BEFD1C046BD4604B080BDC04680B500AF00F058F8C046BD4680BDC04680B500AF064B064A1268802109060A431A6000F033F800F039F8C04632
:401AC000BD4680BD0000254080B500AF064B1B78002B04D1FFF7DEFF034B01221A70FFF7E1FFC046BD4680BDE010002080B500AF0A2000F0B5FB00F021F8074B064A1268AC
:401B0000520052081A60054B00221A600A2000F0BDFBC046BD4680BD00002540880F254080B500AF0A2000F085FBC046BD4680BD80B500AFC046BD4680BDC04680B500AF42
:401B400000F070F8C046BD4680BDC04680B500AF204B00221A60204B204A1A60204B214A1A60214B00221A60204B00221A60204B1C4A1A601F4B00221A600A2000F070FB52
:401B800003210A2000F002FB1B4B19000A2000F0D7FA1A4B00221A60194B00221A60194B00221A60184B00221A60184B00221A60174B00221A60174B10221A70164B0022E2
:401BC0001A80164B00221A60154B00221A60C046BD4680BD0000254060002540FF08008000032540070100800403254010032540000225400402254049270000C80E25400A
:401C0000880E2540480F2540080F2540C80F2540880F2540A0320020AE320020B4320020A832002080B500AF054B00221A60054B00221A60044B10221A70C046BD4680BD3A
:401C4000680025406C002540A032002080B500AF124B124A1268520052081A60104B00221A60104B00221A600F4B0F4A12680F490A401A600E4B00221A600E4B00221A6076
:401C80000D4B10221A70054B044A1268802109060A431A60C046BD4680BDC04600002540680025406C00254060002540FF5CFFFF880F2540C80F2540A032002080B586B07F
:401CC00000AFF860B9607A603B6004237B61BB68002B20D0344B1B78DBB2102B0CD10A2000F0BEFA314B1B680122134001D0082300E000237B610EE02B4B1B78DBB2602B26
:401D000009D12B4B1B889BB2082293439AB2284B1A8000237B617B69002B3CD1224B28221A70244B00221A60234B00221A60234B7A681A60224BBA681A603B68DAB2214B2B
:401D40001A70FB685B00FF221340FB60184B1B889BB2022293439AB2154B1A801A4B40221A601A4B1A4A1A601A4B1422FF321A60194B40221A603B680122134005D000F0D1
:401D800007F9164BFA681A6005E0144BFA681A60134B02221A600A2000F04CFA7B691800BD4606B080BDC046A032002064002540AE320020A4320020A8320020B0320020C5
:401DC000B8320020AC320020800F2540000F254017030000080F2540880F2540400225406800254080B586B000AFF860B9607A603B6004237B61BB68002B20D0394B1B7815
:401E0000DBB2102B0CD10A2000F02AFA364B1B680122134001D0082300E000237B610EE0304B1B78DBB2602B09D1304B1B889BB2082293439AB22D4B1A8000237B617B69D0
:401E4000002B47D1274B29221A70294B00221A60284B7A681A60284BBA681A603B68DAB2264B1A70FB685B00FF22134001221343FB601E4B1B889BB2012293439AB21B4BB6
:401E80001A801F4B1F4A1A601F4B1422FF321A60184B1B68072B03D81C4B04221A6009E01B4B1B4A1268802149000A431A60174B08221A603B680122134005D000F068F8D3
:401EC000144BFA681A6005E0124BFA681A60124B02221A600A2000F0ADF97B691800BD4606B080BDA032002064002540AE320020B4320020C0320020BC320020AC320020FD
:401F0000000F254017030000080F2540C80F254060002540400225406800254080B582B000AF0A2000F09CF90B4B1B889BB27B600A4B1B78DBB220221340DBB2002B03D0A7
:401F40007B68042213437B600A2000F073F97B681800BD4602B080BDAE320020A032002080B582B000AF0A2000F07AF9074B1B889BB27B60054B00221A800A2000F05AF989
:401F80007B681800BD4602B080BDC046AE32002080B582B000AF01237B60094B1B682022134001D0082300E000237A6813437B60044B7A681A60C046BD4602B080BDC046F2
:401FC000640025406800254090B585B000AF78600F23FC1800F021FB030023700A4B7A68D104E02292031140074A1268074802400A431A600F23FB181B78180000F011FB5F
:40200000C046BD4605B090BD00010B40FFFFC7FF90B58BB000AF78602723FC1800F0FDFA03002370194B1A680C23FB181A60184B1A680C23FB185A607B68033B154AD35C71
:402040001A000C23FB189A60134B1A680C23FB18DA601C23FB18114A1A600C23FA181C23FB185A600E4B1C22BA181A600D4B0E4A1A600B4B1B682723FB181B78180000F05C
:40208000D0FAC046BD460BB090BDC04608010B4000010B40306D010030001040B6EA000008001040040010401700008080B584B000AF78600023FB60154B154A12680121D5
:4020C0000A431A60134B144A1A60144B134A1268802109020A431A607B68002B12D01023FB600CE0012000F019F900F019F8031E02D00023FB6005E07B68013B7B607B6879
:40210000002BEFD1FB681800BD4604B080BDC04660F02E4078002E400220000010002E4080B582B000AF054B1B68012213407B607B681800BD4602B080BDC0460C002E4054
:4021400080B584B000AF02003960FB1D1A7080239B05FB60FB1D1B781F2B02D9002000F0ABF8FB1D1B7810339B00FA68D3181B68BB60FB1D1B7810339B00FA68D3183A68FD
:402180001A60BB681800BD4604B080BD90B587B000AF0200FB1D1A70BB1D0A1C1A70BB1D1B78032B02D9002000F086F8FB1D1B781F2B02D9002000F07FF8FB1D1B780322F6
:4021C0001340DB0006337B611323FC1800F025FA03002370FB1D1B789B08DBB29B00144A944663441B68FB6003227B699A401300DA43FB681340FB60BB1D1A787B699A402E
:402200001300FA681343FB60FB1D1B789B08DBB29B00074A94466344FA681A601323FB181B78180000F0FDF9C046BD4607B090BD00E400E080B582B000AF0200FB1D1A70EF
:40224000064BFA1D12781F210A40012191400A001A60C046BD4602B080BDC04600E100E080B582B000AF0200FB1D1A70064BFA1D12781F210A40012191400A001A60C046F9
:40228000BD4602B080BDC04680E100E080B582B000AF0200FB1D1A70064BFA1D12781F210A40012191400A001A60C046BD4602B080BDC04680E200E080B582B000AF0200E0
:4022C000FB1D1A7001BEC046BD4602B080BDC04680B582B000AF786009E00D4B1B68180000F092F97B680B4A944663447B607A6880231B029A42F0D8074B1B687A68534313
:40230000180000F081F9C046BD4602B080BDC046E40C00200080FFFFDC0C002080B582B000AF0200BB1D1A80BB1D1B88044A12785343180000F068F9C046BD4602B080BDB3
:40234000E00C002090B583B000AFFC1D00F065F903002370074B074A126804218A431A6030BFFB1D1B78180000F05BF9C046BD4603B090BD10ED00E090B583B000AFFC1D88
:4023800000F04BF903002370114B114A1268520052081A600F4B104A128892B21A600F4B0E4A126804210A431A600D4B1B683B600220FFF709FE30BF094B3A681A60FB1DCC
:4023C0001B78180000F02DF9C046BD4603B090BD00000B400C000B4052F1FF0F10ED00E000010B4080B500AF0F4B0F4A126801218A431A600C4B0C4A126802218A431A60EC
:402400000A4B0A4A126830218A4310210A431A60064B064A126807218A4301210A431A60C046BD4680BDC04600F02E4000FF2E4080B500AF0F4B0F4A126802218A431A60D8
:402440000D4B0D4A126807218A4302210A431A60094B094A126830218A4320210A431A60044B044A126801210A431A60C046BD4680BDC04600F02E4000FF2E4080B500AF12
:40248000FFF7B0FF044B044A1268802109060A431A60C046BD4680BD00F02E4080B584B000AF78600C4B1B6801221340FB607B68002B02D0012B03D005E0FFF793FF06E078
:4024C000FFF7B6FF03E00020FFF7F6FEC046FB681800BD4604B080BD00F02E4080B584B000AF0200FB1D1A700F4B1B68DAB20F23FB1820218A431A70FB1D1B785B01DBB2DB
:4025000020221340D9B20F23FB180F22BA1812780A431A70044B0F22BA1812781A60C046BD4604B080BDC0460002044080B582B000AF786000F050F87B68180000F00AF823
:40254000032000F015F800F03BF8C046BD4602B080BDC04680B582B000AF7860034B7A681A66C046BD4602B080BDC0460000002090B585B000AF0200FB1D1A700623FB600D
:402580000B23FC1800F049F8030023700B4B0B4A1268C0218A431100FA1D1078FA68904002000A431A600B23FB181B78180000F038F8C046BD4605B090BDC04608E400E0AB
:4025C00080B500AF034B802252001A60C046BD4680BDC04600E100E080B500AF034B802252001A60C046BD4680BDC04680E100E080B500AF034B802252001A60C046BD4658
:4026000080BDC04680E200E00230800803D00138FDD1C046C046C0467047EFF3108072B6704780F31088704780B582B000AF344B1B68002B02D0324B1B689847314B1B68B2
:402640000422134027D0304B1B6801337B607B682E4A934201D100237B602D4B1B687A689A4205D12B4B1B682B4B20221A700AE0284B1B68D9B2294A7B68D3180A1C1A70B7
:40268000214B7A681A60264B1B681F221340DAD1244B04221A60244B1B68022213402BD0224B1A68224B1B689A4215D0204B1B6801333B603A6880231B019A4201D100231D
:4026C0003B601C4B1C493A688A181278D2B21A60174B3A681A6006E0184B184A126802218A431A6005E0164B1B681F221340082BD6D1144B02221A60C046BD4602B080BD6E
:40270000DC100020CC0F24409C32002001080000942200204003244099320020982A002008032440C00F24408C0F2440902200208C2200204002244098220020880F244051
:4027400008022440800F244080B582B000AF00233B60C04B1B68002B02D0BE4B1B689847BD4B1B680122134002D0BC4B00221A60BB4B1B78DBB220221340DBB2002B38D03D
:40278000B84B1A6880235B0013400AD0B64B1B889BB2C022920013439AB2B34B1A8001233B60B04B1B68012213400AD0AE4B1B889BB29022920013439AB2AB4B1A800123BA
:4027C0003B603B68002B14D0A54B1B78DBB201221340DBB2002B01D0012300E00223A24A128892B213439AB29F4B1A809C4B00221A709B4B1B78DBB220221340DBB2002B7E
:4028000000D1A4E1974B1B681022134018D0974B10221A60924B1B78DBB201221340DBB2002B01D0012300E002238F4A128892B213439AB28C4B1A80894B10221A7090E1F2
:40284000874B1B78DBB208221340DBB2002B29D0844B1B68022213400ED0844B02221A60814B1B889BB28822920013439AB27E4B1A8001233B6015E0794B1B78DBB201226C
:402880001340DBB2002B03D0754B25221A7009E0734B24221A70764B1B68002B02D0754B10221A606E4B1B78DBB204221340DBB2002B00D113E16A4B1B78DBB2012213406B
:4028C000DBB2002B5BD06C4B1B680822134033D06A4B1A686A4B1B681F211940694B1B68CB18D31A7B607B68082B02D908237B601EE07B68002B1BD1634B634A12686349E1
:402900000A401A6008237B6001233B6010E0604B1A685C4B1B68D2185E4B1B68DBB21370584B1B685A1C574B1A607B68013B7B607B68002BEBD11EE04F4B1B680422134091
:4029400019D0534B1A684F4B1B68D218514B1B68DBB213704B4B1B685A1C4A4B1A60494B1A68464B1B689A4203D24B4B04221A6001E001233B60494B494A1A60AFE0394B15
:402980001B680222134032D0384B02221A60454B1B681F221A40434B196880231B020B4001D0012300E00023D2183F4B1B689A1A3D4B1A603C4B1A683C4B1A602A4B1B886B
:4029C0009BB28422920013439AB2274B1A80384B374A1268802149020A431A60344B344A126834490A401A6001233B6077E0324B1B681022134067D020E02B4B1A681C4B8A
:402A00001B689A4221D21A4B1B685A1E264B1B689A4205D1294B40221A60164B40221A60274A284B1968204B1B68CB181B78DBB213601D4B1B685A1C1B4B1A60194B1B68C0
:402A40001F221340082BD8D100E0C0461B4B10221A6044E0E41000208C0E2540880E2540A03200200C0F2540AE320020000F2540B0320020880F2540CC0F2540C032002086
:402A800008032540B432002060002540FFFEFFFFBC3200204003254068002540C00F2540ED0F000008022540A4320020A832002004022540FFFFFEFF8C0F2540800F254074
:402AC00040022540B8320020284B1B684022134005D0274B1A68274B1A6001233B603B68002B3ED0244B244A126824490A401A60234B00221A60234B00221A60224B1B788E
:402B0000DBB202221340DBB2002B15D01F4B1B78DBB201221340DBB2002B01D0092300E00A231B4A128892B213439AB2184B1A80164B60221A7014E0164B174A1268202172
:402B40000A4001D0182200E010221A6009E00F4B1B78DBB210221340DBB2002B01D1FFF775F8C046BD4602B080BDC0468C0F2540A4320020A832002060002540FFFEFFFFF1
:402B8000C80F2540880F2540AC320020A0320020AE320020680025406400254080B582B000AF78600A00BB1C1A80BB1C1A887B681A60C046BD4602B080BDC04680B582B0B3
:402BC00000AF78600A00BB1C1A80BB1C1A887B681A60C046BD4602B080BDC04680B584B000AF494B1B78DBB21B02484A1278D2B21343FB60464B1B78DBB21B02454A1278DE
:402C0000D2B21343BB60BB68434A934207D1FB68072B04D1414BBB600423FB6009E0BA68D4231B019A4204D1FB68042B01D13B4BBB603B4BBA681A603A4BFA681A603A4BD3
:402C40001B78DBB21B02394A1278D2B21343FB60FA6880239B019A4202D0FB68002B01D1334BFB60334BFA681A60334B1B78DBB21B02324A1278D2B21343FB60FB68304A20
:402C8000934206D0FB682F4A934202D0FB68052B01D12D4BFB602D4BFA681A602C4B1B681B097B602B4B1B68AA2B29D17B68012B26D9214B1B78DBB20E2B21D1264B1B78D0
:402CC000DBB29BB21B0299B2244B1B78DBB29AB2BB1C0A431A80224BBA1C12881A60214B1B78DBB29BB21B0299B21F4B1B78DBB29AB23B000A431A801C4B3A0012881A60B4
:402D0000C046BD4604B080BDD9F0FF0FD8F0FF0FDFF0FF0FDEF0FF0F580B0000580D00006C002E4074002E40DBF0FF0FDAF0FF0F0220000078002E40DDF0FF0FDCF0FF0F41
:402D40000F0F000005050000050F000080002E40EC0F00F0E00F00F06DF2FF0F6CF2FF0F84002E406FF2FF0F6EF2FF0F94002E4080B582B000AF0200BB1D1A80BB1D1B88B0
:402D80001800FFF7CBFAC046BD4602B080BDC04680B582B000AF78607B681800FFF798FAC046BD4602B080BD80B500AF00F0ECF8C046BD4680BDC04680B500AF00F0F0F819
:402DC000C046BD4680BDC04680B500AF00F0E8F8044B180000F0A2F8032000F0ADF8C046BD4680BDB92F000080B500AF034B180000F080F8C046BD4680BDC046B92F000016
:402E000080B500AF0223FF331800BD4680BDC04680B582B000AF78602B231800BD4602B080BDC04680B582B000AF78602B231800BD4602B080BDC04680B582B000AF786073
:402E40002B231800BD4602B080BDC04680B582B000AF78602B231800BD4602B080BDC04680B582B000AF78602B231800BD4602B080BDC04680B582B000AF78602B23180008
:402E8000BD4602B080BDC04680B582B000AF78602B231800BD4602B080BDC04680B582B000AF78602B231800BD4602B080BDC04680B500AF2B231800BD4680BD80B582B091
:402EC00000AF0200FB1D1A702B231800BD4602B080BDC04680B582B000AF786039602B231800BD4602B080BD80B500AFC046BD4680BDC04680B582B000AF786000F050F8EC
:402F00007B68180000F00AF8032000F015F800F03BF8C046BD4602B080BDC04680B582B000AF7860034B7A681A67C046BD4602B080BDC0460000002090B585B000AF02007B
:402F4000FB1D1A700623FB600B23FC18FFF765FB030023700B4B0B4A1268C0218A431100FA1D1078FA68904002000A431A600B23FB181B781800FFF754FBC046BD4605B090
:402F800090BDC0460CE400E080B500AF034B802252011A60C046BD4680BDC04600E100E080B500AF034B802252011A60C046BD4680BDC04680E100E080B500AF13F094FB9C
:402FC000C046BD4680BDC046002243088B4274D303098B425FD3030A8B4244D3030B8B4228D3030C8B420DD3FF22090212BA030C8B4202D31212090265D0030B8B4219D3A2
:4030000000E0090AC30B8B4201D3CB03C01A5241830B8B4201D38B03C01A5241430B8B4201D34B03C01A5241030B8B4201D30B03C01A5241C30A8B4201D3CB02C01A52414D
:40304000830A8B4201D38B02C01A5241430A8B4201D34B02C01A5241030A8B4201D30B02C01A5241CDD2C3098B4201D3CB01C01A524183098B4201D38B01C01A52414309A1
:403080008B4201D34B01C01A524103098B4201D30B01C01A5241C3088B4201D3CB00C01A524183088B4201D38B00C01A524143088B4201D34B00C01A5241411A00D20146B0
:4030C000524110467047FFE701B5002000F0F0F802BDC0460029F7D076E7704703460B437FD4002243088B4274D303098B425FD3030A8B4244D3030B8B4228D3030C8B42BA
:403100000DD3FF22090212BA030C8B4202D31212090265D0030B8B4219D300E0090AC30B8B4201D3CB03C01A5241830B8B4201D38B03C01A5241430B8B4201D34B03C01AFD
:403140005241030B8B4201D30B03C01A5241C30A8B4201D3CB02C01A5241830A8B4201D38B02C01A5241430A8B4201D34B02C01A5241030A8B4201D30B02C01A5241CDD253
:40318000C3098B4201D3CB01C01A524183098B4201D38B01C01A524143098B4201D34B01C01A524103098B4201D30B01C01A5241C3088B4201D3CB00C01A524183088B427B
:4031C00001D38B00C01A524143088B4201D34B00C01A5241411A00D201465241104670475DE0CA0F00D04942031000D34042534000229C4603098B422DD3030A8B4212D343
:40320000FC22890112BA030A8B420CD3890192118B4208D3890192118B4204D389013AD0921100E08909C3098B4201D3CB01C01A524183098B4201D38B01C01A52414309FA
:403240008B4201D34B01C01A524103098B4201D30B01C01A5241C3088B4201D3CB00C01A524183088B4201D38B00C01A5241D9D243088B4201D34B00C01A5241411A00D28A
:403280000146634652415B10104601D34042002B00D54942704763465B1000D3404201B5002000F005F802BD0029F8D016E770477047C0469E2110B5C905041C01F00EFB79
:4032C000002803D1201C00F0C1FB10BD9E21201CC90500F035FA00F0B9FB80231B069C466044F2E7F0B5564644465F464D46F0B444024600C70F83B08846650A360EBA46B1
:403300003DD0FF2E22D00023EC00802599469B46ED0425437F3E43465C025800DB0F640A000E984636D0FF2830D080230021E400DB041C437F38301A01904846424608434E
:40334000724E800030587A4013008746002D44D108239946063B9B46DDE70122FF2000241A406402C305640AD2071C431443200003B03CBC90469946A246AB46F0BD002D9B
:4033800020D104239946033B9B46C4E7002C17D1022102E0002C0AD10121321A01924A4643460A435A48920082587B409746200001F09EFA431F76309C4040420021BAE74E
:4033C0000321B8E7280001F093FA431F9D4000237630464299469B469DE70C239946093B9B4698E780240022E403FF20B9E70024C2468B465A465346022AAED0032A7DD018
:40340000012A31D1012200201A400024A9E70122101A1B2856DD1A4000200024A1E78023DB031D424BD18023DB032B435C02640A3A00FF2095E76D016001854230D2019A66
:403440000024013A01921B220127290064006D00002901DBA84201D82D1A3C43013A002AF3D16A1E95412C4301987F300028CEDD620704D00F222240042A00D00434220133
:4034800003D5244A019814408030FE2800DD64E70122A401640AC0B21A4062E72C00A9E72D1A1A220124CFE76B02BCD500248023DB031C436402640A4246FF2051E71C4263
:4034C000B3D1F4E721002022C140101A8440621E94410C43620704D00F222240042A00D00434620104D5012201201A40002438E70122A401640A1A40002032E78023DB030A
:403500001C436402640A5246FF202AE7606D0100A06D0100FFFFFFF7F0B557464E4645464300E0B446028846760A1F0EC40F002F47D0FF2F25D0002380259A469946F6000C
:40354000ED042E437F3F434642465D02D20F5B006D0A1B0E904640D0FF2B39D080220020ED00D20415437F3BFB1842465746591C62408C4607430F2F5CD86F49BF00C959B9
:403580008F46002E45D108239A46063B9946DAE7424602282DD0032800D1C3E0012800D0A2E0002500260240D4B27602ED05760A2E43E407264330001CBC90469946A246D6
:4035C000F0BD002E1AD104239A46033B9946BAE72A00511E8A41901CC6E70120002DC3D0280001F085F9431F76309D4043420020BAE70124FF2514400026D6E7300001F03F
:4036000077F9431F9E400023763047429A46994699E70C239A46093B994694E780260024F603FF25C1E735004846B2E7350022004846AEE72904090C0800370C3604360C2E
:403640002C0C7943704367437443060C64183619B14203D980214902884647440004000C310409188D01681E8541890E2943350CED19AD010D43290104D5012369081D40D4
:4036800063460D4319007F31002925DD680704D00F202840042800D00435280103D5274980330D401900FE29A3DC0124AD016E0A1440CDB279E78020C003064207D0054297
:4036C00005D128434602760A4446FF256DE706437602760AFF2568E70124611A1B2905DD14400025002660E76346CBE72E002023CE40591A8D406B1E9D412E43730704D01F
:403700000F233340042B00D00436730104D5012401251440002648E70124B601760A1440002542E780260124F6032E437602760A1440FF2539E7C046E06D0100FFFFFFF75F
:40374000F8B54A024E0043024400240EC50F9B09360EC90F9209FF2E00D183E001204140A01BA9425CD0002800DC95E0002E1CD1002A00D081E05A0704D00F221A40042A66
:4037800000D004335A013BD50134FF2C00D191E001209B015B0AE4B205405B02E4055B0AED0723432B431800F8BDFF2CE3D08021C9040A431B2800DD90E016002021C64032
:4037C000081A8240511E8A4132439B1A5A0115D59B019E09300001F08BF80538864084426CDC041B330020200134E340041BA640721E964100243343BDE70D005A07BCD1B5
:40380000DF0801231D40FF2C33D1002F00D190E08022D20313003B435B025B0AFF24BCE700284FDD002E2ED0FF2CA4D08025ED042A431B2800DD97E016002025C640281A95
:403840008240501E824132439B185A01D5D50134FF2C6DD001227B481A405B08034013430D0088E7002A00D07AE777E7031EC5D100257B025B0AE4B28FE701380028A4D07B
:40388000FF2C97D177E7002A00D174E701380028DAD0FF2CCDD16EE7002821D1601CC0B2012858DD80279E1AFF0437402FD0D61A0D008FE701231D4000236EE7624B241A03
:4038C000334058E7002851D1601CC6B2012E33DDFF282DD09B185B0804004CE7012274E7002C1AD0FF2E1FD08024E404404223431B2800DD96E01D002024C540201A83400B
:40390000581E83412B43D31A34000D005EE7002E00D05FE700250024ABE7002B44D0C0430028F0D0FF2EE3D11300FF240D0022E70D00FF24002330E7002C5DD1002B7DD0BA
:40394000002A00D117E79B185A0100D456E73E4A040013400FE7002C1ED1002B2FD1002A65D013000D0006E701226DE7002C1FD1002B59D0C04300280BD0FF2E4FD01B282C
:403980005EDC1D002024C540201A8340581E83412B439B18340058E7002B1CD1002A49D013000D00FF24E6E6130034000D00E2E6FF2E34D08024E40440422343DFE7002A81
:4039C00000D1D8E68027981AFF04074000D14DE7D31A0D00CFE6FF24002A00D1CBE68020DB08C003034204D0D208024201D113000D00DB00FF24BEE6002B10D0FF24002AA9
:403A000000D1B8E68020DB08C003034203D0D208024200D11300DB000D00FF24ABE61300FF24A8E601236EE713003400A3E6002700251EE780270025FF03E9E613009AE68D
:403A40000123A6E7FFFFFF7DFFFFFFFB4302590A4300C20F1B0E00207E2B0EDD9D2B0DDC802000040143952B0BDC9620C31AD9400B005842002A00D118007047034BD018F9
:403A8000FBE7963B99400B00F3E7C046FFFFFF7F70B5002830D0C317C5185D40C40F280000F026FF9E231B1A962B0DDC9622D21A95406A02520AD8B25202C005520AE40797
:403AC00002432243100070BD992B19DC9922D21A9540124A2A40690704D00F210D40042D00D00432510103D50C4B1A409F231B1A9201520AD8B2DFE7002400200022DBE7B3
:403B000005222E00121AB921D6402A00C91A8A40551EAA4135001543DBE7C046FFFFFFFBF0B55F4656464D464446F0B40D0399464E002B0B87B00700924680469B46760D38
:403B4000CC0F002E69D06D4B9E4235D05B468022DD001204430F13432B439B46C3009846674B00279C460023664401934A4615035000D20F53462D0B400D914600D176E087
:403B80005E4A90426CD080225B0F120413435C4AED0094461D4353460022DB00604449463618701C6140029017430F2F00D9AFE05448BF00C759BF465B461F4300D088E079
:403BC00000239B469846023308270193CEE74946022A6AD0032A00D109E2012A00D0BBE111400022002300259046CCB200212D030A0D12052D0B1543434A1B0515401D4341
:403C00006D00E4076D0825434046290007B03CBC90469946A246AB46F0BD034352D05B46002B00D18AE1584600F062FE03000B3B1C2B00DD7BE11D22D31A3A0001005D4685
:403C4000DA4008398D4013008F402B439B46B8462E4B00279C46002360444642019385E752462A432CD100250023022297E752462A4321D0002D00D154E1280000F038FEB9
:403C800003000B3B1C2B00DD46E11D21CB1A51460200D9405346083A954093400D431B4A944660444042002279E7012400220C40124B0025904699E70025002301226EE7B6
:403CC00003226CE700239B4698460133042701934CE703230C27019348E700238025984600242D03054B81E75D464346019A6FE75D4643462100019A6AE7C046FF07000014
:403D000001FCFFFF206E0100FFFF0F80F30300004246120C91461A0C9446424617044A461B041B0C5A43604690464A4642431000039262461C003F0C7A437C434244019209
:403D4000220C9246019A5244904506D98246802040028046C24450460390100C049048462404240C1204121905922A0C2D042D0C68432C00824648467C4350438146200C39
:403D80008046574357444744BA4503D9802040028046C144380C3F04B84648442404240C01900498A044404404905846000C814658460404200C8246070048465F434C468F
:403DC0004343604660436446834650464443380C8446E4186444A34203D980235B029C46E34448463F04230C3F0C2404E419574668436F4384464D46504655434243380C2A
:403E0000814662444A445B44944503D9802040028446654403983F04834604983F0C8446E344C345804140428246100484460198674484466744A344BC46A345A441994620
:403E4000D44464428742BF41D4458041E144A04699459B417F424042C8440743120CBA18A045A4415F423B0064422343D71843467D19DB0D6D021D435B465A02059B1A4322
:403E8000531E9A415B46DB0D1A4343465B021343EA0107D501225C0813402343EA07029E13436D08574AB218002A4BDD580709D00F201840042805D0181D98429B415B422C
:403EC000ED180300E80104D54F4A15408022D200B2184E48824200DDE7E60124DB08680718436D02530580462D0B5B0D0C407DE6802259461203114208D0154206D1154313
:403F00002D0398462D0B4C46414B6FE65D4615432D032D0B3E4B69E603005546283B9D400023BCE6504600F0E3FC2030A8E60300283B9F400023BB46984689E600F0D8FC2D
:403F4000203073E60124A61A382E07DD00220C4000230025904649E6029EA3E71F2E20DC20222C001800921BF040944093400443581E83411C43F540630709D00F23234044
:403F8000042B05D023001C1D9C4292415242AD182B021FD5012400220C4001230025904624E61F202C004042821AD440202E1CD04022961BB5402B43581E834107202343A6
:403FC00018400025002809D00F2200251A401C00042AD8D1230068076D022D0B0124DB08034398460C40002300E60025E3E780220124120315432D0398462D0B0C40044BE2
:40400000F4E5C046FF030000FFFFFFFEFE070000FF070000F0B557464E464546E0B40E001100F20F9246C500420F180337037400400A4E0F7F0A3043CF4E17435A00640DE8
:40404000520DDB0FC900B24200D1E5E001267340A61AB446534500D1AFE0002E00DC0DE1002A3AD103000B4300D0E4E06B0709D00F232B40042B05D02B1DAB42AD416D4248
:404080007F191D003B0200D488E0BB4B01349C4200D110E13A00B94B51461A4001235007ED08520264050543120B640D0B400021280012030D0D120B64052D051543620888
:4040C000AF4CDB072C401443640064081C4321001CBC90469946A246F0BDA74B9C42C5D080231B0418436346382B00DDFDE01F2B00DD30E1624620239B1A02009A40664606
:4041000090460A009940F24046464B1E99413243114363460200DA40691A8D429B410D00BA1A5B42D71A3B0235D57A02530A98464346002B00D1C4E0404600F0D9FB030026
:40414000083B1F2B00DDC5E020222900D21A4746D1409F400A009D403A439C4200DDC0E01C1B631C1F2B00DDE4E0202114002800C91AD8408C408D400443DA40681E85413E
:4041800017002543002471E7424663461A4300D14CE2674645466B0700D069E7012351467807ED08FA080B40054373498C4238D012036405120B640D79E7002E00DC9AE067
:4041C000002A47D06C4A944200D14FE78022120410436246382A00DC08E10143481E81410022C9B24919D219A942BF410D007F42BF183A0200D442E15F4A0134944200D173
:404200004EE101205D4A69083A4028400843D507054357089A4629E706000E4300D017E714E72900114300D1F9E1802109030A431203120B3BE701235B429846C444634690
:40424000002B72D1691A8D429B413F1A5B42FF1A0D0068E702000A4300D107E7012252429046C4446246002A00D0E6E06918A942B6413F187642F7190D00BAE7002E00D0FE
:4042800080E0621C5205520D012A00DCF9E06A1A91464D45B6413A1A7642921B9046120200D499E04D1BA9428941C71B49427A1A90469A463CE75246012300251340002269
:4042C000F5E6280000F014FB20300300083B1F2B00DC39E72A002838824000259C4200DC3EE7264FE41A1740C0E60143481E81410022C9B210E7002E00D0F1E0621C9446F9
:404300005205520D012A00DCA0E01B4A944500D1C5E06918A94292413F185242D2194908D5070D4357086446A0E6134B9C4200D0D9E69BE611001F3CE1400C00202B00D16A
:4043400080E04021CB1A9A4015436A1E95410027254300241FE763460200203BDA406346202B71D0402366469B1B98400143481E814111430022CFE6FF070000FFFF7FFF43
:40438000FFFF0F80002C48D0CA4CA24200D1A2E07442A1468024240427434C46382C00DDDBE01F2C00DD44E14E462024A41B3E00A640A246B0464C462E00E640B44646462C
:4043C000644626435446A5406C1EA54134002C434D46EF400D1B28E04A4643464D461A4300D0A5E6002300240025DEE61F2A5ADC66462022921B060096409146B046624627
:404400000E00D640424616434A4691404A1E9141020060463143C240E4E63C002C435AD0F443A146002C52D14D1BA9428941C71B49427F1A14009A4675E69E4A944200D0B2
:40444000C7E613E600227FE700208FE7002C00D0C8E03B002B4300D10FE103000B4300D104E66918A9429B413F185B42DF193B0200D41AE1904B0D001F406446F6E59A4672
:4044800089E63A002A43002C5CD1002A75D102000A4300D1CAE007000D009A46E6E564460022002581E662460600203AD6406246B046202A00D1B7E040226646921B904043
:4044C00001434246481E8141114300228AE6794CA24200D061E707000D0014009A46C5E5002C41D13C002C4378D0F443A146002C20D0704CA24271D04C46382C00DDB2E0BE
:404500001F2C00DDBCE02026341BA2463C005646B4404E46A0462C00F440A446444666463443A4465446A54064466E1EB54125434C46E7406D188D4289413F184942CF195F
:40454000140056E6002A2FD102000A4300D184E007000D009A46574C88E53D436F1EBD41ECB200270D1B60E7524CA24236D0744280263604A1463743BEE702000A4300D1B6
:4045800074E56A1A90464545B6413A1A7642921B9446120200D4F7E54D1BA9428941C71B49427F1A9A4661E502000A433AD0ED087C072C438025FA082D032A4208D0C708FD
:4045C0002F4205D145072C003A009A46C9080C43670FD200E5001743364C47E507000D00140043E53A002A4343D002000A4319D0ED087C072C438025FA082D032A4207D04A
:40460000C6082E4204D147073C003200C9080C43D700620FE50017439A46264C26E50022002544E5234C21E5002049E700230025BBE54C463E00203CE6404C46B446202C60
:4046400031D040244E46A61BB7403D436C1EA54164462C4300270D1BE7E6802200231203144C0025A1E53D436F1EBD410027EDB260E707000D000F4CF8E407000D00F5E42F
:404680004E463C00203EF440A0464C46202C0ED040244E46A41BA7403D436F1EBD4144460027254346E70027CFE70D0073E50027F2E7C046FF070000FFFF7FFF4200120EDB
:4046C000511C4302C9B270B55D0AC40F012915DDE02189008C466D071B0B6244002128000D0D2D052B431C4D52052B40520813435B00E4075B082343190070BD002A15D133
:40470000002D1FD0280000F0F3F80A281DDC0B232A001B1ADA4013000200153295400F4A1B03121A52051B0B520DD7E7002D06D080221B0B120313436D07094ACEE7084A16
:404740000023CBE700220023C8E703000B3B9D402B000025E3E7C046FFFF0F8089030000FF0700004B0070B55E0D0C03751C640A420F6D052243C90FC4006D0D012D2ADDAF
:404780003B4BF318FE2B1ADC002B42DD8001451EA841D2001043620F0243500704D00F201040042800D004328020C004104021D00133FF2B03D09201520ADBB201E0FF2326
:4047C00000225202520ADB0513435B00C9075B080B43180070BD002E07D01443EFD08020D20080040243FF23D7E722430023002A03D00522D208FF2B03D05202520ADBB29A
:40480000DFE7002A32D08020C00302435202520AD7E71800173014DB8020000402431E20C01A1F280FDC2500124BF3189D406E1EB5419A402B0013432200C2401A43002304
:40484000ABE70023D5E702256D42EB1A1500DD40202809D0084BF3189A401443621E9441220000232A4398E70022F6E70022A8E780FCFFFF82FCFFFFA2FCFFFF8446081C54
:404880006146FFE71FB500F0BDF8002801D40021C8421FBD10B500F049F84042013010BD10B500F0AFF8002801DB002010BD012010BDC04610B500F0A5F8002801DD0020BF
:4048C00010BD012010BDC04610B500F057F8002801DC002010BD012010BDC04610B500F04DF8002801DA002010BD012010BDC0461C2101231B04984201D3000C10391B0A87
:40490000984201D3000A08391B09984201D30009043902A2105C40187047C04604030202010101010000000000000000430270B542004C005D0AC30F4802120E460A240E15
:40494000C90FFF2A0FD0FF2C11D00120A24200D070BDB542FCD18B420DD0002AF8D12800431E9841F4E70120002DF1D1EBE70120002EEDD1E9E70020EAE7C0464302F0B50B
:4049800042005D0AC30F4802440A4800120E000EC90FFF2A1FD0FF2822D0002A09D16E426E4100280FD1002C0DD10020002D09D005E0002801D1002C01D08B4213D05842A4
:4049C00001231843F0BD002EF7D048424141012049420843F6E7002DDDD002204042F1E7002CDAD0F9E78242E9DC04DBA542E6D80020A542E6D25842434101205B421843A7
:404A0000E0E7C0464302F0B542004C005E0AC30F4802120E450A240EC90FFF2A17D0FF2C19D0002A0BD170427041002C17D0002807D048424141012049420843F0BD002CB9
:404A400013D08B4214D0584201231843F6E70220002EF3D1E3E70220002DEFD1E1E7002DE5D10020002EE9D0EDE7002DE9D1EAE7A242E8DC04DBAE42E5D80020AE42DDD28E
:404A80005842434101205B421843D7E7014B18687047C046A41000200E4B70B500251E000D4CE41AA410A54204D0AB00F35898470135F8E712F0D6F9084B00251E00084C78
:404AC000E41AA410A54204D0AB00F35898470135F8E770BD706E0100706E0100706E0100786E010030B50024A24208D0035D651C0C5DA34201D0181B02E02C00F4E70020AD
:404B000030BD002310B59A4203D0CC5CC4540133F9E710BD03008218934202D019700133FAE77047134A1088810703D08107890F401A001D11791030484381B25088820767
:404B400003D08207920F801A001D800040180A494030098980B2CA0701D0503080B2890706D504495422091F09785143081880B270470000F20C0020F410002010B501F062
:404B800065FF10BD10B501F067FF10BD10B501F079FF10BD10B500F05BFA10BD10B50749044609780220002907D1204601F0C2FF002802D120460AF0F9FC10BD900E002013
:404BC00070B504460120002C12D02368002B0FD0616800290CD0074D06222889208118462968FFF78EFF6968606809780170002070BD0000F4100020FFB585B000276846BA
:404C00000E9D07734F481C460078002802D0082009B0F0BD10990F9801900095029105A807C800F007F90028F2D16946264603AB84460873002C19D0002115E08A00B75A22
:404C4000082F09D990198078002805D0083FB7521878401C187005E0002914D00027B75290198770491CC9B2A942E7D360460028CED10F98002809D0109901F097FA00280A
:404C800004D00120C4E701208446EFE701F0FAFE2D480021416081600599016021888180022D07D3A1798171A17AC171A1890181218A418100211EE0481C19E082008B00E5
:404CC000A75AE65ABE46BE4211D26F463E80B4461E190296B678BE7001967646E6521719029EBB78B3706646A652019EBE70401CA842E3D3491CA942DED3134822460C30D6
:404D000000906846037B0799069800F01BF90028B8D168460B4C007B60700B480C3001F0E1FE0028AED1084907480C3107F09CFC0028A7D107F0B6FC0028A3D1012121706A
:404D400066E70000EC0C0020E8100020F8B5054636480F460078002802D002242046F8BD002F60D000243249002D16D02A89D0070DD02868002808D003881B3BE12B04D26D
:404D80004088FB2801D81B2801D2012409E0900707D56868002804D1F7E70020088108604860002CDAD122482E8906811F481B21801D01804180042101711C490020891C72
:404DC0000870F00705D019480622801D2968FFF798FE1749B00703D56A68144812788270124D0E46AD1D281F0D60486001F0C8FE284601F0B7FE30890EF0D6F930890DF0B3
:404E0000C7FB28880DF0CAFB30890EF037FB03461033FFF787FE1F21C018890140183880A91F88809AE7012498E70000EC0C0020F4100020FFB58446384F1C460020BB88A1
:404E40003F78054602460646002F11D100290ED0029999420BD36146002908D0002C06D00A99002906D02E4B0B99994202D2012004B0F0BD002144E0AB001F19BF78002F08
:404E80003BD0E35A002B38D07B43591889B22B0000F04AF8050410161C253100A7782388BC46FF27233BEB37BB4222D26346032B1FD322E0A388002B1FD0302B19D31CE059
:404EC0002389002B19D0282B13D316E0A289002A13D01346134F233BBB420AD20DE0268A002A0AD033460F4F233BBB4201D2964203D901200EE0002001E000280AD16D1CA3
:404F0000EDB2099B9D42B7D31C2463435B1802998B42ACD89642AAD8AAE70000EC0C002079020000BAFF000030B47446641E2578641CAB4200D21D46635D5B00E31830BCE8
:404F400018470000FFB583B0002469460C801F4606468C80002806D00598002803D004983043800701D0012466E0002FFBD03449049809888842F6D3FDF736FFFDF71CFFF8
:404F800000F012FC002855D100F07AFD002851D12C49084601F03EF905042D0C4AD12A480499066081800021C18007810C98007AC00704D0684601F07EFD040007D10C98F9
:404FC000007A800703D501A801F07EFD0446BF1DFEB2002C20D13146059800F05DF804001AD10EF059FA040016D16A461088928808368518144AF1B29088D288AEB2931990
:40500000984207D3401B801A80B201F0F3FB050007D000E0FF25012400F05EFA002D04D008E0F8B200F01CF9F6E700F081FA07490120087000F0CAFB204607B0F0BD000021
:40504000F00C00208551000000110020F80C002010B503480078012801D101F06DFA10BDF80C002070B5084B0446DA889E8800205518B54206D81D68AA182260DA885118DD
:40508000D98070BD032070BD00110020014800897047000000110020F0B587B007460D4600208900009006916846FFF7DBFF844600285DD1304800990160002117E02E4B42
:4050C00088001A680629115406D22C4C0419667882185670628805E0C419203CA67A8218567022891B68C018491C4280C9B2A942E5D300242DE0601CC2B2059025E01E4F6C
:40510000A30039689600581840887118039604904E88B04217D938466F46FE80B6464F786E4677710297049F4F800168039F5E18767879184E700168764659184E8000684A
:40514000029F18184770521CD2B2AA42D7D30598C4B2AC42CFD36046002809D168460699FFF780FF8446002802D1054900980860604607B0F0BD0000FC0C0020986E0100C6
:40518000000D00207047000010B5002809D005494A68002A05D0011F08788000105801F0D7FA10BDFC0C002010B50446FFF76EFFC0B2801DA0420CD307484068002808D0CE
:4051C000A100405801F036FA002801D00470001D10BD002010BD0000FC0C0020F8B516460D460446FFF752FFC0B2801DA04203D20020C0430090F8BDB2B2E9B2684601F030
:405200003FFA0099481C03D0024AA000526811500098F8BDFC0C0020F8B50746FFF736FF801DC6B20A49002005460C680DE06178002907D06188B94202D32078FFF7B4FFBD
:40524000002804D1241D6D1CEDB2B542EFD3F8BDFC0C002010B5002801D0FFF795FF10BD70B506460948002504680BE06178002905D062882078121D0023FFF7AFFF241D4F
:405280006D1CEDB2B542F1D370BD0000FC0C0020FFB581B00A9F16000C4620D000F0F2F8054604281BD0002F0CD03846FFF7B4FF20492A0151184860002810D03A46049998
:4052C000FFF71FFC1B4928010E504618778101980570200406D47D20C000444304E0FF2005B0F0BD6404640C00F0BAF80746042807D000F04FFAA0420BD800F04BFA201AD0
:4053000003E0204600F0AAFA0020F06035720020E6E700F03FFA009000F0B6FA00980121001B009000F0ECF802493A0151180098C860E6E70C110020F8B5060116483418E3
:40534000217A042903D0E068002802D017E00020F8BD00F01FFA054600F096FA00F0A0F804280CD001010C480F18F8680021451900F0C6F80020F860284600F06FFA60680F
:40538000054D002801D0FFF765FF042020720020A8516081E060DAE70C110020FEB500266A46304601232549050169180D7A042D02D0C96800291BD000211154401CC0B21F
:4053C0000428F0D300246846005D002830D01B48210108184189476805680291002101604160042241810272C160002E02D015E01354E3E700F054F804280ED001010F48E4
:4054000008180190C6680021304600F079F801980021C160304600F021FA0126002D07D038460299A847002F02D03846FFF712FF641CE4B2042CC6D3FEBD00000C110020A9
:405440000EB5002005216A460090118150810348694600680EF085FE0EBD0000040D0020074A0020010189180B7A042B02D0C968002903D0401CC0B20428F3D37047000063
:405480000C1100200549002002015218127A042A03D0401CC0B20428F6D370470C11002030B50A4B04200A4C00210A011219157A042D06D0D268002A03D09A4201D80846B5
:4054C0001346491CC9B20429EFD330BDFFFF00000C1100207047000030B50020074C05460423020111190B72A5504D60401C4D81C0B2CD600428F4D330BD00000C110020A9
:4055000030B5094C00231A011219157A042D04D0D568002906D02D18D5605B1CDBB2042BF1D330BD2D1AF7E70C110020002070471CB5002469460C70142001902346054AC4
:4055400005480EF013FE04480068401C00D1FF2420461CBDAD550000040D00203EB5124A0146FF2000230124126800290DD0012914D0042908D104206946009308814B810D
:4055800010460EF0EEFD80B23EBD6846009304814381694610460EF0DFFDF4E768460093048143816946EBE7040D002070B545890468416800890300FFF7B6FC0828050985
:4055C000091E22282628002005F00AFF1EE0022908D0C8B22A4621460CF026FF2046FFF739FE13E002202A4621460CF01DFF2946204600F00DF809E000200EF0B1FA05E063
:405600002046FFF7CBFE01E0FDF76EFC002070BD014B0022DB681847080D002070B5448905680089022803D0032809D0FF2070BD2246094C0023A46829460120A04708E0F4
:40564000FFF7A4FA241DA2B200232946022006F0BEFE002070BD0000080D002070470000024800214160018041807047080D002070B50C46002186B016460391012802D06F
:40568000022859D116E003A9012006F0F5FE01281BD1039D324621462846FFF732FA0095287801900220694608814E816846FFF7B5FF41E0214D002B686809D0049004A9DB
:4056C000022006F0D9FE01281DD0022006B070BD002812D0298840182146FFF712FA28880024801980B228806988091D884206D12C801348FFF792FF03E00320E6E78842FA
:405700001AD96C6018E004986860E278A378110219430B4A698000231060E3565360032313815181A1788170E178C1706178417021780170042028800020C7E7080D00202A
:405740004C1100203EB515460C46022803D004280CD000203EBD0091019002206946088107484A8100680EF0FCFC07E00CF05CFE044B0022DB6829462046984701203EBD37
:40578000040D0020080D0020014AD16090607047080D0020034801688068081A0A214843000970475811002010B5FDF70DFB482204490548FFF7A5F903490120C870002050
:4057C00010BD0000B46E01005C15002010B5FDF7EBFA10BD70B5134C2368002B08D0207B1149C20705D04008400020738868A08070BD88680B4AA18880B29268814203D987
:405800000A4D691A091802E0814202D2411A5118A160A080A0689842EAD30EF0BFFC00F013F870BD58110020C0102E40FFFF000010B508461946FFF7A7FF10BD704710B573
:40584000FFF780FF10BD000003480021016041608160C1607047000058110020024610B5FF20002A0CD0FFF7EFFF064C0321207B0843207310010A21FDF72CFC2060002039
:4058800010BD00005811002000B504480A21806848430209FFF7D8FF104600BD581100200248007B8007C00F704700005811002010B54B490868002802DA4A4B01221A7015
:4058C000022290430860484800694549C00B4031096A0246C907C90F0A4259D0012000F0EDFA3F480E216C30FDF768F93E4820218430FDF763F93C4814219C30FDF75EF974
:405900003948FF21C131A430FDF758F93648FF212F31B030FDF752F933483449BC30FDF74DF931483249AC30FDF748F930492E48491CB430FDF742F92B482E49B830FDF74E
:405940003DF929482C49CC30FDF738F926482B490830FDF733F924482949A830FDF72EF9214828498830FDF729F91F4826498C30FDF724F91C481921C9029030FDF71EF960
:40598000FDF72CF9FDF73CFAC0B2022812D01FE000290BD0002101420AD0114801216030FDF70CF90120FDF7F3F997E70121F2E7FF2010BD15491648FDF700F91448154918
:4059C000001DFDF7FBF8124800210830FDF7F6F854200449C043891C0870002010BD000000F02E40180D002000002E40320300002F3F00003102000010520000EC160000F5
:405A0000FA12000031D000003AE300009956000080012E40F80F000070B50646581C80B245086D00002408E0304600F0C1F81055000A1119A41C4870A4B2AC42F4D3D80760
:405A400005D0D0182038D15CC47FD454C17770BD30B50A4C002100195B1E07E0541864782502545C2C430480891C89B29942F5DB994201D1515C018030BD000000102E405C
:405A800010B5FF2000F01AFA0F49FF2048700E481021801D41800121417001700A490020C91C4870FFF704FF04000AD100F02EF907210648FDF772F8044807211830FDF723
:405AC0006DF8204610BD0000180D0020CC112E4070B5002405465B1E0AE0284600F068F8010A161971702D1D1055A41CADB2A4B29C42F2DB9C4203D1284600F059F8105519
:405B000070BD000070B500210A4D5B1E0AE0541864782602545C344346193480001D891C80B289B29942F2DB994202D1515C4019018070BD00102E40F0B50599091FCFB2EB
:405B400000217E1E0BE0541864782502545C2C43164D45192C80001D891C80B289B2B142F1DBFC0712D01C78515C24020F4A0C4381180C809C785D78001D210280B22943B4
:405B800084182180001D80B2D9780CE059781A7809021143054A84182180001DD9789B78090280B2194380180180F0BD00102E40014940180088704700102E4010B50B49F8
:405BC0000020487000F0A2F8002000F09DF9002000F08AF907210648FCF7E0FF044807211830FCF7DBFF002010BD00001B0D0020CC112E4010B50C48007801280FD100F02F
:405C000091FF00F0DDF8002804D10848016A490849000162054802213030FCF7CFFF02490020C91E087010BD1B0D002040F02E4010B50B46062812D006DC01280CD0032814
:405C400001D1FFF7BBFF10BD0A28FCD00B28FAD105480078107010BDFFF712FF10BD1146184600F06DF910BD1E0D0020F8B5244DAC6A0127A007234E002816DA307806286E
:405C80000ED1286A384328621F480069F903084381B21D481030FCF791FF042000F00EF9174802212830FCF779FFE00718D000F07BFF01280FD1002000F0C8FF062000F06D
:405CC000FDF81049FF20C91E48707078002802D1686B384368630A4801212830FCF75EFFE0050BD53078042802D1052000F0E6F80348FF2101312830FCF750FFF8BD000035
:405D000040F02E401B0D002000002E4010B503212348FCF753FF0120FDF72AF820483038406A204C80076178800F890001431C480C38FCF743FF6078002808D0401E022167
:405D400081401820FDF7B0FAC000083800E0B82081B21548FCF732FF1348032109021438FCF72CFF10481149B830FCF727FF612189010F48FCF722FF0D480321001FFCF777
:405D80001DFF0C490C48FCF719FF0B480B496038FCF714FF084801218838FCF70FFF10BD70F02E401E0D0020D8102E4090890000041E2E40FF0F000058122E402090000020
:405DC000044800684007400F022801D0002070470120704700010B4000B5FFF7F1FF002805D009480168C908C900016000BD0748016A490849000162054801690122D203F3
:405E00009143016100BD000000010B4040F02E4000002E400849087806280BD148780749002803D1486B400840004863C86A01221043C862704700001B0D002040F02E40DB
:405E400001480078704700001B0D002002484078022800D001207047180D002000B50300FFF762F8080D050D0B070507090D012000BD032000BD042000BD022000BDFF2049
:405E800000BD0000074A9168D26889B2064B92B2994204D105498A4201D1012100E000210170704780002E4033D000003FE3000001494870704700001B0D002010B50446C7
:405EC000FCF77AFF072C01D9FF2C01D102480470FCF76AFF10BD00001B0D00200149487070470000180D002010B5064A012805D01921C9021046FCF761FE10BD1D21C90269
:405F0000F8E7000090002E4010B50A4A141D012808D009491046FCF751FE08492046FCF74DFE10BD04491046891CFCF747FE0349491DF3E788002E4031D000003AE300006D
:405F400070B50C460546FCF75BFFC0B202280E49287804D0FF2810D04C280CD810E0FF2809D10A4AD0680004800F032801D0087807E09069000A553803E00878207070BD29
:405F80004F382070087070BD1A0D002000002E40F0B50122002834D0002932D00424420600D00524792342065B06D21800D0641C034600221EE00C2516466E43124D00273C
:405FC0007519AF72104F002ABB51696007D0661EB24209D10D4E86197606760E05E05E06760E8027BE1B00E080269B198919521C2E81D2B2A242DED303480549006B0022EC
:4060000088611046F0BD0000E413002079020000240D002018B50020694608700A48006900280ED0132149014018047E684604704F21C900054800F059F8A04201D00120A7
:4060400018BD002018BD0000240D002068110020074900200C2242435218927A012A05D0401CC0B20628F5D30020704701207047E4130020F8B50E000446154609D0194FA8
:4060800019497868A04202D94018A04201D38D4201D90120F8BD31462046FEF723FD00281ED02A4631462046FEF72BFDE8B200210C224A43D21913895568EE18A6420BD956
:4060C0000126641B1B1B9672834209DA1469C01A044AC0B220329676491CC9B20629E7D30020F8BDE413002079020000034610B50020024604E09C5C2018521CC0B292B2C1
:406100008A42F8D310BD000070B500F05FF8084C064A216907480D46FEF7F3FC05492846FFF736FFFFF776FF207070BD79020000240D002068110020002070470020054A21
:40614000002902D0012902D002E0906000E0D06000207047240D002070B5084C154608460549E26889182A46FEF7CBFCE0684019E06028B270BD000068110020240D0020C5
:406180003EB50A226946FFF7E7FF044606480A2200686946FEF7A6FC002802D00020C0433EBD20463EBD0000280D0020002802D0044A914201D2FF20704703494A610861D1
:4061C0000020704779020000240D0020024800218160C16070470000240D002070B5074C15460548A26880182A46FFF743FFA0684019A06028B270BD68110020240D0020CB
:4062000010B503490A220968FFF7E8FF10BD0000280D002010B50F4A002313600E4A13600E4B18600E4801600E49012008600E490860000290600E490C4808600D4914306C
:406240000860FF381538506000F0BCF800F0CAF9002010BD580D0020400D00206C0D0020700D00205C0D00204C0D00202C150020500D0020640D0020014610B50020002950
:4062800010D0094B1A689C685118A14209D25868196080188A0704D08A07920F891A091D196010BD002010BD400D0020F8B50024164E671E321F3D463168136806E014226E
:4062C000624310328A58521C1BD0641C9C42F6D36A1C14D02C461422544322460C3288500C214843FFF7C8FF3168002808510AD031680020103408517068401C70602846FD
:40630000F8BD2546E4E73846F8BD0000500D0020F3B50026F64381B000281BDB1E490968884217D80299002914D01B4F142204463F1D54432546396810354859401C09D02F
:40634000FCF73AFD38682F1F4159C359994203DBFCF72AFD3046FEBD214608310091465801590C20704308180C220299FEF7C9FB0948761C001D0068C159B14200D1002635
:406380000549009A091D865008684159491C4151FCF70AFD0020FEBD4C0D0020002803DB07490968884202D90020C043704704491422091D09685043103008587047000060
:4063C0004C0D0020F0B500200D4A451E0346171F50600FE014260146714314680E1DA3510C461668083433511668083435511468401C635039688842ECD30020F0BD000065
:40640000500D0020F3B50026F64381B0002841DB2349096888423DD8029900293AD0204F142204463F1D54432546396810354859401C2FD0FCF7C0FC3868415900292BD09D
:40644000211D009146580C21005971430F46C1190C220298FEF755FB11480021001D0068761C00590C34C0190160416081600C48001D00680159B14200D100260849009A4B
:40648000091D865008684159491E4151FCF78CFC0020FEBD3046FEBDFCF786FCFAE700004C0D0020FEB504460D4600201E49089E0860471E009001900290002C11D04868CD
:4064C00085420ED2002A0CD0002E0AD0642E08D808460C3001681C2068430C18207A002801D03846FEBD0120226020721846FFF7DDFE6060401C13D06681A6810A48276160
:406500000C3067610179A94200D205710021684601810A462846029B00F040F82846FEBD00202072DDE70000580D002038B50124009400F039F838BDFEB50027164EFF4376
:406540003D4600240EE01C20316860430818017A002906D04068FFF721FF002801D0254603E0641C3079A042EDDA681C12D01C2130684D434419FCF71FFC69466068FFF7FA
:4065800041FF0546FCF710FC002DD9D1216868468847D5E7FEBD0000640D002038B50024009400F001F838BD1FB500220C49541E0A60002811DB496888420ED808491C22BE
:4065C0000C31096850430818406801A9FFF7A0FE401C02D0002004B010BD2046FBE70000580D0020F0B50021114A4D1E174611710C3F0B46BD6016E008461C2460431668EF
:40660000041D355114680646235014680836A3551468361DA353044616680A34335318301468491C255078688142E5D30020F0BD640D002038B500210091002811DB0F4913
:40664000097888420DDA0D4D04010C3529680859002807D0201D0818694600F06FF9002801D0002038BDFCF7A7FB28680F34015D491E0155FCF798FB009838BD740D0020AE
:40668000F7B582B0002502986E1E06602E48D21C024017462D4A2C4610460C380178106805E02301C358002B0FD0641CE4B28C42F7D3711C28D03401211D4018019103997A
:4066C00000F02AF900281FD101E02646F1E71F48016820460C300F521C480399026820460E30115419480399026820460F3011540398784300F0A0F8144900280968085166
:4067000002D00024009011E001251AE00F48016801980818009900F02CF9002801D0012502E00098C0190090641CE4B203988442ECD3002D05D10298066004480179491C35
:406740000171284605B0F0BDFCFF0000800D0020F8B50D4600216A468C461180002839DB23490978884235DA214B04010C3319680A59002A2ED020460C300B5A801C0E5C30
:40678000184670438018954224D3854222D2002006E007465F43BF18AF4206D0401CC0B2B042F6D36046002814D0114E271DC8190C366A46294600F006F900280AD1684654
:4067C0000088012808D030682946C01900F0D1F8002803D00120F8BD0020F8BDFCF7ECFA30680F34015D491C0155FCF7DDFAF3E7740D0020F8B50F46002400F031F8002858
:4068000017D10C4900220B460C334A600EE021011D680E466A501D680C36AA53B61C1D680F31AA551D68641C6A54E4B2BC42EED31A71F8BD740D002000280BD0C01C074A99
:4068400081085068890053884118994203D89368516018187047002070470000740D0020F8B5064600200F4D009029700C0121466846FEF7F7FB00280CD129460C31009869
:406880000860301B001F84B221466846FEF7EAFB002801D0FF20F8BD6C800098A8600020F8BD0000740D0020F8B5002827DB19490978884223DA174C05010C3421684859BE
:4068C00000281CD028460C30085A009028460E300E5C401C0E5420682F1DC01900F064F800280CD12068002445590EE0094829460C300068C01900F03CF8002801D0012063
:40690000F8BD00982D18641CE4B2B442EED30020F8BD0000740D002030B50D4604000BD0A800FFF789FF6060002805D000202570C0436080002030BD012030BD70B50D465D
:40694000040005D0002D03D00220205E002801DA012070BDFCF730FA0221615E60688900405828606088401E6080FCF71DFA002070BD70B50D46040007D0002D05D00221E8
:406980002078615E401E814201DB012070BDFCF713FA6088401C00B26080616880000D50FCF702FA002070BD10B5040009D0227800216068FEF7AEF80020C043608000209A
:4069C00010BD012010BDF0B500231D46002802D00224045F0AE00120F0BD46689F00F6598E4201D1012503E05B1CDBB29C42F4DA15700020F0BD00000148007870470000B5
:406A0000880D00207CB505460024FEF7BFF8A8796946087000A8062229460130FEF771F80021684604F0A2FF0C2806D0072806D01F2806D0122806D006E0022404E0042487
:406A400002E0272400E0012420467CBD01480121417270476416002010B502280BD0032802D0042809D102E000F07EF905E000F029FAFF2801D100F039FAFFF7E1F9FFF7E6
:406A8000EDF910BD10B500F061FAFFF7D9F9FFF7E5F910BD70B504460025FEF777F8002C06D0A079012803D8214602F0CFFD00E00125284670BD01460120002902D05020FA
:406AC000088000207047000001460120002905D0034854220078504308800020704700008A0D002010B502460D49FE204870032410460DF059FE002810D10DF0FDFD0028BD
:406B00000CD105F015FD002808D100F02FFC002804D105F0D1F9002800D10024204610BD880D002002480021018280210180704700102E4070B50025044600280ED0A0799C
:406B400001280BD8FEF722F8A0790028204602D003F058F903E003F02DF900E00125284670BD0000014610B50120002904D006220248FDF7C6FF002010BD0000940D00209D
:406B800001460120002903D00878024908700020704700008A0D002010B5FFF751F9012801D1FFF753F910BD0148007A704700006416002038B504460120002C20D0617830
:406BC00001291DD800290BD0FF25E535FDF7DEFF0C4828180088C0B22070072803D00EE0FF25CD35F2E70020694608706846FFF749F969460878012801D108202070002027
:406C000038BD000000102E40014A002192681047880D002008B500226B461A7026280CD0094A342852680BD0352805D1900703D50021352005F058FD08BD19462620F9E73B
:406C4000D007F9D03420F5E7880D0020014908727047000064160020F8B504460120002C26D06178012902D92278092A20D8002905D0FF25E5352078092803D004E0FF25BD
:406C8000CD35F8E708202070FDF780FF2078114F114E08280DD00020FFF736F970780128207810D00D4969180880FE2070700020F8BD0120FFF728F90720B881054920312D
:406CC00088800120F2E7B8810248217820308180EBE70000C0112E40880D002000102E4070B50E46050001D0002400E00C4C002C11D0E28A500609D5D107C90F022003F0C4
:406D00001FF9E08A40218843E08204E0D107C90F012003F015F93146284602F0F3FD70BDC4150020F8B50546002004460D4E009013E022466946284601F0EEF80098002844
:406D400001D00DF013FDA878214602F0BDFBA878214602F0ABFB641CE4B2308AA042E8D8F8BD000090160020F8B54E4CFFF768F8012847D14C480078002843D002F04AFD9A
:406D800000283FD004F094FA00283BD0474E7078C00703D000F01CFD012833D0307E00287DD17078002500285BD0000706D540488089070B00F02EF9384370D13B48417883
:406DC000684604F0BBF821793A4CA2788918C9B2814262D802F01EFD002860D0344860300789324E203602F05FFB6846008802F089FB02F025FC30490988884203D1012040
:406E0000FFF75CF84BE02D49012008702748807B00281DD0002F1BD04036F07E002817D123486030008821494000C031498981420AD26078002807D103F0B0F82049088A44
:406E400003221202104308822078002800D0257002F08EFB0120FFF72BF800F025FC174C15E002F0D7FC002819D0102402F0E8FB214602F0D1FA02F045FB104C0120207077
:406E800002F076FB0020FFF713F800F00DFC20780128B4D1FEF7A0FF25700020F8BDFF20F8BD00009C150020180D0020A4150020A0102E40AE0D0020C00D00209A0D0020A1
:406EC000E0112E4010B50848FF244078002809D102F0A0FC012805D1FEF78CFE0720FEF7EDFF0024204610BDA415002038B5FEF7A7FF012801D0002038BD02F08BFC0028C5
:406F00000AD0114C6078C00703D000F061FC012802D0207E002801D0FF2038BD617800290FD0684604F00AF8022806D96846008802F0E8FA012002F025FB0320FEF7BEFF15
:406F4000D9E70020F7E70000A415002038B51E4CFEF776FF042813D0052811D0062812D003282AD007280AD100206946087002460120FEF75DFEFEF763FF0128FBD138BD1C
:406F800000F0B2FB38BD02F015FB00F0ADFB02F091FB8007800F0228F4D10C4841880029F0D05B21095D0029ECD101210170A07D0140022002F0C4FF38BD02F0FFFA01208B
:406FC000FEF77CFF38BD0000C4150020AE0D0020F8B50646002403F021F80546304603F037F803460A480021068A0DE001228A401046174628401F40002803D0002F01D1B0
:40700000224394B2491CC9B28E42EFD82046F8BD9016002070B500252C460A4E03E0002C01D0002000E030460079002803D02046FFF7CEFF0543641C2406240EEFD02846F5
:4070400070BD0000C41500201CB50020694648706846FFF7AFFD01AA69460A20FEF7E8FD6946042008561CBD70B50D4601F03AFB04000BD02079002808D0FDF787FDE178F3
:40708000A0782A4602F0C4FC002070BD022070BD01480078704700009C1500204030C07E002800D00120704700B500F001F800BD902148430749084A40186030417F491CED
:4070C000C9B24177D289914201D300214177C8B270470000A41500209016002013B501F001FB04000BD001F09EFE002807D0214601AA0A310620FEF79BFD00201CBD022077
:407100001CBD000010B50C4601F0ECFA00280AD001F089FE002806D0224604490A20FEF787FD002010BD022010BD000085150020F3B581B0074601460026029802F066FF9E
:407140000446002F01D0002500E0154D002D21D0284601F0FDFA032C04D13946029802F0B1FF06463846029902F0A0F9032C06D0002C10D00121384601F0F0FB03E0314654
:40718000384603F0A5F9284602F07EF80221284602F094F8FEBD3846029902F087F9FEBDC415002010B5044600F066FA002804D103F058FE002801D00C2010BD2078611C35
:4071C00002F028FDFF2801D01F2010BD02F06EFDFF280AD02178621C02F0F0F8044821780068026B601C904710BD072010BD0000D40D002010B503F035FE002801D00C2046
:4072000010BD02F0E9FC03480068C06A8047002010BD0000D40D002070B50D46044610210DF0E4F91021601806460DF0DFF9334610221946204603F043FE102130460DF039
